{"abi":[{"type":"function","name":"getAllGuides","inputs":[],"outputs":[{"name":"","type":"uint256[]","internalType":"uint256[]"}],"stateMutability":"view"},{"type":"function","name":"getBatchProfiles","inputs":[{"name":"fids","type":"uint256[]","internalType":"uint256[]"}],"outputs":[{"name":"","type":"tuple[]","internalType":"struct EmpowerToursRegistry.UserProfile[]","components":[{"name":"fid","type":"uint256","internalType":"uint256"},{"name":"username","type":"string","internalType":"string"},{"name":"displayName","type":"string","internalType":"string"},{"name":"pfpUrl","type":"string","internalType":"string"},{"name":"isGuide","type":"bool","internalType":"bool"},{"name":"bio","type":"string","internalType":"string"},{"name":"location","type":"string","internalType":"string"},{"name":"languages","type":"string","internalType":"string"},{"name":"transport","type":"string","internalType":"string"},{"name":"registeredAt","type":"uint256","internalType":"uint256"},{"name":"lastUpdated","type":"uint256","internalType":"uint256"},{"name":"exists","type":"bool","internalType":"bool"}]}],"stateMutability":"view"},{"type":"function","name":"getGuidesByLocation","inputs":[{"name":"locationQuery","type":"string","internalType":"string"}],"outputs":[{"name":"","type":"uint256[]","internalType":"uint256[]"}],"stateMutability":"view"},{"type":"function","name":"getGuidesCount","inputs":[],"outputs":[{"name":"","type":"uint256","internalType":"uint256"}],"stateMutability":"view"},{"type":"function","name":"getGuidesPaginated","inputs":[{"name":"offset","type":"uint256","internalType":"uint256"},{"name":"limit","type":"uint256","internalType":"uint256"}],"outputs":[{"name":"","type":"uint256[]","internalType":"uint256[]"}],"stateMutability":"view"},{"type":"function","name":"getUserProfile","inputs":[{"name":"fid","type":"uint256","internalType":"uint256"}],"outputs":[{"name":"","type":"tuple","internalType":"struct EmpowerToursRegistry.UserProfile","components":[{"name":"fid","type":"uint256","internalType":"uint256"},{"name":"username","type":"string","internalType":"string"},{"name":"displayName","type":"string","internalType":"string"},{"name":"pfpUrl","type":"string","internalType":"string"},{"name":"isGuide","type":"bool","internalType":"bool"},{"name":"bio","type":"string","internalType":"string"},{"name":"location","type":"string","internalType":"string"},{"name":"languages","type":"string","internalType":"string"},{"name":"transport","type":"string","internalType":"string"},{"name":"registeredAt","type":"uint256","internalType":"uint256"},{"name":"lastUpdated","type":"uint256","internalType":"uint256"},{"name":"exists","type":"bool","internalType":"bool"}]}],"stateMutability":"view"},{"type":"function","name":"guideFidIndex","inputs":[{"name":"","type":"uint256","internalType":"uint256"}],"outputs":[{"name":"","type":"uint256","internalType":"uint256"}],"stateMutability":"view"},{"type":"function","name":"guideFids","inputs":[{"name":"","type":"uint256","internalType":"uint256"}],"outputs":[{"name":"","type":"uint256","internalType":"uint256"}],"stateMutability":"view"},{"type":"function","name":"isRegisteredGuide","inputs":[{"name":"","type":"uint256","internalType":"uint256"}],"outputs":[{"name":"","type":"bool","internalType":"bool"}],"stateMutability":"view"},{"type":"function","name":"profiles","inputs":[{"name":"","type":"uint256","internalType":"uint256"}],"outputs":[{"name":"fid","type":"uint256","internalType":"uint256"},{"name":"username","type":"string","internalType":"string"},{"name":"displayName","type":"string","internalType":"string"},{"name":"pfpUrl","type":"string","internalType":"string"},{"name":"isGuide","type":"bool","internalType":"bool"},{"name":"bio","type":"string","internalType":"string"},{"name":"location","type":"string","internalType":"string"},{"name":"languages","type":"string","internalType":"string"},{"name":"transport","type":"string","internalType":"string"},{"name":"registeredAt","type":"uint256","internalType":"uint256"},{"name":"lastUpdated","type":"uint256","internalType":"uint256"},{"name":"exists","type":"bool","internalType":"bool"}],"stateMutability":"view"},{"type":"function","name":"registerUser","inputs":[{"name":"fid","type":"uint256","internalType":"uint256"},{"name":"username","type":"string","internalType":"string"},{"name":"displayName","type":"string","internalType":"string"},{"name":"pfpUrl","type":"string","internalType":"string"},{"name":"isGuide","type":"bool","internalType":"bool"},{"name":"bio","type":"string","internalType":"string"},{"name":"location","type":"string","internalType":"string"},{"name":"languages","type":"string","internalType":"string"},{"name":"transport","type":"string","internalType":"string"}],"outputs":[],"stateMutability":"nonpayable"},{"type":"function","name":"setGuideStatus","inputs":[{"name":"fid","type":"uint256","internalType":"uint256"},{"name":"isGuide","type":"bool","internalType":"bool"}],"outputs":[],"stateMutability":"nonpayable"},{"type":"function","name":"updateProfile","inputs":[{"name":"fid","type":"uint256","internalType":"uint256"},{"name":"bio","type":"string","internalType":"string"},{"name":"location","type":"string","internalType":"string"}],"outputs":[],"stateMutability":"nonpayable"},{"type":"function","name":"userExists","inputs":[{"name":"fid","type":"uint256","internalType":"uint256"}],"outputs":[{"name":"","type":"bool","internalType":"bool"}],"stateMutability":"view"},{"type":"event","name":"GuideStatusChanged","inputs":[{"name":"fid","type":"uint256","indexed":true,"internalType":"uint256"},{"name":"isGuide","type":"bool","indexed":false,"internalType":"bool"},{"name":"timestamp","type":"uint256","indexed":false,"internalType":"uint256"}],"anonymous":false},{"type":"event","name":"ProfileUpdated","inputs":[{"name":"fid","type":"uint256","indexed":true,"internalType":"uint256"},{"name":"bio","type":"string","indexed":false,"internalType":"string"},{"name":"location","type":"string","indexed":false,"internalType":"string"},{"name":"timestamp","type":"uint256","indexed":false,"internalType":"uint256"}],"anonymous":false},{"type":"event","name":"UserRegistered","inputs":[{"name":"fid","type":"uint256","indexed":true,"internalType":"uint256"},{"name":"username","type":"string","indexed":false,"internalType":"string"},{"name":"isGuide","type":"bool","indexed":false,"internalType":"bool"},{"name":"timestamp","type":"uint256","indexed":false,"internalType":"uint256"}],"anonymous":false}],"bytecode":{"object":"0x6080806040523461001657611ef4908161001b8239f35b5f80fdfe60806040526004361015610011575f80fd5b60e05f3560e01c9081631f52b76c146116ec5781632b6e3b74146116ca57816351ddaced1461169b5781635e6027351461161657816361f7c814146115f9578163639cb68e14610a055781636f93dd91146109d457816388c6a956146106ee578163c36fe3d6146105b2578163c49d20c41461036657508063d55798c21461032f578063e08def4714610305578063f15e7489146101c55763f98e5aaf146100b7575f80fd5b346101c1576020806003193601126101c1576004356001600160401b0381116101c1576100e8903690600401611983565b600180549092915f84815b84811061017c57505061010590611bac565b925f915f5b848110610123576040518061011f888261190b565b0390f35b8061012e8892611ac9565b90549060031b1c805f525f85526101538461014e600660405f2001611a10565b611e18565b61015f575b500161010a565b94610175919561016f828a611c0c565b52611d33565b935f610158565b61018581611ac9565b90549060031b1c5f525f86526101a48461014e600660405f2001611a10565b6101b1575b0185906100f3565b916101bb90611d33565b916101a9565b5f80fd5b346101c15760403660031901126101c157600435602435801515908181036101c157825f526020905f825261020360ff600b60405f20015416611b6a565b835f525f82528260ff600460405f200154161515146102cd57916040917f190d02862d9c9d58189bf086d23241f72e9298ecd26eee7b37560f83db6d35cc93855f525f8252835f2061026482600483019060ff801983541691151516179055565b600a429101555f146102bf57845f526002815260ff835f20541615610291575b82519182524290820152a2005b60015460038252835f20556102a585611cc5565b845f5260028152825f20600160ff19825416179055610284565b6102c885611d41565b610284565b60405162461bcd60e51b815260048101839052601060248201526f14dd185d1d5cc81d5b98da185b99d95960821b6044820152606490fd5b346101c15760203660031901126101c1576004355f526003602052602060405f2054604051908152f35b346101c15760203660031901126101c1576004356001548110156101c157610358602091611ac9565b90546040519160031b1c8152f35b346101c157602090816003193601126101c1576004356001600160401b0381116101c157366023820112156101c15780600401356103a381611ab2565b916103b16040519384611962565b818352600591821b8101602401908584013683116101c1576024879201905b8382106105a357505050508151906104006103ea83611ab2565b926103f86040519485611962565b808452611ab2565b601f1901855f5b82811061058d575050505f5b8351811015610530578061042960019286611c0c565b515f525f875260ff600b90808260405f2001541661044a575b505001610413565b6104548388611c0c565b515f525f895260405f20916040519261046c84611946565b8054845261047b868201611a10565b8b85015261048b60028201611a10565b604085015261049c60038201611a10565b606085015282600482015416151560808501526104ba878201611a10565b60a08501526104cb60068201611a10565b60c08501526104dc60078201611a10565b8a8501526104ec60088201611a10565b6101008501526009810154610120850152600a810154610140850152015416151561016082015261051d8286611c0c565b526105288185611c0c565b508780610442565b6040805187815284518189018190525f92600582901b8301810191878b01918b9085015b8287106105615785850386f35b90919293828061057d600193603f198a8203018652885161183a565b9601920196019592919092610554565b610595611b12565b828287010152018690610407565b813581529082019082016103d0565b346101c15760203660031901126101c1576004355f525f60205260405f208054600182016105df90611a10565b916105ec60028201611a10565b6105f860038301611a10565b91600481015460ff166005820161060e90611a10565b61061a60068401611a10565b61062660078501611a10565b9161063360088601611a10565b93600986015497600a87015496600b015460ff16976040519b8c809c6101809182918152602001528c01610666916117fc565b8b810360408d0152610677916117fc565b8a810360608c0152610688916117fc565b90151560808a015288810360a08a01526106a1916117fc565b87810360c08901526106b2916117fc565b86810360e08801526106c3916117fc565b8581036101008701526106d5916117fc565b9261012085015261014084015215156101608301520390f35b346101c15760603660031901126101c1576001600160401b036004356024358281116101c157610722903690600401611983565b6044358381116101c15761073a903690600401611983565b825f526020935f855261075660ff600b60405f20015416611b6a565b835f525f8552600560405f2001908351918183116109145761077881546119d8565b92601f93848111610994575b508088858211600114610933575f91610928575b508160011b915f199060031b1c19161790555b845f525f8652600660405f2001918351918211610914576107cc83546119d8565b8181116108d4575b50869082116001146108505791817fa80c5c059c330fd067e694977e49c8757f3bda5d395bc2f06e84f3730a1fb5df9697925f948591610845575b508160011b9185199060031b1c19161790555b8582525242600a60405f200155610840604051928392429184611d05565b0390a2005b90508501518961080f565b601f19821690835f52875f20915f5b8181106108bd5750925f9492600192827fa80c5c059c330fd067e694977e49c8757f3bda5d395bc2f06e84f3730a1fb5df9a9b96106108a5575b5050811b019055610822565b870151861960f88460031b161c191690558980610899565b91928960018192868a01518155019401920161085f565b835f52875f208280850160051c8201928a861061090b575b0160051c01905b81811061090057506107d4565b5f81556001016108f3565b925081926108ec565b634e487b7160e01b5f52604160045260245ffd5b905086015189610798565b5f8481528a81209250601f198416905b8b82821061097e5750509083600194939210610966575b5050811b0190556107ab565b8801515f1960f88460031b161c19169055898061095a565b600184958293958d015181550194019201610943565b825f52885f208580840160051c8201928b85106109cb575b0160051c01905b8181106109c05750610784565b5f81556001016109b3565b925081926109ac565b346101c15760203660031901126101c1576004355f525f602052602060ff600b60405f200154166040519015158152f35b346101c1576101203660031901126101c1576024356001600160401b0381116101c157610a36903690600401611983565b6044356001600160401b0381116101c157610a55903690600401611983565b6064356001600160401b0381116101c157610a74903690600401611983565b906084351515608435036101c15760a4356001600160401b0381116101c157610aa1903690600401611983565b9060c4356001600160401b0381116101c157610ac1903690600401611983565b9260e4356001600160401b0381116101c157610ae1903690600401611983565b91610104356001600160401b0381116101c157610b02903690600401611983565b91600435156115c65786511561158d576004355f525f60205260405f209260ff600b85015416159460ff60048601541694865f14611583575042925b60405194610b4b86611946565b60043586528a602087015260408601526060850152608435151560808501528660a08501528760c085015260e08401526101008301526101208201524261014082015260016101608201526004355f525f60205260405f20908051825560208101518051906001600160401b038211610914578190610bcd60018601546119d8565b601f8111611533575b50602090601f83116001146114c5575f926114ba575b50508160011b915f199060031b1c19161760018301555b60408101518051906001600160401b038211610914578190610c2860028601546119d8565b601f811161146a575b50602090601f83116001146113fc575f926113f1575b50508160011b915f199060031b1c19161760028301555b60608101518051906001600160401b038211610914578190610c8360038601546119d8565b601f81116113a1575b50602090601f8311600114611333575f92611328575b50508160011b915f199060031b1c19161760038301555b610cd860808201511515600484019060ff801983541691151516179055565b60a08101518051906001600160401b038211610914578190610cfd60058601546119d8565b601f81116112d8575b50602090601f831160011461126a575f9261125f575b50508160011b915f199060031b1c19161760058301555b60c08101518051906001600160401b038211610914578190610d5860068601546119d8565b601f811161120f575b50602090601f83116001146111a1575f92611196575b50508160011b915f199060031b1c19161760068301555b60e08101518051906001600160401b038211610914578190610db360078601546119d8565b601f8111611146575b50602090601f83116001146110d8575f926110cd575b50508160011b915f199060031b1c19161760078301555b6101008101518051906001600160401b03821161091457610e0d60088501546119d8565b601f8111611089575b50602090601f8311600114611013579282600b9361016093610e7e97965f92611008575b50508160011b915f199060031b1c19161760088501555b6101208101516009850155610140810151600a8501550151151591019060ff801983541691151516179055565b60843580611000575b15610fa357506004355f52600260205260ff60405f20541615610f6d575b604051600181524260208201527f190d02862d9c9d58189bf086d23241f72e9298ecd26eee7b37560f83db6d35cc604060043592a25b15610f335750507f9ae77a7d1b840336a27c797e51824a2f5e6d90a314ffbc584c0549c812689336610f18604051926060845260608401906117fc565b916084351515602082015242604082015280600435930390a2005b7fa80c5c059c330fd067e694977e49c8757f3bda5d395bc2f06e84f3730a1fb5df9192506108409060405191829160043595429184611d05565b600154600360205260405f2055610f85600435611cc5565b6004355f52600260205260405f20600160ff19825416179055610ea5565b608435159081610ff8575b5015610edb57610fbf600435611d41565b6040515f81524260208201527f190d02862d9c9d58189bf086d23241f72e9298ecd26eee7b37560f83db6d35cc604060043592a2610edb565b905085610fae565b508015610e87565b015190508c80610e3a565b90600885015f5260205f20915f5b601f198516811061107157508361016093610e7e979693600193600b97601f19811610611059575b505050811b016008850155610e51565b01515f1960f88460031b161c191690558c8080611049565b91926020600181928685015181550194019201611021565b600885015f5260205f20601f840160051c8101602085106110c6575b601f830160051c820181106110bb575050610e16565b5f81556001016110a5565b50806110a5565b015190508980610dd2565b9250600785015f5260205f20905f935b601f198416851061112b576001945083601f19811610611113575b505050811b016007830155610de9565b01515f1960f88460031b161c19169055898080611103565b818101518355602094850194600190930192909101906110e8565b909150600785015f5260205f20601f840160051c81016020851061118f575b90849392915b601f830160051c82018110611181575050610dbc565b5f815585945060010161116b565b5080611165565b015190508980610d77565b9250600685015f5260205f20905f935b601f19841685106111f4576001945083601f198116106111dc575b505050811b016006830155610d8e565b01515f1960f88460031b161c191690558980806111cc565b818101518355602094850194600190930192909101906111b1565b909150600685015f5260205f20601f840160051c810160208510611258575b90849392915b601f830160051c8201811061124a575050610d61565b5f8155859450600101611234565b508061122e565b015190508980610d1c565b9250600585015f5260205f20905f935b601f19841685106112bd576001945083601f198116106112a5575b505050811b016005830155610d33565b01515f1960f88460031b161c19169055898080611295565b8181015183556020948501946001909301929091019061127a565b909150600585015f5260205f20601f840160051c810160208510611321575b90849392915b601f830160051c82018110611313575050610d06565b5f81558594506001016112fd565b50806112f7565b015190508980610ca2565b9250600385015f5260205f20905f935b601f1984168510611386576001945083601f1981161061136e575b505050811b016003830155610cb9565b01515f1960f88460031b161c1916905589808061135e565b81810151835560209485019460019093019290910190611343565b909150600385015f5260205f20601f840160051c8101602085106113ea575b90849392915b601f830160051c820181106113dc575050610c8c565b5f81558594506001016113c6565b50806113c0565b015190508980610c47565b9250600285015f5260205f20905f935b601f198416851061144f576001945083601f19811610611437575b505050811b016002830155610c5e565b01515f1960f88460031b161c19169055898080611427565b8181015183556020948501946001909301929091019061140c565b909150600285015f5260205f20601f840160051c8101602085106114b3575b90849392915b601f830160051c820181106114a5575050610c31565b5f815585945060010161148f565b5080611489565b015190508980610bec565b9250600185015f5260205f20905f935b601f1984168510611518576001945083601f19811610611500575b505050811b016001830155610c03565b01515f1960f88460031b161c191690558980806114f0565b818101518355602094850194600190930192909101906114d5565b909150600185015f5260205f20601f840160051c81016020851061157c575b90849392915b601f830160051c8201811061156e575050610bd6565b5f8155859450600101611558565b5080611552565b6009015492610b3e565b60405162461bcd60e51b8152602060048201526011602482015270155cd95c9b985b59481c995c5d5a5c9959607a1b6044820152606490fd5b60405162461bcd60e51b815260206004820152600b60248201526a125b9d985b1a590811925160aa1b6044820152606490fd5b346101c1575f3660031901126101c1576020600154604051908152f35b346101c1575f3660031901126101c157604051806001916001549283825260208092019360015f527fb10e2d527612073b26eecdfd717e6a320cf44b4afac2b0732d9fcbe2b7fa0cf6925f905b8282106116865761011f8661167a818a0382611962565b6040519182918261190b565b84548752958601959383019390830190611663565b346101c15760203660031901126101c1576004355f526002602052602060ff60405f2054166040519015158152f35b346101c15760403660031901126101c15761011f61167a602435600435611c20565b346101c1576020806003193601126101c157600435611709611b12565b50805f525f825261172360ff600b60405f20015416611b6a565b5f525f815260405f209060ff600b6040519361173e85611946565b8054855261174e60018201611a10565b8486015261175e60028201611a10565b604086015261176f60038201611a10565b6060860152826004820154161515608086015261178e60058201611a10565b60a086015261179f60068201611a10565b60c08601526117b060078201611a10565b60e08601526117c160088201611a10565b6101008601526009810154610120860152600a810154610140860152015416151561016083015261011f60405192828493845283019061183a565b91908251928382525f5b848110611826575050825f602080949584010152601f8019910116010190565b602081830181015184830182015201611806565b906118e56118d16118bf6118ad61188f61187d61186b6101808951895260208a0151908060208b01528901906117fc565b604089015188820360408a01526117fc565b606088015187820360608901526117fc565b60808701511515608087015260a087015186820360a08801526117fc565b60c086015185820360c08701526117fc565b60e085015184820360e08601526117fc565b6101008085015190848303908501526117fc565b916101208082015190830152610140808201519083015261016080910151151591015290565b60209060206040818301928281528551809452019301915f5b828110611932575050505090565b835185529381019392810192600101611924565b61018081019081106001600160401b0382111761091457604052565b90601f801991011681019081106001600160401b0382111761091457604052565b81601f820112156101c1578035906001600160401b03821161091457604051926119b7601f8401601f191660200185611962565b828452602083830101116101c157815f926020809301838601378301015290565b90600182811c92168015611a06575b60208310146119f257565b634e487b7160e01b5f52602260045260245ffd5b91607f16916119e7565b9060405191825f8254611a22816119d8565b908184526020946001916001811690815f14611a905750600114611a52575b505050611a5092500383611962565b565b5f90815285812095935091905b818310611a78575050611a5093508201015f8080611a41565b85548884018501529485019487945091830191611a5f565b92505050611a5094925060ff191682840152151560051b8201015f8080611a41565b6001600160401b0381116109145760051b60200190565b600154811015611afe5760015f527fb10e2d527612073b26eecdfd717e6a320cf44b4afac2b0732d9fcbe2b7fa0cf601905f90565b634e487b7160e01b5f52603260045260245ffd5b60405190611b1f82611946565b5f61016083828152606080602083015280604083015280808301528360808301528060a08301528060c08301528060e083015261010082015282610120820152826101408201520152565b15611b7157565b60405162461bcd60e51b8152602060048201526013602482015272155cd95c881b9bdd081c9959da5cdd195c9959606a1b6044820152606490fd5b90611bb682611ab2565b611bc36040519182611962565b8281528092611bd4601f1991611ab2565b0190602036910137565b91908201809211611beb57565b634e487b7160e01b5f52601160045260245ffd5b91908203918211611beb57565b8051821015611afe5760209160051b010190565b9060019060015480841015611c9b57808491611c3c8484611bde565b11611c8a575b5050611c4d81611bac565b925f5b828110611c5e575050505090565b80611c72611c6d869385611bde565b611ac9565b90549060031b1c611c838288611c0c565b5201611c50565b611c949250611bff565b825f611c42565b50505050604051602081018181106001600160401b03821117610914576040525f81525f36813790565b600154906801000000000000000082101561091457611ced826001611a509401600155611ac9565b90919082549060031b91821b915f19901b1916179055565b939291611d2e90611d206040936060885260608801906117fc565b9086820360208801526117fc565b930152565b5f198114611beb5760010190565b805f52600260205260ff60405f20541615611e0457600360205260405f20546001545f199190828101908111611beb57808203611dd4575b50506001548015611dc057810190611d9082611ac9565b909182549160031b1b191690556001555f5260036020525f6040812055600260205260405f2060ff198154169055565b634e487b7160e01b5f52603160045260245ffd5b611ddd90611ac9565b90549060031b1c611df181611ced84611ac9565b5f52600360205260405f20555f80611d79565b50565b908151811015611afe570160200190565b90805182518111611eb05715611eb7575f905b611e388351825190611bff565b8211611eb0576001925f5b8251811015611ea6576001600160f81b031980611e69611e638488611bde565b85611e07565b511690611e768386611e07565b511603611e8557600101611e43565b509250905f5b611e9e57611e9890611d33565b90611e2b565b505050600190565b5092919091611e8b565b5050505f90565b505060019056fea26469706673582212206adc7536c7e7cbffe71b1b22ae2bc29f370d9931202128abba0bfa14db9568ba64736f6c63430008160033","linkReferences":{}},"methodIdentifiers":{"getAllGuides()":"5e602735","getBatchProfiles(uint256[])":"c49d20c4","getGuidesByLocation(string)":"f98e5aaf","getGuidesCount()":"61f7c814","getGuidesPaginated(uint256,uint256)":"2b6e3b74","getUserProfile(uint256)":"1f52b76c","guideFidIndex(uint256)":"e08def47","guideFids(uint256)":"d55798c2","isRegisteredGuide(uint256)":"51ddaced","profiles(uint256)":"c36fe3d6","registerUser(uint256,string,string,string,bool,string,string,string,string)":"639cb68e","setGuideStatus(uint256,bool)":"f15e7489","updateProfile(uint256,string,string)":"88c6a956","userExists(uint256)":"6f93dd91"},"id":0}