{"abi":[{"type":"constructor","inputs":[],"stateMutability":"nonpayable"},{"type":"function","name":"approve","inputs":[{"name":"to","type":"address","internalType":"address"},{"name":"tokenId","type":"uint256","internalType":"uint256"}],"outputs":[],"stateMutability":"nonpayable"},{"type":"function","name":"balanceOf","inputs":[{"name":"owner","type":"address","internalType":"address"}],"outputs":[{"name":"","type":"uint256","internalType":"uint256"}],"stateMutability":"view"},{"type":"function","name":"getApproved","inputs":[{"name":"tokenId","type":"uint256","internalType":"uint256"}],"outputs":[{"name":"","type":"address","internalType":"address"}],"stateMutability":"view"},{"type":"function","name":"getItineraryMetadata","inputs":[{"name":"tokenId","type":"uint256","internalType":"uint256"}],"outputs":[{"name":"","type":"tuple","internalType":"struct ItineraryNFT.ItineraryMetadata","components":[{"name":"destination","type":"string","internalType":"string"},{"name":"country","type":"string","internalType":"string"},{"name":"climbingGrade","type":"string","internalType":"string"}]}],"stateMutability":"view"},{"type":"function","name":"isApprovedForAll","inputs":[{"name":"owner","type":"address","internalType":"address"},{"name":"operator","type":"address","internalType":"address"}],"outputs":[{"name":"","type":"bool","internalType":"bool"}],"stateMutability":"view"},{"type":"function","name":"itineraryMetadata","inputs":[{"name":"","type":"uint256","internalType":"uint256"}],"outputs":[{"name":"destination","type":"string","internalType":"string"},{"name":"country","type":"string","internalType":"string"},{"name":"climbingGrade","type":"string","internalType":"string"}],"stateMutability":"view"},{"type":"function","name":"mintItinerary","inputs":[{"name":"to","type":"address","internalType":"address"},{"name":"metadata","type":"tuple","internalType":"struct ItineraryNFT.ItineraryMetadata","components":[{"name":"destination","type":"string","internalType":"string"},{"name":"country","type":"string","internalType":"string"},{"name":"climbingGrade","type":"string","internalType":"string"}]},{"name":"tokenUri","type":"string","internalType":"string"}],"outputs":[],"stateMutability":"nonpayable"},{"type":"function","name":"name","inputs":[],"outputs":[{"name":"","type":"string","internalType":"string"}],"stateMutability":"view"},{"type":"function","name":"owner","inputs":[],"outputs":[{"name":"","type":"address","internalType":"address"}],"stateMutability":"view"},{"type":"function","name":"ownerOf","inputs":[{"name":"tokenId","type":"uint256","internalType":"uint256"}],"outputs":[{"name":"","type":"address","internalType":"address"}],"stateMutability":"view"},{"type":"function","name":"renounceOwnership","inputs":[],"outputs":[],"stateMutability":"nonpayable"},{"type":"function","name":"safeTransferFrom","inputs":[{"name":"from","type":"address","internalType":"address"},{"name":"to","type":"address","internalType":"address"},{"name":"tokenId","type":"uint256","internalType":"uint256"}],"outputs":[],"stateMutability":"nonpayable"},{"type":"function","name":"safeTransferFrom","inputs":[{"name":"from","type":"address","internalType":"address"},{"name":"to","type":"address","internalType":"address"},{"name":"tokenId","type":"uint256","internalType":"uint256"},{"name":"data","type":"bytes","internalType":"bytes"}],"outputs":[],"stateMutability":"nonpayable"},{"type":"function","name":"setApprovalForAll","inputs":[{"name":"operator","type":"address","internalType":"address"},{"name":"approved","type":"bool","internalType":"bool"}],"outputs":[],"stateMutability":"nonpayable"},{"type":"function","name":"supportsInterface","inputs":[{"name":"interfaceId","type":"bytes4","internalType":"bytes4"}],"outputs":[{"name":"","type":"bool","internalType":"bool"}],"stateMutability":"view"},{"type":"function","name":"symbol","inputs":[],"outputs":[{"name":"","type":"string","internalType":"string"}],"stateMutability":"view"},{"type":"function","name":"tokenURI","inputs":[{"name":"tokenId","type":"uint256","internalType":"uint256"}],"outputs":[{"name":"","type":"string","internalType":"string"}],"stateMutability":"view"},{"type":"function","name":"transferFrom","inputs":[{"name":"from","type":"address","internalType":"address"},{"name":"to","type":"address","internalType":"address"},{"name":"tokenId","type":"uint256","internalType":"uint256"}],"outputs":[],"stateMutability":"nonpayable"},{"type":"function","name":"transferOwnership","inputs":[{"name":"newOwner","type":"address","internalType":"address"}],"outputs":[],"stateMutability":"nonpayable"},{"type":"event","name":"Approval","inputs":[{"name":"owner","type":"address","indexed":true,"internalType":"address"},{"name":"approved","type":"address","indexed":true,"internalType":"address"},{"name":"tokenId","type":"uint256","indexed":true,"internalType":"uint256"}],"anonymous":false},{"type":"event","name":"ApprovalForAll","inputs":[{"name":"owner","type":"address","indexed":true,"internalType":"address"},{"name":"operator","type":"address","indexed":true,"internalType":"address"},{"name":"approved","type":"bool","indexed":false,"internalType":"bool"}],"anonymous":false},{"type":"event","name":"BatchMetadataUpdate","inputs":[{"name":"_fromTokenId","type":"uint256","indexed":false,"internalType":"uint256"},{"name":"_toTokenId","type":"uint256","indexed":false,"internalType":"uint256"}],"anonymous":false},{"type":"event","name":"MetadataUpdate","inputs":[{"name":"_tokenId","type":"uint256","indexed":false,"internalType":"uint256"}],"anonymous":false},{"type":"event","name":"OwnershipTransferred","inputs":[{"name":"previousOwner","type":"address","indexed":true,"internalType":"address"},{"name":"newOwner","type":"address","indexed":true,"internalType":"address"}],"anonymous":false},{"type":"event","name":"Transfer","inputs":[{"name":"from","type":"address","indexed":true,"internalType":"address"},{"name":"to","type":"address","indexed":true,"internalType":"address"},{"name":"tokenId","type":"uint256","indexed":true,"internalType":"uint256"}],"anonymous":false}],"bytecode":{"object":"0x608060405234801561000f575f5ffd5b506040518060400160405280600c81526020017f4974696e65726172794e465400000000000000000000000000000000000000008152506040518060400160405280600481526020017f4954494e00000000000000000000000000000000000000000000000000000000815250815f908161008a91906103db565b50806001908161009a91906103db565b5050506100b96100ae6100d460201b60201c565b6100db60201b60201c565b6100c8336100db60201b60201c565b5f6008819055506104aa565b5f33905090565b5f60075f9054906101000a900473ffffffffffffffffffffffffffffffffffffffff1690508160075f6101000a81548173ffffffffffffffffffffffffffffffffffffffff021916908373ffffffffffffffffffffffffffffffffffffffff1602179055508173ffffffffffffffffffffffffffffffffffffffff168173ffffffffffffffffffffffffffffffffffffffff167f8be0079c531659141344cd1fd0a4f28419497f9722a3daafe3b4186f6b6457e060405160405180910390a35050565b5f81519050919050565b7f4e487b71000000000000000000000000000000000000000000000000000000005f52604160045260245ffd5b7f4e487b71000000000000000000000000000000000000000000000000000000005f52602260045260245ffd5b5f600282049050600182168061021957607f821691505b60208210810361022c5761022b6101d5565b5b50919050565b5f819050815f5260205f209050919050565b5f6020601f8301049050919050565b5f82821b905092915050565b5f6008830261028e7fffffffffffffffffffffffffffffffffffffffffffffffffffffffffffffffff82610253565b6102988683610253565b95508019841693508086168417925050509392505050565b5f819050919050565b5f819050919050565b5f6102dc6102d76102d2846102b0565b6102b9565b6102b0565b9050919050565b5f819050919050565b6102f5836102c2565b610309610301826102e3565b84845461025f565b825550505050565b5f5f905090565b610320610311565b61032b8184846102ec565b505050565b5b8181101561034e576103435f82610318565b600181019050610331565b5050565b601f8211156103935761036481610232565b61036d84610244565b8101602085101561037c578190505b61039061038885610244565b830182610330565b50505b505050565b5f82821c905092915050565b5f6103b35f1984600802610398565b1980831691505092915050565b5f6103cb83836103a4565b9150826002028217905092915050565b6103e48261019e565b67ffffffffffffffff8111156103fd576103fc6101a8565b5b6104078254610202565b610412828285610352565b5f60209050601f831160018114610443575f8415610431578287015190505b61043b85826103c0565b8655506104a2565b601f19841661045186610232565b5f5b8281101561047857848901518255600182019150602085019450602081019050610453565b868310156104955784890151610491601f8916826103a4565b8355505b6001600288020188555050505b505050505050565b613518806104b75f395ff3fe608060405234801561000f575f5ffd5b506004361061011f575f3560e01c80636352211e116100ab578063a22cb4651161006f578063a22cb46514610319578063b88d4fde14610335578063c87b56dd14610351578063e985e9c514610381578063f2fde38b146103b15761011f565b80636352211e1461027357806370a08231146102a3578063715018a6146102d35780638da5cb5b146102dd57806395d89b41146102fb5761011f565b806323b872dd116100f257806323b872dd146101bd5780632ccf6e8f146101d957806332c2b966146101f5578063344784f31461022557806342842e0e146102575761011f565b806301ffc9a71461012357806306fdde0314610153578063081812fc14610171578063095ea7b3146101a1575b5f5ffd5b61013d600480360381019061013891906120de565b6103cd565b60405161014a9190612123565b60405180910390f35b61015b61042d565b60405161016891906121ac565b60405180910390f35b61018b600480360381019061018691906121ff565b6104bc565b6040516101989190612269565b60405180910390f35b6101bb60048036038101906101b691906122ac565b6104fe565b005b6101d760048036038101906101d291906122ea565b610614565b005b6101f360048036038101906101ee9190612523565b610674565b005b61020f600480360381019061020a91906121ff565b610708565b60405161021c919061264e565b60405180910390f35b61023f600480360381019061023a91906121ff565b61092a565b60405161024e9392919061266e565b60405180910390f35b610271600480360381019061026c91906122ea565b610ae2565b005b61028d600480360381019061028891906121ff565b610b01565b60405161029a9190612269565b60405180910390f35b6102bd60048036038101906102b891906126b8565b610b85565b6040516102ca91906126f2565b60405180910390f35b6102db610c39565b005b6102e5610c4c565b6040516102f29190612269565b60405180910390f35b610303610c74565b60405161031091906121ac565b60405180910390f35b610333600480360381019061032e9190612735565b610d04565b005b61034f600480360381019061034a9190612811565b610d1a565b005b61036b600480360381019061036691906121ff565b610d7c565b60405161037891906121ac565b60405180910390f35b61039b60048036038101906103969190612891565b610e86565b6040516103a89190612123565b60405180910390f35b6103cb60048036038101906103c691906126b8565b610f14565b005b5f634906490660e01b7bffffffffffffffffffffffffffffffffffffffffffffffffffffffff1916827bffffffffffffffffffffffffffffffffffffffffffffffffffffffff19161480610426575061042582610f96565b5b9050919050565b60605f805461043b906128fc565b80601f0160208091040260200160405190810160405280929190818152602001828054610467906128fc565b80156104b25780601f10610489576101008083540402835291602001916104b2565b820191905f5260205f20905b81548152906001019060200180831161049557829003601f168201915b5050505050905090565b5f6104c682611077565b60045f8381526020019081526020015f205f9054906101000a900473ffffffffffffffffffffffffffffffffffffffff169050919050565b5f61050882610b01565b90508073ffffffffffffffffffffffffffffffffffffffff168373ffffffffffffffffffffffffffffffffffffffff1603610578576040517f08c379a000000000000000000000000000000000000000000000000000000000815260040161056f9061299c565b60405180910390fd5b8073ffffffffffffffffffffffffffffffffffffffff166105976110c2565b73ffffffffffffffffffffffffffffffffffffffff1614806105c657506105c5816105c06110c2565b610e86565b5b610605576040517f08c379a00000000000000000000000000000000000000000000000000000000081526004016105fc90612a2a565b60405180910390fd5b61060f83836110c9565b505050565b61062561061f6110c2565b8261117f565b610664576040517f08c379a000000000000000000000000000000000000000000000000000000000815260040161065b90612ab8565b60405180910390fd5b61066f838383611213565b505050565b61067c6114ff565b60085f81548092919061068e90612b03565b91905055505f60085490506106a3848261157d565b6106ad818361159a565b8260095f8381526020019081526020015f205f820151815f0190816106d29190612cea565b5060208201518160010190816106e89190612cea565b5060408201518160020190816106fe9190612cea565b5090505050505050565b610710612057565b6107198261163c565b610758576040517f08c379a000000000000000000000000000000000000000000000000000000000815260040161074f90612e03565b60405180910390fd5b60095f8381526020019081526020015f206040518060600160405290815f82018054610783906128fc565b80601f01602080910402602001604051908101604052809291908181526020018280546107af906128fc565b80156107fa5780601f106107d1576101008083540402835291602001916107fa565b820191905f5260205f20905b8154815290600101906020018083116107dd57829003601f168201915b50505050508152602001600182018054610813906128fc565b80601f016020809104026020016040519081016040528092919081815260200182805461083f906128fc565b801561088a5780601f106108615761010080835404028352916020019161088a565b820191905f5260205f20905b81548152906001019060200180831161086d57829003601f168201915b505050505081526020016002820180546108a3906128fc565b80601f01602080910402602001604051908101604052809291908181526020018280546108cf906128fc565b801561091a5780601f106108f15761010080835404028352916020019161091a565b820191905f5260205f20905b8154815290600101906020018083116108fd57829003601f168201915b5050505050815250509050919050565b6009602052805f5260405f205f91509050805f018054610949906128fc565b80601f0160208091040260200160405190810160405280929190818152602001828054610975906128fc565b80156109c05780601f10610997576101008083540402835291602001916109c0565b820191905f5260205f20905b8154815290600101906020018083116109a357829003601f168201915b5050505050908060010180546109d5906128fc565b80601f0160208091040260200160405190810160405280929190818152602001828054610a01906128fc565b8015610a4c5780601f10610a2357610100808354040283529160200191610a4c565b820191905f5260205f20905b815481529060010190602001808311610a2f57829003601f168201915b505050505090806002018054610a61906128fc565b80601f0160208091040260200160405190810160405280929190818152602001828054610a8d906128fc565b8015610ad85780601f10610aaf57610100808354040283529160200191610ad8565b820191905f5260205f20905b815481529060010190602001808311610abb57829003601f168201915b5050505050905083565b610afc83838360405180602001604052805f815250610d1a565b505050565b5f5f610b0c8361167c565b90505f73ffffffffffffffffffffffffffffffffffffffff168173ffffffffffffffffffffffffffffffffffffffff1603610b7c576040517f08c379a0000000000000000000000000000000000000000000000000000000008152600401610b7390612e6b565b60405180910390fd5b80915050919050565b5f5f73ffffffffffffffffffffffffffffffffffffffff168273ffffffffffffffffffffffffffffffffffffffff1603610bf4576040517f08c379a0000000000000000000000000000000000000000000000000000000008152600401610beb90612ef9565b60405180910390fd5b60035f8373ffffffffffffffffffffffffffffffffffffffff1673ffffffffffffffffffffffffffffffffffffffff1681526020019081526020015f20549050919050565b610c416114ff565b610c4a5f6116b5565b565b5f60075f9054906101000a900473ffffffffffffffffffffffffffffffffffffffff16905090565b606060018054610c83906128fc565b80601f0160208091040260200160405190810160405280929190818152602001828054610caf906128fc565b8015610cfa5780601f10610cd157610100808354040283529160200191610cfa565b820191905f5260205f20905b815481529060010190602001808311610cdd57829003601f168201915b5050505050905090565b610d16610d0f6110c2565b8383611778565b5050565b610d2b610d256110c2565b8361117f565b610d6a576040517f08c379a0000000000000000000000000000000000000000000000000000000008152600401610d6190612ab8565b60405180910390fd5b610d76848484846118df565b50505050565b6060610d8782611077565b5f60065f8481526020019081526020015f208054610da4906128fc565b80601f0160208091040260200160405190810160405280929190818152602001828054610dd0906128fc565b8015610e1b5780601f10610df257610100808354040283529160200191610e1b565b820191905f5260205f20905b815481529060010190602001808311610dfe57829003601f168201915b505050505090505f610e2b61193b565b90505f815103610e3f578192505050610e81565b5f82511115610e73578082604051602001610e5b929190612f51565b60405160208183030381529060405292505050610e81565b610e7c84611951565b925050505b919050565b5f60055f8473ffffffffffffffffffffffffffffffffffffffff1673ffffffffffffffffffffffffffffffffffffffff1681526020019081526020015f205f8373ffffffffffffffffffffffffffffffffffffffff1673ffffffffffffffffffffffffffffffffffffffff1681526020019081526020015f205f9054906101000a900460ff16905092915050565b610f1c6114ff565b5f73ffffffffffffffffffffffffffffffffffffffff168173ffffffffffffffffffffffffffffffffffffffff1603610f8a576040517f08c379a0000000000000000000000000000000000000000000000000000000008152600401610f8190612fe4565b60405180910390fd5b610f93816116b5565b50565b5f7f80ac58cd000000000000000000000000000000000000000000000000000000007bffffffffffffffffffffffffffffffffffffffffffffffffffffffff1916827bffffffffffffffffffffffffffffffffffffffffffffffffffffffff1916148061106057507f5b5e139f000000000000000000000000000000000000000000000000000000007bffffffffffffffffffffffffffffffffffffffffffffffffffffffff1916827bffffffffffffffffffffffffffffffffffffffffffffffffffffffff1916145b80611070575061106f826119b6565b5b9050919050565b6110808161163c565b6110bf576040517f08c379a00000000000000000000000000000000000000000000000000000000081526004016110b690612e6b565b60405180910390fd5b50565b5f33905090565b8160045f8381526020019081526020015f205f6101000a81548173ffffffffffffffffffffffffffffffffffffffff021916908373ffffffffffffffffffffffffffffffffffffffff160217905550808273ffffffffffffffffffffffffffffffffffffffff1661113983610b01565b73ffffffffffffffffffffffffffffffffffffffff167f8c5be1e5ebec7d5bd14f71427d1e84f3dd0314c0f7b2291e5b200ac8c7c3b92560405160405180910390a45050565b5f5f61118a83610b01565b90508073ffffffffffffffffffffffffffffffffffffffff168473ffffffffffffffffffffffffffffffffffffffff1614806111cc57506111cb8185610e86565b5b8061120a57508373ffffffffffffffffffffffffffffffffffffffff166111f2846104bc565b73ffffffffffffffffffffffffffffffffffffffff16145b91505092915050565b8273ffffffffffffffffffffffffffffffffffffffff1661123382610b01565b73ffffffffffffffffffffffffffffffffffffffff1614611289576040517f08c379a000000000000000000000000000000000000000000000000000000000815260040161128090613072565b60405180910390fd5b5f73ffffffffffffffffffffffffffffffffffffffff168273ffffffffffffffffffffffffffffffffffffffff16036112f7576040517f08c379a00000000000000000000000000000000000000000000000000000000081526004016112ee90613100565b60405180910390fd5b6113048383836001611a1f565b8273ffffffffffffffffffffffffffffffffffffffff1661132482610b01565b73ffffffffffffffffffffffffffffffffffffffff161461137a576040517f08c379a000000000000000000000000000000000000000000000000000000000815260040161137190613072565b60405180910390fd5b60045f8281526020019081526020015f205f6101000a81549073ffffffffffffffffffffffffffffffffffffffff0219169055600160035f8573ffffffffffffffffffffffffffffffffffffffff1673ffffffffffffffffffffffffffffffffffffffff1681526020019081526020015f205f8282540392505081905550600160035f8473ffffffffffffffffffffffffffffffffffffffff1673ffffffffffffffffffffffffffffffffffffffff1681526020019081526020015f205f82825401925050819055508160025f8381526020019081526020015f205f6101000a81548173ffffffffffffffffffffffffffffffffffffffff021916908373ffffffffffffffffffffffffffffffffffffffff160217905550808273ffffffffffffffffffffffffffffffffffffffff168473ffffffffffffffffffffffffffffffffffffffff167fddf252ad1be2c89b69c2b068fc378daa952ba7f163c4a11628f55a4df523b3ef60405160405180910390a46114fa8383836001611a25565b505050565b6115076110c2565b73ffffffffffffffffffffffffffffffffffffffff16611525610c4c565b73ffffffffffffffffffffffffffffffffffffffff161461157b576040517f08c379a000000000000000000000000000000000000000000000000000000000815260040161157290613168565b60405180910390fd5b565b611596828260405180602001604052805f815250611a2b565b5050565b6115a38261163c565b6115e2576040517f08c379a00000000000000000000000000000000000000000000000000000000081526004016115d9906131f6565b60405180910390fd5b8060065f8481526020019081526020015f2090816116009190612cea565b507ff8e1a15aba9398e019f0b49df1a4fde98ee17ae345cb5f6b5e2c27f5033e8ce78260405161163091906126f2565b60405180910390a15050565b5f5f73ffffffffffffffffffffffffffffffffffffffff1661165d8361167c565b73ffffffffffffffffffffffffffffffffffffffff1614159050919050565b5f60025f8381526020019081526020015f205f9054906101000a900473ffffffffffffffffffffffffffffffffffffffff169050919050565b5f60075f9054906101000a900473ffffffffffffffffffffffffffffffffffffffff1690508160075f6101000a81548173ffffffffffffffffffffffffffffffffffffffff021916908373ffffffffffffffffffffffffffffffffffffffff1602179055508173ffffffffffffffffffffffffffffffffffffffff168173ffffffffffffffffffffffffffffffffffffffff167f8be0079c531659141344cd1fd0a4f28419497f9722a3daafe3b4186f6b6457e060405160405180910390a35050565b8173ffffffffffffffffffffffffffffffffffffffff168373ffffffffffffffffffffffffffffffffffffffff16036117e6576040517f08c379a00000000000000000000000000000000000000000000000000000000081526004016117dd9061325e565b60405180910390fd5b8060055f8573ffffffffffffffffffffffffffffffffffffffff1673ffffffffffffffffffffffffffffffffffffffff1681526020019081526020015f205f8473ffffffffffffffffffffffffffffffffffffffff1673ffffffffffffffffffffffffffffffffffffffff1681526020019081526020015f205f6101000a81548160ff0219169083151502179055508173ffffffffffffffffffffffffffffffffffffffff168373ffffffffffffffffffffffffffffffffffffffff167f17307eab39ab6107e8899845ad3d59bd9653f200f220920489ca2b5937696c31836040516118d29190612123565b60405180910390a3505050565b6118ea848484611213565b6118f684848484611a85565b611935576040517f08c379a000000000000000000000000000000000000000000000000000000000815260040161192c906132ec565b60405180910390fd5b50505050565b606060405180602001604052805f815250905090565b606061195c82611077565b5f61196561193b565b90505f8151116119835760405180602001604052805f8152506119ae565b8061198d84611c07565b60405160200161199e929190612f51565b6040516020818303038152906040525b915050919050565b5f7f01ffc9a7000000000000000000000000000000000000000000000000000000007bffffffffffffffffffffffffffffffffffffffffffffffffffffffff1916827bffffffffffffffffffffffffffffffffffffffffffffffffffffffff1916149050919050565b50505050565b50505050565b611a358383611cd1565b611a415f848484611a85565b611a80576040517f08c379a0000000000000000000000000000000000000000000000000000000008152600401611a77906132ec565b60405180910390fd5b505050565b5f611aa58473ffffffffffffffffffffffffffffffffffffffff16611ee4565b15611bfa578373ffffffffffffffffffffffffffffffffffffffff1663150b7a02611ace6110c2565b8786866040518563ffffffff1660e01b8152600401611af0949392919061335c565b6020604051808303815f875af1925050508015611b2b57506040513d601f19601f82011682018060405250810190611b2891906133ba565b60015b611baa573d805f8114611b59576040519150601f19603f3d011682016040523d82523d5f602084013e611b5e565b606091505b505f815103611ba2576040517f08c379a0000000000000000000000000000000000000000000000000000000008152600401611b99906132ec565b60405180910390fd5b805181602001fd5b63150b7a0260e01b7bffffffffffffffffffffffffffffffffffffffffffffffffffffffff1916817bffffffffffffffffffffffffffffffffffffffffffffffffffffffff191614915050611bff565b600190505b949350505050565b60605f6001611c1584611f06565b0190505f8167ffffffffffffffff811115611c3357611c3261233e565b5b6040519080825280601f01601f191660200182016040528015611c655781602001600182028036833780820191505090505b5090505f82602001820190505b600115611cc6578080600190039150507f3031323334353637383961626364656600000000000000000000000000000000600a86061a8153600a8581611cbb57611cba6133e5565b5b0494505f8503611c72575b819350505050919050565b5f73ffffffffffffffffffffffffffffffffffffffff168273ffffffffffffffffffffffffffffffffffffffff1603611d3f576040517f08c379a0000000000000000000000000000000000000000000000000000000008152600401611d369061345c565b60405180910390fd5b611d488161163c565b15611d88576040517f08c379a0000000000000000000000000000000000000000000000000000000008152600401611d7f906134c4565b60405180910390fd5b611d955f83836001611a1f565b611d9e8161163c565b15611dde576040517f08c379a0000000000000000000000000000000000000000000000000000000008152600401611dd5906134c4565b60405180910390fd5b600160035f8473ffffffffffffffffffffffffffffffffffffffff1673ffffffffffffffffffffffffffffffffffffffff1681526020019081526020015f205f82825401925050819055508160025f8381526020019081526020015f205f6101000a81548173ffffffffffffffffffffffffffffffffffffffff021916908373ffffffffffffffffffffffffffffffffffffffff160217905550808273ffffffffffffffffffffffffffffffffffffffff165f73ffffffffffffffffffffffffffffffffffffffff167fddf252ad1be2c89b69c2b068fc378daa952ba7f163c4a11628f55a4df523b3ef60405160405180910390a4611ee05f83836001611a25565b5050565b5f5f8273ffffffffffffffffffffffffffffffffffffffff163b119050919050565b5f5f5f90507a184f03e93ff9f4daa797ed6e38ed64bf6a1f0100000000000000008310611f62577a184f03e93ff9f4daa797ed6e38ed64bf6a1f0100000000000000008381611f5857611f576133e5565b5b0492506040810190505b6d04ee2d6d415b85acef81000000008310611f9f576d04ee2d6d415b85acef81000000008381611f9557611f946133e5565b5b0492506020810190505b662386f26fc100008310611fce57662386f26fc100008381611fc457611fc36133e5565b5b0492506010810190505b6305f5e1008310611ff7576305f5e1008381611fed57611fec6133e5565b5b0492506008810190505b612710831061201c576127108381612012576120116133e5565b5b0492506004810190505b6064831061203f5760648381612035576120346133e5565b5b0492506002810190505b600a831061204e576001810190505b80915050919050565b60405180606001604052806060815260200160608152602001606081525090565b5f604051905090565b5f5ffd5b5f5ffd5b5f7fffffffff0000000000000000000000000000000000000000000000000000000082169050919050565b6120bd81612089565b81146120c7575f5ffd5b50565b5f813590506120d8816120b4565b92915050565b5f602082840312156120f3576120f2612081565b5b5f612100848285016120ca565b91505092915050565b5f8115159050919050565b61211d81612109565b82525050565b5f6020820190506121365f830184612114565b92915050565b5f81519050919050565b5f82825260208201905092915050565b8281835e5f83830152505050565b5f601f19601f8301169050919050565b5f61217e8261213c565b6121888185612146565b9350612198818560208601612156565b6121a181612164565b840191505092915050565b5f6020820190508181035f8301526121c48184612174565b905092915050565b5f819050919050565b6121de816121cc565b81146121e8575f5ffd5b50565b5f813590506121f9816121d5565b92915050565b5f6020828403121561221457612213612081565b5b5f612221848285016121eb565b91505092915050565b5f73ffffffffffffffffffffffffffffffffffffffff82169050919050565b5f6122538261222a565b9050919050565b61226381612249565b82525050565b5f60208201905061227c5f83018461225a565b92915050565b61228b81612249565b8114612295575f5ffd5b50565b5f813590506122a681612282565b92915050565b5f5f604083850312156122c2576122c1612081565b5b5f6122cf85828601612298565b92505060206122e0858286016121eb565b9150509250929050565b5f5f5f6060848603121561230157612300612081565b5b5f61230e86828701612298565b935050602061231f86828701612298565b9250506040612330868287016121eb565b9150509250925092565b5f5ffd5b7f4e487b71000000000000000000000000000000000000000000000000000000005f52604160045260245ffd5b61237482612164565b810181811067ffffffffffffffff821117156123935761239261233e565b5b80604052505050565b5f6123a5612078565b90506123b1828261236b565b919050565b5f5ffd5b5f5ffd5b5f5ffd5b5f67ffffffffffffffff8211156123dc576123db61233e565b5b6123e582612164565b9050602081019050919050565b828183375f83830152505050565b5f61241261240d846123c2565b61239c565b90508281526020810184848401111561242e5761242d6123be565b5b6124398482856123f2565b509392505050565b5f82601f830112612455576124546123ba565b5b8135612465848260208601612400565b91505092915050565b5f606082840312156124835761248261233a565b5b61248d606061239c565b90505f82013567ffffffffffffffff8111156124ac576124ab6123b6565b5b6124b884828501612441565b5f83015250602082013567ffffffffffffffff8111156124db576124da6123b6565b5b6124e784828501612441565b602083015250604082013567ffffffffffffffff81111561250b5761250a6123b6565b5b61251784828501612441565b60408301525092915050565b5f5f5f6060848603121561253a57612539612081565b5b5f61254786828701612298565b935050602084013567ffffffffffffffff81111561256857612567612085565b5b6125748682870161246e565b925050604084013567ffffffffffffffff81111561259557612594612085565b5b6125a186828701612441565b9150509250925092565b5f82825260208201905092915050565b5f6125c58261213c565b6125cf81856125ab565b93506125df818560208601612156565b6125e881612164565b840191505092915050565b5f606083015f8301518482035f86015261260d82826125bb565b9150506020830151848203602086015261262782826125bb565b9150506040830151848203604086015261264182826125bb565b9150508091505092915050565b5f6020820190508181035f83015261266681846125f3565b905092915050565b5f6060820190508181035f8301526126868186612174565b9050818103602083015261269a8185612174565b905081810360408301526126ae8184612174565b9050949350505050565b5f602082840312156126cd576126cc612081565b5b5f6126da84828501612298565b91505092915050565b6126ec816121cc565b82525050565b5f6020820190506127055f8301846126e3565b92915050565b61271481612109565b811461271e575f5ffd5b50565b5f8135905061272f8161270b565b92915050565b5f5f6040838503121561274b5761274a612081565b5b5f61275885828601612298565b925050602061276985828601612721565b9150509250929050565b5f67ffffffffffffffff82111561278d5761278c61233e565b5b61279682612164565b9050602081019050919050565b5f6127b56127b084612773565b61239c565b9050828152602081018484840111156127d1576127d06123be565b5b6127dc8482856123f2565b509392505050565b5f82601f8301126127f8576127f76123ba565b5b81356128088482602086016127a3565b91505092915050565b5f5f5f5f6080858703121561282957612828612081565b5b5f61283687828801612298565b945050602061284787828801612298565b9350506040612858878288016121eb565b925050606085013567ffffffffffffffff81111561287957612878612085565b5b612885878288016127e4565b91505092959194509250565b5f5f604083850312156128a7576128a6612081565b5b5f6128b485828601612298565b92505060206128c585828601612298565b9150509250929050565b7f4e487b71000000000000000000000000000000000000000000000000000000005f52602260045260245ffd5b5f600282049050600182168061291357607f821691505b602082108103612926576129256128cf565b5b50919050565b7f4552433732313a20617070726f76616c20746f2063757272656e74206f776e655f8201527f7200000000000000000000000000000000000000000000000000000000000000602082015250565b5f612986602183612146565b91506129918261292c565b604082019050919050565b5f6020820190508181035f8301526129b38161297a565b9050919050565b7f4552433732313a20617070726f76652063616c6c6572206973206e6f7420746f5f8201527f6b656e206f776e6572206f7220617070726f76656420666f7220616c6c000000602082015250565b5f612a14603d83612146565b9150612a1f826129ba565b604082019050919050565b5f6020820190508181035f830152612a4181612a08565b9050919050565b7f4552433732313a2063616c6c6572206973206e6f7420746f6b656e206f776e655f8201527f72206f7220617070726f76656400000000000000000000000000000000000000602082015250565b5f612aa2602d83612146565b9150612aad82612a48565b604082019050919050565b5f6020820190508181035f830152612acf81612a96565b9050919050565b7f4e487b71000000000000000000000000000000000000000000000000000000005f52601160045260245ffd5b5f612b0d826121cc565b91507fffffffffffffffffffffffffffffffffffffffffffffffffffffffffffffffff8203612b3f57612b3e612ad6565b5b600182019050919050565b5f819050815f5260205f209050919050565b5f6020601f8301049050919050565b5f82821b905092915050565b5f60088302612ba67fffffffffffffffffffffffffffffffffffffffffffffffffffffffffffffffff82612b6b565b612bb08683612b6b565b95508019841693508086168417925050509392505050565b5f819050919050565b5f612beb612be6612be1846121cc565b612bc8565b6121cc565b9050919050565b5f819050919050565b612c0483612bd1565b612c18612c1082612bf2565b848454612b77565b825550505050565b5f5f905090565b612c2f612c20565b612c3a818484612bfb565b505050565b5b81811015612c5d57612c525f82612c27565b600181019050612c40565b5050565b601f821115612ca257612c7381612b4a565b612c7c84612b5c565b81016020851015612c8b578190505b612c9f612c9785612b5c565b830182612c3f565b50505b505050565b5f82821c905092915050565b5f612cc25f1984600802612ca7565b1980831691505092915050565b5f612cda8383612cb3565b9150826002028217905092915050565b612cf38261213c565b67ffffffffffffffff811115612d0c57612d0b61233e565b5b612d1682546128fc565b612d21828285612c61565b5f60209050601f831160018114612d52575f8415612d40578287015190505b612d4a8582612ccf565b865550612db1565b601f198416612d6086612b4a565b5f5b82811015612d8757848901518255600182019150602085019450602081019050612d62565b86831015612da45784890151612da0601f891682612cb3565b8355505b6001600288020188555050505b505050505050565b7f546f6b656e20646f6573206e6f742065786973740000000000000000000000005f82015250565b5f612ded601483612146565b9150612df882612db9565b602082019050919050565b5f6020820190508181035f830152612e1a81612de1565b9050919050565b7f4552433732313a20696e76616c696420746f6b656e20494400000000000000005f82015250565b5f612e55601883612146565b9150612e6082612e21565b602082019050919050565b5f6020820190508181035f830152612e8281612e49565b9050919050565b7f4552433732313a2061646472657373207a65726f206973206e6f7420612076615f8201527f6c6964206f776e65720000000000000000000000000000000000000000000000602082015250565b5f612ee3602983612146565b9150612eee82612e89565b604082019050919050565b5f6020820190508181035f830152612f1081612ed7565b9050919050565b5f81905092915050565b5f612f2b8261213c565b612f358185612f17565b9350612f45818560208601612156565b80840191505092915050565b5f612f5c8285612f21565b9150612f688284612f21565b91508190509392505050565b7f4f776e61626c653a206e6577206f776e657220697320746865207a65726f20615f8201527f6464726573730000000000000000000000000000000000000000000000000000602082015250565b5f612fce602683612146565b9150612fd982612f74565b604082019050919050565b5f6020820190508181035f830152612ffb81612fc2565b9050919050565b7f4552433732313a207472616e736665722066726f6d20696e636f7272656374205f8201527f6f776e6572000000000000000000000000000000000000000000000000000000602082015250565b5f61305c602583612146565b915061306782613002565b604082019050919050565b5f6020820190508181035f83015261308981613050565b9050919050565b7f4552433732313a207472616e7366657220746f20746865207a65726f206164645f8201527f7265737300000000000000000000000000000000000000000000000000000000602082015250565b5f6130ea602483612146565b91506130f582613090565b604082019050919050565b5f6020820190508181035f830152613117816130de565b9050919050565b7f4f776e61626c653a2063616c6c6572206973206e6f7420746865206f776e65725f82015250565b5f613152602083612146565b915061315d8261311e565b602082019050919050565b5f6020820190508181035f83015261317f81613146565b9050919050565b7f45524337323155524953746f726167653a2055524920736574206f66206e6f6e5f8201527f6578697374656e7420746f6b656e000000000000000000000000000000000000602082015250565b5f6131e0602e83612146565b91506131eb82613186565b604082019050919050565b5f6020820190508181035f83015261320d816131d4565b9050919050565b7f4552433732313a20617070726f766520746f2063616c6c6572000000000000005f82015250565b5f613248601983612146565b915061325382613214565b602082019050919050565b5f6020820190508181035f8301526132758161323c565b9050919050565b7f4552433732313a207472616e7366657220746f206e6f6e2045524337323152655f8201527f63656976657220696d706c656d656e7465720000000000000000000000000000602082015250565b5f6132d6603283612146565b91506132e18261327c565b604082019050919050565b5f6020820190508181035f830152613303816132ca565b9050919050565b5f81519050919050565b5f82825260208201905092915050565b5f61332e8261330a565b6133388185613314565b9350613348818560208601612156565b61335181612164565b840191505092915050565b5f60808201905061336f5f83018761225a565b61337c602083018661225a565b61338960408301856126e3565b818103606083015261339b8184613324565b905095945050505050565b5f815190506133b4816120b4565b92915050565b5f602082840312156133cf576133ce612081565b5b5f6133dc848285016133a6565b91505092915050565b7f4e487b71000000000000000000000000000000000000000000000000000000005f52601260045260245ffd5b7f4552433732313a206d696e7420746f20746865207a65726f20616464726573735f82015250565b5f613446602083612146565b915061345182613412565b602082019050919050565b5f6020820190508181035f8301526134738161343a565b9050919050565b7f4552433732313a20746f6b656e20616c7265616479206d696e746564000000005f82015250565b5f6134ae601c83612146565b91506134b98261347a565b602082019050919050565b5f6020820190508181035f8301526134db816134a2565b905091905056fea264697066735822122065c16b2c84e16a28bfbc98a48ff93c4925c02146e5181b01e074de810ec7e62c64736f6c634300081e0033","linkReferences":{}},"methodIdentifiers":{"approve(address,uint256)":"095ea7b3","balanceOf(address)":"70a08231","getApproved(uint256)":"081812fc","getItineraryMetadata(uint256)":"32c2b966","isApprovedForAll(address,address)":"e985e9c5","itineraryMetadata(uint256)":"344784f3","mintItinerary(address,(string,string,string),string)":"2ccf6e8f","name()":"06fdde03","owner()":"8da5cb5b","ownerOf(uint256)":"6352211e","renounceOwnership()":"715018a6","safeTransferFrom(address,address,uint256)":"42842e0e","safeTransferFrom(address,address,uint256,bytes)":"b88d4fde","setApprovalForAll(address,bool)":"a22cb465","supportsInterface(bytes4)":"01ffc9a7","symbol()":"95d89b41","tokenURI(uint256)":"c87b56dd","transferFrom(address,address,uint256)":"23b872dd","transferOwnership(address)":"f2fde38b"},"id":32}