{"abi":[{"type":"constructor","inputs":[{"name":"_escrow","type":"address","internalType":"address"}],"stateMutability":"nonpayable"},{"type":"function","name":"ESCROW","inputs":[],"outputs":[{"name":"","type":"address","internalType":"contract IERC20"}],"stateMutability":"view"},{"type":"function","name":"createItinerary","inputs":[{"name":"description","type":"string","internalType":"string"},{"name":"price","type":"uint256","internalType":"uint256"}],"outputs":[],"stateMutability":"nonpayable"},{"type":"function","name":"itineraries","inputs":[{"name":"","type":"uint256","internalType":"uint256"}],"outputs":[{"name":"id","type":"uint256","internalType":"uint256"},{"name":"creator","type":"address","internalType":"address"},{"name":"description","type":"string","internalType":"string"},{"name":"price","type":"uint256","internalType":"uint256"},{"name":"isActive","type":"bool","internalType":"bool"}],"stateMutability":"view"},{"type":"function","name":"itineraryToCreator","inputs":[{"name":"","type":"uint256","internalType":"uint256"}],"outputs":[{"name":"","type":"address","internalType":"address"}],"stateMutability":"view"},{"type":"function","name":"owner","inputs":[],"outputs":[{"name":"","type":"address","internalType":"address"}],"stateMutability":"view"},{"type":"function","name":"purchaseItinerary","inputs":[{"name":"id","type":"uint256","internalType":"uint256"}],"outputs":[],"stateMutability":"nonpayable"},{"type":"function","name":"renounceOwnership","inputs":[],"outputs":[],"stateMutability":"nonpayable"},{"type":"function","name":"toggleItineraryActive","inputs":[{"name":"id","type":"uint256","internalType":"uint256"}],"outputs":[],"stateMutability":"nonpayable"},{"type":"function","name":"transferOwnership","inputs":[{"name":"newOwner","type":"address","internalType":"address"}],"outputs":[],"stateMutability":"nonpayable"},{"type":"event","name":"ItineraryCreated","inputs":[{"name":"id","type":"uint256","indexed":true,"internalType":"uint256"},{"name":"creator","type":"address","indexed":true,"internalType":"address"},{"name":"description","type":"string","indexed":false,"internalType":"string"},{"name":"price","type":"uint256","indexed":false,"internalType":"uint256"}],"anonymous":false},{"type":"event","name":"ItineraryPurchased","inputs":[{"name":"id","type":"uint256","indexed":true,"internalType":"uint256"},{"name":"buyer","type":"address","indexed":true,"internalType":"address"}],"anonymous":false},{"type":"event","name":"OwnershipTransferred","inputs":[{"name":"previousOwner","type":"address","indexed":true,"internalType":"address"},{"name":"newOwner","type":"address","indexed":true,"internalType":"address"}],"anonymous":false}],"bytecode":{"object":"0x60a060405234801561000f575f5ffd5b506040516119283803806119288339818101604052810190610031919061021b565b61004d6100426100f560201b60201c565b6100fc60201b60201c565b5f73ffffffffffffffffffffffffffffffffffffffff168173ffffffffffffffffffffffffffffffffffffffff16036100bb576040517f08c379a00000000000000000000000000000000000000000000000000000000081526004016100b2906102a0565b60405180910390fd5b8073ffffffffffffffffffffffffffffffffffffffff1660808173ffffffffffffffffffffffffffffffffffffffff1681525050506102be565b5f33905090565b5f5f5f9054906101000a900473ffffffffffffffffffffffffffffffffffffffff169050815f5f6101000a81548173ffffffffffffffffffffffffffffffffffffffff021916908373ffffffffffffffffffffffffffffffffffffffff1602179055508173ffffffffffffffffffffffffffffffffffffffff168173ffffffffffffffffffffffffffffffffffffffff167f8be0079c531659141344cd1fd0a4f28419497f9722a3daafe3b4186f6b6457e060405160405180910390a35050565b5f5ffd5b5f73ffffffffffffffffffffffffffffffffffffffff82169050919050565b5f6101ea826101c1565b9050919050565b6101fa816101e0565b8114610204575f5ffd5b50565b5f81519050610215816101f1565b92915050565b5f602082840312156102305761022f6101bd565b5b5f61023d84828501610207565b91505092915050565b5f82825260208201905092915050565b7f496e76616c696420657363726f772061646472657373000000000000000000005f82015250565b5f61028a601683610246565b915061029582610256565b602082019050919050565b5f6020820190508181035f8301526102b78161027e565b9050919050565b60805161164b6102dd5f395f8181610405015261097e015261164b5ff3fe608060405234801561000f575f5ffd5b5060043610610091575f3560e01c8063c3e9bf8911610064578063c3e9bf8914610109578063d0d048701461013d578063e63e11f114610159578063e681c4aa14610175578063f2fde38b1461019357610091565b806314addfd214610095578063715018a6146100c557806371a20c2c146100cf5780638da5cb5b146100eb575b5f5ffd5b6100af60048036038101906100aa9190610bac565b6101af565b6040516100bc9190610c16565b60405180910390f35b6100cd6101df565b005b6100e960048036038101906100e49190610bac565b6101f2565b005b6100f361052f565b6040516101009190610c16565b60405180910390f35b610123600480360381019061011e9190610bac565b610556565b604051610134959493929190610cc8565b60405180910390f35b61015760048036038101906101529190610e4c565b610648565b005b610173600480360381019061016e9190610bac565b6107ed565b005b61017d61097c565b60405161018a9190610f01565b60405180910390f35b6101ad60048036038101906101a89190610f44565b6109a0565b005b6002602052805f5260405f205f915054906101000a900473ffffffffffffffffffffffffffffffffffffffff1681565b6101e7610a22565b6101f05f610aa0565b565b6001805490508110610239576040517f08c379a000000000000000000000000000000000000000000000000000000000815260040161023090610fb9565b60405180910390fd5b5f6001828154811061024e5761024d610fd7565b5b905f5260205f2090600502016040518060a00160405290815f8201548152602001600182015f9054906101000a900473ffffffffffffffffffffffffffffffffffffffff1673ffffffffffffffffffffffffffffffffffffffff1673ffffffffffffffffffffffffffffffffffffffff1681526020016002820180546102d390611031565b80601f01602080910402602001604051908101604052809291908181526020018280546102ff90611031565b801561034a5780601f106103215761010080835404028352916020019161034a565b820191905f5260205f20905b81548152906001019060200180831161032d57829003601f168201915b5050505050815260200160038201548152602001600482015f9054906101000a900460ff161515151581525050905080608001516103bd576040517f08c379a00000000000000000000000000000000000000000000000000000000081526004016103b4906110ab565b60405180910390fd5b5f816060015111610403576040517f08c379a00000000000000000000000000000000000000000000000000000000081526004016103fa90611113565b60405180910390fd5b7f000000000000000000000000000000000000000000000000000000000000000073ffffffffffffffffffffffffffffffffffffffff166323b872dd33836020015184606001516040518463ffffffff1660e01b815260040161046893929190611131565b6020604051808303815f875af1158015610484573d5f5f3e3d5ffd5b505050506040513d601f19601f820116820180604052508101906104a89190611190565b6104e7576040517f08c379a00000000000000000000000000000000000000000000000000000000081526004016104de90611205565b60405180910390fd5b3373ffffffffffffffffffffffffffffffffffffffff16827fd442de5deae8b155df74914b6f15d9d41099fde51d38230a0f7777b1dcea838460405160405180910390a35050565b5f5f5f9054906101000a900473ffffffffffffffffffffffffffffffffffffffff16905090565b60018181548110610565575f80fd5b905f5260205f2090600502015f91509050805f015490806001015f9054906101000a900473ffffffffffffffffffffffffffffffffffffffff16908060020180546105af90611031565b80601f01602080910402602001604051908101604052809291908181526020018280546105db90611031565b80156106265780601f106105fd57610100808354040283529160200191610626565b820191905f5260205f20905b81548152906001019060200180831161060957829003601f168201915b505050505090806003015490806004015f9054906101000a900460ff16905085565b5f600180549050905060016040518060a001604052808381526020013373ffffffffffffffffffffffffffffffffffffffff16815260200185815260200184815260200160011515815250908060018154018082558091505060019003905f5260205f2090600502015f909190919091505f820151815f01556020820151816001015f6101000a81548173ffffffffffffffffffffffffffffffffffffffff021916908373ffffffffffffffffffffffffffffffffffffffff160217905550604082015181600201908161071c91906113ba565b50606082015181600301556080820151816004015f6101000a81548160ff02191690831515021790555050503360025f8381526020019081526020015f205f6101000a81548173ffffffffffffffffffffffffffffffffffffffff021916908373ffffffffffffffffffffffffffffffffffffffff1602179055503373ffffffffffffffffffffffffffffffffffffffff16817fbc7f89075c8f0cc21ff4ff885d16e37d94024243fc2451bcf08e1c52324936e385856040516107e0929190611489565b60405180910390a3505050565b6001805490508110610834576040517f08c379a000000000000000000000000000000000000000000000000000000000815260040161082b90610fb9565b60405180910390fd5b3373ffffffffffffffffffffffffffffffffffffffff1660025f8381526020019081526020015f205f9054906101000a900473ffffffffffffffffffffffffffffffffffffffff1673ffffffffffffffffffffffffffffffffffffffff1614806108d057503373ffffffffffffffffffffffffffffffffffffffff166108b861052f565b73ffffffffffffffffffffffffffffffffffffffff16145b61090f576040517f08c379a000000000000000000000000000000000000000000000000000000000815260040161090690611501565b60405180910390fd5b6001818154811061092357610922610fd7565b5b905f5260205f2090600502016004015f9054906101000a900460ff16156001828154811061095457610953610fd7565b5b905f5260205f2090600502016004015f6101000a81548160ff02191690831515021790555050565b7f000000000000000000000000000000000000000000000000000000000000000081565b6109a8610a22565b5f73ffffffffffffffffffffffffffffffffffffffff168173ffffffffffffffffffffffffffffffffffffffff1603610a16576040517f08c379a0000000000000000000000000000000000000000000000000000000008152600401610a0d9061158f565b60405180910390fd5b610a1f81610aa0565b50565b610a2a610b61565b73ffffffffffffffffffffffffffffffffffffffff16610a4861052f565b73ffffffffffffffffffffffffffffffffffffffff1614610a9e576040517f08c379a0000000000000000000000000000000000000000000000000000000008152600401610a95906115f7565b60405180910390fd5b565b5f5f5f9054906101000a900473ffffffffffffffffffffffffffffffffffffffff169050815f5f6101000a81548173ffffffffffffffffffffffffffffffffffffffff021916908373ffffffffffffffffffffffffffffffffffffffff1602179055508173ffffffffffffffffffffffffffffffffffffffff168173ffffffffffffffffffffffffffffffffffffffff167f8be0079c531659141344cd1fd0a4f28419497f9722a3daafe3b4186f6b6457e060405160405180910390a35050565b5f33905090565b5f604051905090565b5f5ffd5b5f5ffd5b5f819050919050565b610b8b81610b79565b8114610b95575f5ffd5b50565b5f81359050610ba681610b82565b92915050565b5f60208284031215610bc157610bc0610b71565b5b5f610bce84828501610b98565b91505092915050565b5f73ffffffffffffffffffffffffffffffffffffffff82169050919050565b5f610c0082610bd7565b9050919050565b610c1081610bf6565b82525050565b5f602082019050610c295f830184610c07565b92915050565b610c3881610b79565b82525050565b5f81519050919050565b5f82825260208201905092915050565b8281835e5f83830152505050565b5f601f19601f8301169050919050565b5f610c8082610c3e565b610c8a8185610c48565b9350610c9a818560208601610c58565b610ca381610c66565b840191505092915050565b5f8115159050919050565b610cc281610cae565b82525050565b5f60a082019050610cdb5f830188610c2f565b610ce86020830187610c07565b8181036040830152610cfa8186610c76565b9050610d096060830185610c2f565b610d166080830184610cb9565b9695505050505050565b5f5ffd5b5f5ffd5b7f4e487b71000000000000000000000000000000000000000000000000000000005f52604160045260245ffd5b610d5e82610c66565b810181811067ffffffffffffffff82111715610d7d57610d7c610d28565b5b80604052505050565b5f610d8f610b68565b9050610d9b8282610d55565b919050565b5f67ffffffffffffffff821115610dba57610db9610d28565b5b610dc382610c66565b9050602081019050919050565b828183375f83830152505050565b5f610df0610deb84610da0565b610d86565b905082815260208101848484011115610e0c57610e0b610d24565b5b610e17848285610dd0565b509392505050565b5f82601f830112610e3357610e32610d20565b5b8135610e43848260208601610dde565b91505092915050565b5f5f60408385031215610e6257610e61610b71565b5b5f83013567ffffffffffffffff811115610e7f57610e7e610b75565b5b610e8b85828601610e1f565b9250506020610e9c85828601610b98565b9150509250929050565b5f819050919050565b5f610ec9610ec4610ebf84610bd7565b610ea6565b610bd7565b9050919050565b5f610eda82610eaf565b9050919050565b5f610eeb82610ed0565b9050919050565b610efb81610ee1565b82525050565b5f602082019050610f145f830184610ef2565b92915050565b610f2381610bf6565b8114610f2d575f5ffd5b50565b5f81359050610f3e81610f1a565b92915050565b5f60208284031215610f5957610f58610b71565b5b5f610f6684828501610f30565b91505092915050565b7f4974696e657261727920646f6573206e6f7420657869737400000000000000005f82015250565b5f610fa3601883610c48565b9150610fae82610f6f565b602082019050919050565b5f6020820190508181035f830152610fd081610f97565b9050919050565b7f4e487b71000000000000000000000000000000000000000000000000000000005f52603260045260245ffd5b7f4e487b71000000000000000000000000000000000000000000000000000000005f52602260045260245ffd5b5f600282049050600182168061104857607f821691505b60208210810361105b5761105a611004565b5b50919050565b7f4974696e6572617279206973206e6f74206163746976650000000000000000005f82015250565b5f611095601783610c48565b91506110a082611061565b602082019050919050565b5f6020820190508181035f8301526110c281611089565b9050919050565b7f496e76616c6964207072696365000000000000000000000000000000000000005f82015250565b5f6110fd600d83610c48565b9150611108826110c9565b602082019050919050565b5f6020820190508181035f83015261112a816110f1565b9050919050565b5f6060820190506111445f830186610c07565b6111516020830185610c07565b61115e6040830184610c2f565b949350505050565b61116f81610cae565b8114611179575f5ffd5b50565b5f8151905061118a81611166565b92915050565b5f602082840312156111a5576111a4610b71565b5b5f6111b28482850161117c565b91505092915050565b7f5472616e73666572206661696c656400000000000000000000000000000000005f82015250565b5f6111ef600f83610c48565b91506111fa826111bb565b602082019050919050565b5f6020820190508181035f83015261121c816111e3565b9050919050565b5f819050815f5260205f209050919050565b5f6020601f8301049050919050565b5f82821b905092915050565b5f6008830261127f7fffffffffffffffffffffffffffffffffffffffffffffffffffffffffffffffff82611244565b6112898683611244565b95508019841693508086168417925050509392505050565b5f6112bb6112b66112b184610b79565b610ea6565b610b79565b9050919050565b5f819050919050565b6112d4836112a1565b6112e86112e0826112c2565b848454611250565b825550505050565b5f5f905090565b6112ff6112f0565b61130a8184846112cb565b505050565b5b8181101561132d576113225f826112f7565b600181019050611310565b5050565b601f8211156113725761134381611223565b61134c84611235565b8101602085101561135b578190505b61136f61136785611235565b83018261130f565b50505b505050565b5f82821c905092915050565b5f6113925f1984600802611377565b1980831691505092915050565b5f6113aa8383611383565b9150826002028217905092915050565b6113c382610c3e565b67ffffffffffffffff8111156113dc576113db610d28565b5b6113e68254611031565b6113f1828285611331565b5f60209050601f831160018114611422575f8415611410578287015190505b61141a858261139f565b865550611481565b601f19841661143086611223565b5f5b8281101561145757848901518255600182019150602085019450602081019050611432565b868310156114745784890151611470601f891682611383565b8355505b6001600288020188555050505b505050505050565b5f6040820190508181035f8301526114a18185610c76565b90506114b06020830184610c2f565b9392505050565b7f4e6f7420617574686f72697a65640000000000000000000000000000000000005f82015250565b5f6114eb600e83610c48565b91506114f6826114b7565b602082019050919050565b5f6020820190508181035f830152611518816114df565b9050919050565b7f4f776e61626c653a206e6577206f776e657220697320746865207a65726f20615f8201527f6464726573730000000000000000000000000000000000000000000000000000602082015250565b5f611579602683610c48565b91506115848261151f565b604082019050919050565b5f6020820190508181035f8301526115a68161156d565b9050919050565b7f4f776e61626c653a2063616c6c6572206973206e6f7420746865206f776e65725f82015250565b5f6115e1602083610c48565b91506115ec826115ad565b602082019050919050565b5f6020820190508181035f83015261160e816115d5565b905091905056fea2646970667358221220a66afc443d59bc833f75d80f756080f3f1162c266286db31d48bb247a651a06164736f6c634300081e0033","linkReferences":{}},"methodIdentifiers":{"ESCROW()":"e681c4aa","createItinerary(string,uint256)":"d0d04870","itineraries(uint256)":"c3e9bf89","itineraryToCreator(uint256)":"14addfd2","owner()":"8da5cb5b","purchaseItinerary(uint256)":"71a20c2c","renounceOwnership()":"715018a6","toggleItineraryActive(uint256)":"e63e11f1","transferOwnership(address)":"f2fde38b"},"id":32}