{"abi":[{"type":"constructor","inputs":[{"name":"name","type":"string","internalType":"string"},{"name":"symbol","type":"string","internalType":"string"}],"stateMutability":"nonpayable"},{"type":"function","name":"MINT_PRICE","inputs":[],"outputs":[{"name":"","type":"uint256","internalType":"uint256"}],"stateMutability":"view"},{"type":"function","name":"approve","inputs":[{"name":"to","type":"address","internalType":"address"},{"name":"tokenId","type":"uint256","internalType":"uint256"}],"outputs":[],"stateMutability":"nonpayable"},{"type":"function","name":"balanceOf","inputs":[{"name":"owner","type":"address","internalType":"address"}],"outputs":[{"name":"","type":"uint256","internalType":"uint256"}],"stateMutability":"view"},{"type":"function","name":"getApproved","inputs":[{"name":"tokenId","type":"uint256","internalType":"uint256"}],"outputs":[{"name":"","type":"address","internalType":"address"}],"stateMutability":"view"},{"type":"function","name":"isApprovedForAll","inputs":[{"name":"owner","type":"address","internalType":"address"},{"name":"operator","type":"address","internalType":"address"}],"outputs":[{"name":"","type":"bool","internalType":"bool"}],"stateMutability":"view"},{"type":"function","name":"mint","inputs":[{"name":"to","type":"address","internalType":"address"}],"outputs":[],"stateMutability":"payable"},{"type":"function","name":"name","inputs":[],"outputs":[{"name":"","type":"string","internalType":"string"}],"stateMutability":"view"},{"type":"function","name":"owner","inputs":[],"outputs":[{"name":"","type":"address","internalType":"address"}],"stateMutability":"view"},{"type":"function","name":"ownerOf","inputs":[{"name":"tokenId","type":"uint256","internalType":"uint256"}],"outputs":[{"name":"","type":"address","internalType":"address"}],"stateMutability":"view"},{"type":"function","name":"renounceOwnership","inputs":[],"outputs":[],"stateMutability":"nonpayable"},{"type":"function","name":"safeTransferFrom","inputs":[{"name":"from","type":"address","internalType":"address"},{"name":"to","type":"address","internalType":"address"},{"name":"tokenId","type":"uint256","internalType":"uint256"}],"outputs":[],"stateMutability":"nonpayable"},{"type":"function","name":"safeTransferFrom","inputs":[{"name":"from","type":"address","internalType":"address"},{"name":"to","type":"address","internalType":"address"},{"name":"tokenId","type":"uint256","internalType":"uint256"},{"name":"data","type":"bytes","internalType":"bytes"}],"outputs":[],"stateMutability":"nonpayable"},{"type":"function","name":"setApprovalForAll","inputs":[{"name":"operator","type":"address","internalType":"address"},{"name":"approved","type":"bool","internalType":"bool"}],"outputs":[],"stateMutability":"nonpayable"},{"type":"function","name":"setTokenURI","inputs":[{"name":"tokenId","type":"uint256","internalType":"uint256"},{"name":"uri","type":"string","internalType":"string"}],"outputs":[],"stateMutability":"nonpayable"},{"type":"function","name":"supportsInterface","inputs":[{"name":"interfaceId","type":"bytes4","internalType":"bytes4"}],"outputs":[{"name":"","type":"bool","internalType":"bool"}],"stateMutability":"view"},{"type":"function","name":"symbol","inputs":[],"outputs":[{"name":"","type":"string","internalType":"string"}],"stateMutability":"view"},{"type":"function","name":"tokenURI","inputs":[{"name":"tokenId","type":"uint256","internalType":"uint256"}],"outputs":[{"name":"","type":"string","internalType":"string"}],"stateMutability":"view"},{"type":"function","name":"transferFrom","inputs":[{"name":"from","type":"address","internalType":"address"},{"name":"to","type":"address","internalType":"address"},{"name":"tokenId","type":"uint256","internalType":"uint256"}],"outputs":[],"stateMutability":"nonpayable"},{"type":"function","name":"transferOwnership","inputs":[{"name":"newOwner","type":"address","internalType":"address"}],"outputs":[],"stateMutability":"nonpayable"},{"type":"function","name":"withdraw","inputs":[],"outputs":[],"stateMutability":"nonpayable"},{"type":"event","name":"Approval","inputs":[{"name":"owner","type":"address","indexed":true,"internalType":"address"},{"name":"approved","type":"address","indexed":true,"internalType":"address"},{"name":"tokenId","type":"uint256","indexed":true,"internalType":"uint256"}],"anonymous":false},{"type":"event","name":"ApprovalForAll","inputs":[{"name":"owner","type":"address","indexed":true,"internalType":"address"},{"name":"operator","type":"address","indexed":true,"internalType":"address"},{"name":"approved","type":"bool","indexed":false,"internalType":"bool"}],"anonymous":false},{"type":"event","name":"OwnershipTransferred","inputs":[{"name":"previousOwner","type":"address","indexed":true,"internalType":"address"},{"name":"newOwner","type":"address","indexed":true,"internalType":"address"}],"anonymous":false},{"type":"event","name":"Transfer","inputs":[{"name":"from","type":"address","indexed":true,"internalType":"address"},{"name":"to","type":"address","indexed":true,"internalType":"address"},{"name":"tokenId","type":"uint256","indexed":true,"internalType":"uint256"}],"anonymous":false}],"bytecode":{"object":"0x608060405234801562000010575f80fd5b506040516200337b3803806200337b8339818101604052810190620000369190620002d4565b8181815f90816200004891906200058e565b5080600190816200005a91906200058e565b5050506200007d620000716200008560201b60201c565b6200008c60201b60201c565b505062000672565b5f33905090565b5f60065f9054906101000a900473ffffffffffffffffffffffffffffffffffffffff1690508160065f6101000a81548173ffffffffffffffffffffffffffffffffffffffff021916908373ffffffffffffffffffffffffffffffffffffffff1602179055508173ffffffffffffffffffffffffffffffffffffffff168173ffffffffffffffffffffffffffffffffffffffff167f8be0079c531659141344cd1fd0a4f28419497f9722a3daafe3b4186f6b6457e060405160405180910390a35050565b5f604051905090565b5f80fd5b5f80fd5b5f80fd5b5f80fd5b5f601f19601f8301169050919050565b7f4e487b71000000000000000000000000000000000000000000000000000000005f52604160045260245ffd5b620001b08262000168565b810181811067ffffffffffffffff82111715620001d257620001d162000178565b5b80604052505050565b5f620001e66200014f565b9050620001f48282620001a5565b919050565b5f67ffffffffffffffff82111562000216576200021562000178565b5b620002218262000168565b9050602081019050919050565b5f5b838110156200024d57808201518184015260208101905062000230565b5f8484015250505050565b5f6200026e6200026884620001f9565b620001db565b9050828152602081018484840111156200028d576200028c62000164565b5b6200029a8482856200022e565b509392505050565b5f82601f830112620002b957620002b862000160565b5b8151620002cb84826020860162000258565b91505092915050565b5f8060408385031215620002ed57620002ec62000158565b5b5f83015167ffffffffffffffff8111156200030d576200030c6200015c565b5b6200031b85828601620002a2565b925050602083015167ffffffffffffffff8111156200033f576200033e6200015c565b5b6200034d85828601620002a2565b9150509250929050565b5f81519050919050565b7f4e487b71000000000000000000000000000000000000000000000000000000005f52602260045260245ffd5b5f6002820490506001821680620003a657607f821691505b602082108103620003bc57620003bb62000361565b5b50919050565b5f819050815f5260205f209050919050565b5f6020601f8301049050919050565b5f82821b905092915050565b5f60088302620004207fffffffffffffffffffffffffffffffffffffffffffffffffffffffffffffffff82620003e3565b6200042c8683620003e3565b95508019841693508086168417925050509392505050565b5f819050919050565b5f819050919050565b5f62000476620004706200046a8462000444565b6200044d565b62000444565b9050919050565b5f819050919050565b620004918362000456565b620004a9620004a0826200047d565b848454620003ef565b825550505050565b5f90565b620004bf620004b1565b620004cc81848462000486565b505050565b5b81811015620004f357620004e75f82620004b5565b600181019050620004d2565b5050565b601f82111562000542576200050c81620003c2565b6200051784620003d4565b8101602085101562000527578190505b6200053f6200053685620003d4565b830182620004d1565b50505b505050565b5f82821c905092915050565b5f620005645f198460080262000547565b1980831691505092915050565b5f6200057e838362000553565b9150826002028217905092915050565b620005998262000357565b67ffffffffffffffff811115620005b557620005b462000178565b5b620005c182546200038e565b620005ce828285620004f7565b5f60209050601f83116001811462000604575f8415620005ef578287015190505b620005fb858262000571565b8655506200066a565b601f1984166200061486620003c2565b5f5b828110156200063d5784890151825560018201915060208501945060208101905062000616565b868310156200065d578489015162000659601f89168262000553565b8355505b6001600288020188555050505b505050505050565b612cfb80620006805f395ff3fe60806040526004361061011e575f3560e01c806370a082311161009f578063b88d4fde11610063578063b88d4fde146103a0578063c002d23d146103c8578063c87b56dd146103f2578063e985e9c51461042e578063f2fde38b1461046a5761011e565b806370a08231146102d2578063715018a61461030e5780638da5cb5b1461032457806395d89b411461034e578063a22cb465146103785761011e565b806323b872dd116100e657806323b872dd146102145780633ccfd60b1461023c57806342842e0e146102525780636352211e1461027a5780636a627842146102b65761011e565b806301ffc9a71461012257806306fdde031461015e578063081812fc14610188578063095ea7b3146101c4578063162094c4146101ec575b5f80fd5b34801561012d575f80fd5b5061014860048036038101906101439190611a9e565b610492565b6040516101559190611ae3565b60405180910390f35b348015610169575f80fd5b50610172610573565b60405161017f9190611b86565b60405180910390f35b348015610193575f80fd5b506101ae60048036038101906101a99190611bd9565b610602565b6040516101bb9190611c43565b60405180910390f35b3480156101cf575f80fd5b506101ea60048036038101906101e59190611c86565b610644565b005b3480156101f7575f80fd5b50610212600480360381019061020d9190611df0565b61075a565b005b34801561021f575f80fd5b5061023a60048036038101906102359190611e4a565b6107cd565b005b348015610247575f80fd5b5061025061082d565b005b34801561025d575f80fd5b5061027860048036038101906102739190611e4a565b610882565b005b348015610285575f80fd5b506102a0600480360381019061029b9190611bd9565b6108a1565b6040516102ad9190611c43565b60405180910390f35b6102d060048036038101906102cb9190611e9a565b610925565b005b3480156102dd575f80fd5b506102f860048036038101906102f39190611e9a565b610995565b6040516103059190611ed4565b60405180910390f35b348015610319575f80fd5b50610322610a49565b005b34801561032f575f80fd5b50610338610a5c565b6040516103459190611c43565b60405180910390f35b348015610359575f80fd5b50610362610a84565b60405161036f9190611b86565b60405180910390f35b348015610383575f80fd5b5061039e60048036038101906103999190611f17565b610b14565b005b3480156103ab575f80fd5b506103c660048036038101906103c19190611ff3565b610b2a565b005b3480156103d3575f80fd5b506103dc610b8c565b6040516103e99190611ed4565b60405180910390f35b3480156103fd575f80fd5b5061041860048036038101906104139190611bd9565b610b97565b6040516104259190611b86565b60405180910390f35b348015610439575f80fd5b50610454600480360381019061044f9190612073565b610c80565b6040516104619190611ae3565b60405180910390f35b348015610475575f80fd5b50610490600480360381019061048b9190611e9a565b610d0e565b005b5f7f80ac58cd000000000000000000000000000000000000000000000000000000007bffffffffffffffffffffffffffffffffffffffffffffffffffffffff1916827bffffffffffffffffffffffffffffffffffffffffffffffffffffffff1916148061055c57507f5b5e139f000000000000000000000000000000000000000000000000000000007bffffffffffffffffffffffffffffffffffffffffffffffffffffffff1916827bffffffffffffffffffffffffffffffffffffffffffffffffffffffff1916145b8061056c575061056b82610d90565b5b9050919050565b60605f8054610581906120de565b80601f01602080910402602001604051908101604052809291908181526020018280546105ad906120de565b80156105f85780601f106105cf576101008083540402835291602001916105f8565b820191905f5260205f20905b8154815290600101906020018083116105db57829003601f168201915b5050505050905090565b5f61060c82610df9565b60045f8381526020019081526020015f205f9054906101000a900473ffffffffffffffffffffffffffffffffffffffff169050919050565b5f61064e826108a1565b90508073ffffffffffffffffffffffffffffffffffffffff168373ffffffffffffffffffffffffffffffffffffffff16036106be576040517f08c379a00000000000000000000000000000000000000000000000000000000081526004016106b59061217e565b60405180910390fd5b8073ffffffffffffffffffffffffffffffffffffffff166106dd610e44565b73ffffffffffffffffffffffffffffffffffffffff16148061070c575061070b81610706610e44565b610c80565b5b61074b576040517f08c379a00000000000000000000000000000000000000000000000000000000081526004016107429061220c565b60405180910390fd5b6107558383610e4b565b505050565b610762610f01565b61076b82610f7f565b6107aa576040517f08c379a00000000000000000000000000000000000000000000000000000000081526004016107a19061229a565b60405180910390fd5b8060085f8481526020019081526020015f2090816107c89190612455565b505050565b6107de6107d8610e44565b82610fbf565b61081d576040517f08c379a000000000000000000000000000000000000000000000000000000000815260040161081490612594565b60405180910390fd5b610828838383611053565b505050565b610835610f01565b61083d610a5c565b73ffffffffffffffffffffffffffffffffffffffff166108fc4790811502906040515f60405180830381858888f1935050505015801561087f573d5f803e3d5ffd5b50565b61089c83838360405180602001604052805f815250610b2a565b505050565b5f806108ac8361133f565b90505f73ffffffffffffffffffffffffffffffffffffffff168173ffffffffffffffffffffffffffffffffffffffff160361091c576040517f08c379a0000000000000000000000000000000000000000000000000000000008152600401610913906125fc565b60405180910390fd5b80915050919050565b662386f26fc1000034101561096f576040517f08c379a000000000000000000000000000000000000000000000000000000000815260040161096690612664565b60405180910390fd5b60075f815480929190610981906126af565b919050555061099281600754611378565b50565b5f8073ffffffffffffffffffffffffffffffffffffffff168273ffffffffffffffffffffffffffffffffffffffff1603610a04576040517f08c379a00000000000000000000000000000000000000000000000000000000081526004016109fb90612766565b60405180910390fd5b60035f8373ffffffffffffffffffffffffffffffffffffffff1673ffffffffffffffffffffffffffffffffffffffff1681526020019081526020015f20549050919050565b610a51610f01565b610a5a5f611395565b565b5f60065f9054906101000a900473ffffffffffffffffffffffffffffffffffffffff16905090565b606060018054610a93906120de565b80601f0160208091040260200160405190810160405280929190818152602001828054610abf906120de565b8015610b0a5780601f10610ae157610100808354040283529160200191610b0a565b820191905f5260205f20905b815481529060010190602001808311610aed57829003601f168201915b5050505050905090565b610b26610b1f610e44565b8383611458565b5050565b610b3b610b35610e44565b83610fbf565b610b7a576040517f08c379a0000000000000000000000000000000000000000000000000000000008152600401610b7190612594565b60405180910390fd5b610b86848484846115bf565b50505050565b662386f26fc1000081565b6060610ba282610f7f565b610be1576040517f08c379a0000000000000000000000000000000000000000000000000000000008152600401610bd8906127f4565b60405180910390fd5b60085f8381526020019081526020015f208054610bfd906120de565b80601f0160208091040260200160405190810160405280929190818152602001828054610c29906120de565b8015610c745780601f10610c4b57610100808354040283529160200191610c74565b820191905f5260205f20905b815481529060010190602001808311610c5757829003601f168201915b50505050509050919050565b5f60055f8473ffffffffffffffffffffffffffffffffffffffff1673ffffffffffffffffffffffffffffffffffffffff1681526020019081526020015f205f8373ffffffffffffffffffffffffffffffffffffffff1673ffffffffffffffffffffffffffffffffffffffff1681526020019081526020015f205f9054906101000a900460ff16905092915050565b610d16610f01565b5f73ffffffffffffffffffffffffffffffffffffffff168173ffffffffffffffffffffffffffffffffffffffff1603610d84576040517f08c379a0000000000000000000000000000000000000000000000000000000008152600401610d7b90612882565b60405180910390fd5b610d8d81611395565b50565b5f7f01ffc9a7000000000000000000000000000000000000000000000000000000007bffffffffffffffffffffffffffffffffffffffffffffffffffffffff1916827bffffffffffffffffffffffffffffffffffffffffffffffffffffffff1916149050919050565b610e0281610f7f565b610e41576040517f08c379a0000000000000000000000000000000000000000000000000000000008152600401610e38906125fc565b60405180910390fd5b50565b5f33905090565b8160045f8381526020019081526020015f205f6101000a81548173ffffffffffffffffffffffffffffffffffffffff021916908373ffffffffffffffffffffffffffffffffffffffff160217905550808273ffffffffffffffffffffffffffffffffffffffff16610ebb836108a1565b73ffffffffffffffffffffffffffffffffffffffff167f8c5be1e5ebec7d5bd14f71427d1e84f3dd0314c0f7b2291e5b200ac8c7c3b92560405160405180910390a45050565b610f09610e44565b73ffffffffffffffffffffffffffffffffffffffff16610f27610a5c565b73ffffffffffffffffffffffffffffffffffffffff1614610f7d576040517f08c379a0000000000000000000000000000000000000000000000000000000008152600401610f74906128ea565b60405180910390fd5b565b5f8073ffffffffffffffffffffffffffffffffffffffff16610fa08361133f565b73ffffffffffffffffffffffffffffffffffffffff1614159050919050565b5f80610fca836108a1565b90508073ffffffffffffffffffffffffffffffffffffffff168473ffffffffffffffffffffffffffffffffffffffff16148061100c575061100b8185610c80565b5b8061104a57508373ffffffffffffffffffffffffffffffffffffffff1661103284610602565b73ffffffffffffffffffffffffffffffffffffffff16145b91505092915050565b8273ffffffffffffffffffffffffffffffffffffffff16611073826108a1565b73ffffffffffffffffffffffffffffffffffffffff16146110c9576040517f08c379a00000000000000000000000000000000000000000000000000000000081526004016110c090612978565b60405180910390fd5b5f73ffffffffffffffffffffffffffffffffffffffff168273ffffffffffffffffffffffffffffffffffffffff1603611137576040517f08c379a000000000000000000000000000000000000000000000000000000000815260040161112e90612a06565b60405180910390fd5b611144838383600161161b565b8273ffffffffffffffffffffffffffffffffffffffff16611164826108a1565b73ffffffffffffffffffffffffffffffffffffffff16146111ba576040517f08c379a00000000000000000000000000000000000000000000000000000000081526004016111b190612978565b60405180910390fd5b60045f8281526020019081526020015f205f6101000a81549073ffffffffffffffffffffffffffffffffffffffff0219169055600160035f8573ffffffffffffffffffffffffffffffffffffffff1673ffffffffffffffffffffffffffffffffffffffff1681526020019081526020015f205f8282540392505081905550600160035f8473ffffffffffffffffffffffffffffffffffffffff1673ffffffffffffffffffffffffffffffffffffffff1681526020019081526020015f205f82825401925050819055508160025f8381526020019081526020015f205f6101000a81548173ffffffffffffffffffffffffffffffffffffffff021916908373ffffffffffffffffffffffffffffffffffffffff160217905550808273ffffffffffffffffffffffffffffffffffffffff168473ffffffffffffffffffffffffffffffffffffffff167fddf252ad1be2c89b69c2b068fc378daa952ba7f163c4a11628f55a4df523b3ef60405160405180910390a461133a8383836001611621565b505050565b5f60025f8381526020019081526020015f205f9054906101000a900473ffffffffffffffffffffffffffffffffffffffff169050919050565b611391828260405180602001604052805f815250611627565b5050565b5f60065f9054906101000a900473ffffffffffffffffffffffffffffffffffffffff1690508160065f6101000a81548173ffffffffffffffffffffffffffffffffffffffff021916908373ffffffffffffffffffffffffffffffffffffffff1602179055508173ffffffffffffffffffffffffffffffffffffffff168173ffffffffffffffffffffffffffffffffffffffff167f8be0079c531659141344cd1fd0a4f28419497f9722a3daafe3b4186f6b6457e060405160405180910390a35050565b8173ffffffffffffffffffffffffffffffffffffffff168373ffffffffffffffffffffffffffffffffffffffff16036114c6576040517f08c379a00000000000000000000000000000000000000000000000000000000081526004016114bd90612a6e565b60405180910390fd5b8060055f8573ffffffffffffffffffffffffffffffffffffffff1673ffffffffffffffffffffffffffffffffffffffff1681526020019081526020015f205f8473ffffffffffffffffffffffffffffffffffffffff1673ffffffffffffffffffffffffffffffffffffffff1681526020019081526020015f205f6101000a81548160ff0219169083151502179055508173ffffffffffffffffffffffffffffffffffffffff168373ffffffffffffffffffffffffffffffffffffffff167f17307eab39ab6107e8899845ad3d59bd9653f200f220920489ca2b5937696c31836040516115b29190611ae3565b60405180910390a3505050565b6115ca848484611053565b6115d684848484611681565b611615576040517f08c379a000000000000000000000000000000000000000000000000000000000815260040161160c90612afc565b60405180910390fd5b50505050565b50505050565b50505050565b6116318383611803565b61163d5f848484611681565b61167c576040517f08c379a000000000000000000000000000000000000000000000000000000000815260040161167390612afc565b60405180910390fd5b505050565b5f6116a18473ffffffffffffffffffffffffffffffffffffffff16611a16565b156117f6578373ffffffffffffffffffffffffffffffffffffffff1663150b7a026116ca610e44565b8786866040518563ffffffff1660e01b81526004016116ec9493929190612b6c565b6020604051808303815f875af192505050801561172757506040513d601f19601f820116820180604052508101906117249190612bca565b60015b6117a6573d805f8114611755576040519150601f19603f3d011682016040523d82523d5f602084013e61175a565b606091505b505f81510361179e576040517f08c379a000000000000000000000000000000000000000000000000000000000815260040161179590612afc565b60405180910390fd5b805181602001fd5b63150b7a0260e01b7bffffffffffffffffffffffffffffffffffffffffffffffffffffffff1916817bffffffffffffffffffffffffffffffffffffffffffffffffffffffff1916149150506117fb565b600190505b949350505050565b5f73ffffffffffffffffffffffffffffffffffffffff168273ffffffffffffffffffffffffffffffffffffffff1603611871576040517f08c379a000000000000000000000000000000000000000000000000000000000815260040161186890612c3f565b60405180910390fd5b61187a81610f7f565b156118ba576040517f08c379a00000000000000000000000000000000000000000000000000000000081526004016118b190612ca7565b60405180910390fd5b6118c75f8383600161161b565b6118d081610f7f565b15611910576040517f08c379a000000000000000000000000000000000000000000000000000000000815260040161190790612ca7565b60405180910390fd5b600160035f8473ffffffffffffffffffffffffffffffffffffffff1673ffffffffffffffffffffffffffffffffffffffff1681526020019081526020015f205f82825401925050819055508160025f8381526020019081526020015f205f6101000a81548173ffffffffffffffffffffffffffffffffffffffff021916908373ffffffffffffffffffffffffffffffffffffffff160217905550808273ffffffffffffffffffffffffffffffffffffffff165f73ffffffffffffffffffffffffffffffffffffffff167fddf252ad1be2c89b69c2b068fc378daa952ba7f163c4a11628f55a4df523b3ef60405160405180910390a4611a125f83836001611621565b5050565b5f808273ffffffffffffffffffffffffffffffffffffffff163b119050919050565b5f604051905090565b5f80fd5b5f80fd5b5f7fffffffff0000000000000000000000000000000000000000000000000000000082169050919050565b611a7d81611a49565b8114611a87575f80fd5b50565b5f81359050611a9881611a74565b92915050565b5f60208284031215611ab357611ab2611a41565b5b5f611ac084828501611a8a565b91505092915050565b5f8115159050919050565b611add81611ac9565b82525050565b5f602082019050611af65f830184611ad4565b92915050565b5f81519050919050565b5f82825260208201905092915050565b5f5b83811015611b33578082015181840152602081019050611b18565b5f8484015250505050565b5f601f19601f8301169050919050565b5f611b5882611afc565b611b628185611b06565b9350611b72818560208601611b16565b611b7b81611b3e565b840191505092915050565b5f6020820190508181035f830152611b9e8184611b4e565b905092915050565b5f819050919050565b611bb881611ba6565b8114611bc2575f80fd5b50565b5f81359050611bd381611baf565b92915050565b5f60208284031215611bee57611bed611a41565b5b5f611bfb84828501611bc5565b91505092915050565b5f73ffffffffffffffffffffffffffffffffffffffff82169050919050565b5f611c2d82611c04565b9050919050565b611c3d81611c23565b82525050565b5f602082019050611c565f830184611c34565b92915050565b611c6581611c23565b8114611c6f575f80fd5b50565b5f81359050611c8081611c5c565b92915050565b5f8060408385031215611c9c57611c9b611a41565b5b5f611ca985828601611c72565b9250506020611cba85828601611bc5565b9150509250929050565b5f80fd5b5f80fd5b7f4e487b71000000000000000000000000000000000000000000000000000000005f52604160045260245ffd5b611d0282611b3e565b810181811067ffffffffffffffff82111715611d2157611d20611ccc565b5b80604052505050565b5f611d33611a38565b9050611d3f8282611cf9565b919050565b5f67ffffffffffffffff821115611d5e57611d5d611ccc565b5b611d6782611b3e565b9050602081019050919050565b828183375f83830152505050565b5f611d94611d8f84611d44565b611d2a565b905082815260208101848484011115611db057611daf611cc8565b5b611dbb848285611d74565b509392505050565b5f82601f830112611dd757611dd6611cc4565b5b8135611de7848260208601611d82565b91505092915050565b5f8060408385031215611e0657611e05611a41565b5b5f611e1385828601611bc5565b925050602083013567ffffffffffffffff811115611e3457611e33611a45565b5b611e4085828601611dc3565b9150509250929050565b5f805f60608486031215611e6157611e60611a41565b5b5f611e6e86828701611c72565b9350506020611e7f86828701611c72565b9250506040611e9086828701611bc5565b9150509250925092565b5f60208284031215611eaf57611eae611a41565b5b5f611ebc84828501611c72565b91505092915050565b611ece81611ba6565b82525050565b5f602082019050611ee75f830184611ec5565b92915050565b611ef681611ac9565b8114611f00575f80fd5b50565b5f81359050611f1181611eed565b92915050565b5f8060408385031215611f2d57611f2c611a41565b5b5f611f3a85828601611c72565b9250506020611f4b85828601611f03565b9150509250929050565b5f67ffffffffffffffff821115611f6f57611f6e611ccc565b5b611f7882611b3e565b9050602081019050919050565b5f611f97611f9284611f55565b611d2a565b905082815260208101848484011115611fb357611fb2611cc8565b5b611fbe848285611d74565b509392505050565b5f82601f830112611fda57611fd9611cc4565b5b8135611fea848260208601611f85565b91505092915050565b5f805f806080858703121561200b5761200a611a41565b5b5f61201887828801611c72565b945050602061202987828801611c72565b935050604061203a87828801611bc5565b925050606085013567ffffffffffffffff81111561205b5761205a611a45565b5b61206787828801611fc6565b91505092959194509250565b5f806040838503121561208957612088611a41565b5b5f61209685828601611c72565b92505060206120a785828601611c72565b9150509250929050565b7f4e487b71000000000000000000000000000000000000000000000000000000005f52602260045260245ffd5b5f60028204905060018216806120f557607f821691505b602082108103612108576121076120b1565b5b50919050565b7f4552433732313a20617070726f76616c20746f2063757272656e74206f776e655f8201527f7200000000000000000000000000000000000000000000000000000000000000602082015250565b5f612168602183611b06565b91506121738261210e565b604082019050919050565b5f6020820190508181035f8301526121958161215c565b9050919050565b7f4552433732313a20617070726f76652063616c6c6572206973206e6f7420746f5f8201527f6b656e206f776e6572206f7220617070726f76656420666f7220616c6c000000602082015250565b5f6121f6603d83611b06565b91506122018261219c565b604082019050919050565b5f6020820190508181035f830152612223816121ea565b9050919050565b7f4552433732313a2055524920736574206f66206e6f6e6578697374656e7420745f8201527f6f6b656e00000000000000000000000000000000000000000000000000000000602082015250565b5f612284602483611b06565b915061228f8261222a565b604082019050919050565b5f6020820190508181035f8301526122b181612278565b9050919050565b5f819050815f5260205f209050919050565b5f6020601f8301049050919050565b5f82821b905092915050565b5f600883026123147fffffffffffffffffffffffffffffffffffffffffffffffffffffffffffffffff826122d9565b61231e86836122d9565b95508019841693508086168417925050509392505050565b5f819050919050565b5f61235961235461234f84611ba6565b612336565b611ba6565b9050919050565b5f819050919050565b6123728361233f565b61238661237e82612360565b8484546122e5565b825550505050565b5f90565b61239a61238e565b6123a5818484612369565b505050565b5b818110156123c8576123bd5f82612392565b6001810190506123ab565b5050565b601f82111561240d576123de816122b8565b6123e7846122ca565b810160208510156123f6578190505b61240a612402856122ca565b8301826123aa565b50505b505050565b5f82821c905092915050565b5f61242d5f1984600802612412565b1980831691505092915050565b5f612445838361241e565b9150826002028217905092915050565b61245e82611afc565b67ffffffffffffffff81111561247757612476611ccc565b5b61248182546120de565b61248c8282856123cc565b5f60209050601f8311600181146124bd575f84156124ab578287015190505b6124b5858261243a565b86555061251c565b601f1984166124cb866122b8565b5f5b828110156124f2578489015182556001820191506020850194506020810190506124cd565b8683101561250f578489015161250b601f89168261241e565b8355505b6001600288020188555050505b505050505050565b7f4552433732313a2063616c6c6572206973206e6f7420746f6b656e206f776e655f8201527f72206f7220617070726f76656400000000000000000000000000000000000000602082015250565b5f61257e602d83611b06565b915061258982612524565b604082019050919050565b5f6020820190508181035f8301526125ab81612572565b9050919050565b7f4552433732313a20696e76616c696420746f6b656e20494400000000000000005f82015250565b5f6125e6601883611b06565b91506125f1826125b2565b602082019050919050565b5f6020820190508181035f830152612613816125da565b9050919050565b7f496e73756666696369656e74207061796d656e740000000000000000000000005f82015250565b5f61264e601483611b06565b91506126598261261a565b602082019050919050565b5f6020820190508181035f83015261267b81612642565b9050919050565b7f4e487b71000000000000000000000000000000000000000000000000000000005f52601160045260245ffd5b5f6126b982611ba6565b91507fffffffffffffffffffffffffffffffffffffffffffffffffffffffffffffffff82036126eb576126ea612682565b5b600182019050919050565b7f4552433732313a2061646472657373207a65726f206973206e6f7420612076615f8201527f6c6964206f776e65720000000000000000000000000000000000000000000000602082015250565b5f612750602983611b06565b915061275b826126f6565b604082019050919050565b5f6020820190508181035f83015261277d81612744565b9050919050565b7f4552433732313a2055524920717565727920666f72206e6f6e6578697374656e5f8201527f7420746f6b656e00000000000000000000000000000000000000000000000000602082015250565b5f6127de602783611b06565b91506127e982612784565b604082019050919050565b5f6020820190508181035f83015261280b816127d2565b9050919050565b7f4f776e61626c653a206e6577206f776e657220697320746865207a65726f20615f8201527f6464726573730000000000000000000000000000000000000000000000000000602082015250565b5f61286c602683611b06565b915061287782612812565b604082019050919050565b5f6020820190508181035f83015261289981612860565b9050919050565b7f4f776e61626c653a2063616c6c6572206973206e6f7420746865206f776e65725f82015250565b5f6128d4602083611b06565b91506128df826128a0565b602082019050919050565b5f6020820190508181035f830152612901816128c8565b9050919050565b7f4552433732313a207472616e736665722066726f6d20696e636f7272656374205f8201527f6f776e6572000000000000000000000000000000000000000000000000000000602082015250565b5f612962602583611b06565b915061296d82612908565b604082019050919050565b5f6020820190508181035f83015261298f81612956565b9050919050565b7f4552433732313a207472616e7366657220746f20746865207a65726f206164645f8201527f7265737300000000000000000000000000000000000000000000000000000000602082015250565b5f6129f0602483611b06565b91506129fb82612996565b604082019050919050565b5f6020820190508181035f830152612a1d816129e4565b9050919050565b7f4552433732313a20617070726f766520746f2063616c6c6572000000000000005f82015250565b5f612a58601983611b06565b9150612a6382612a24565b602082019050919050565b5f6020820190508181035f830152612a8581612a4c565b9050919050565b7f4552433732313a207472616e7366657220746f206e6f6e2045524337323152655f8201527f63656976657220696d706c656d656e7465720000000000000000000000000000602082015250565b5f612ae6603283611b06565b9150612af182612a8c565b604082019050919050565b5f6020820190508181035f830152612b1381612ada565b9050919050565b5f81519050919050565b5f82825260208201905092915050565b5f612b3e82612b1a565b612b488185612b24565b9350612b58818560208601611b16565b612b6181611b3e565b840191505092915050565b5f608082019050612b7f5f830187611c34565b612b8c6020830186611c34565b612b996040830185611ec5565b8181036060830152612bab8184612b34565b905095945050505050565b5f81519050612bc481611a74565b92915050565b5f60208284031215612bdf57612bde611a41565b5b5f612bec84828501612bb6565b91505092915050565b7f4552433732313a206d696e7420746f20746865207a65726f20616464726573735f82015250565b5f612c29602083611b06565b9150612c3482612bf5565b602082019050919050565b5f6020820190508181035f830152612c5681612c1d565b9050919050565b7f4552433732313a20746f6b656e20616c7265616479206d696e746564000000005f82015250565b5f612c91601c83611b06565b9150612c9c82612c5d565b602082019050919050565b5f6020820190508181035f830152612cbe81612c85565b905091905056fea26469706673582212204861476c09a2c7bae00df65c2f437b9cc878ab353ce8521b5a7ce96271f40ee564736f6c63430008140033","linkReferences":{}},"methodIdentifiers":{"MINT_PRICE()":"c002d23d","approve(address,uint256)":"095ea7b3","balanceOf(address)":"70a08231","getApproved(uint256)":"081812fc","isApprovedForAll(address,address)":"e985e9c5","mint(address)":"6a627842","name()":"06fdde03","owner()":"8da5cb5b","ownerOf(uint256)":"6352211e","renounceOwnership()":"715018a6","safeTransferFrom(address,address,uint256)":"42842e0e","safeTransferFrom(address,address,uint256,bytes)":"b88d4fde","setApprovalForAll(address,bool)":"a22cb465","setTokenURI(uint256,string)":"162094c4","supportsInterface(bytes4)":"01ffc9a7","symbol()":"95d89b41","tokenURI(uint256)":"c87b56dd","transferFrom(address,address,uint256)":"23b872dd","transferOwnership(address)":"f2fde38b","withdraw()":"3ccfd60b"},"id":36}