{"abi":[{"type":"constructor","inputs":[{"name":"_passportNFT","type":"address","internalType":"address"},{"name":"_wmonToken","type":"address","internalType":"address"},{"name":"_toursToken","type":"address","internalType":"address"},{"name":"_platformWallet","type":"address","internalType":"address"},{"name":"_approvalOracle","type":"address","internalType":"address"}],"stateMutability":"nonpayable"},{"type":"function","name":"AUTO_APPROVE_CREDIT","inputs":[],"outputs":[{"name":"","type":"uint256","internalType":"uint256"}],"stateMutability":"view"},{"type":"function","name":"AUTO_COMPLETE_PERIOD","inputs":[],"outputs":[{"name":"","type":"uint256","internalType":"uint256"}],"stateMutability":"view"},{"type":"function","name":"BOOKING_COOLDOWN","inputs":[],"outputs":[{"name":"","type":"uint256","internalType":"uint256"}],"stateMutability":"view"},{"type":"function","name":"GUIDE_PERCENTAGE","inputs":[],"outputs":[{"name":"","type":"uint256","internalType":"uint256"}],"stateMutability":"view"},{"type":"function","name":"MANUAL_APPROVE_CREDIT","inputs":[],"outputs":[{"name":"","type":"uint256","internalType":"uint256"}],"stateMutability":"view"},{"type":"function","name":"MAXIMUM_HOURLY_RATE","inputs":[],"outputs":[{"name":"","type":"uint256","internalType":"uint256"}],"stateMutability":"view"},{"type":"function","name":"MAX_BOOKINGS_PER_DAY","inputs":[],"outputs":[{"name":"","type":"uint256","internalType":"uint256"}],"stateMutability":"view"},{"type":"function","name":"MAX_CANCELLATION_RATE","inputs":[],"outputs":[{"name":"","type":"uint256","internalType":"uint256"}],"stateMutability":"view"},{"type":"function","name":"MAX_COUNTRIES","inputs":[],"outputs":[{"name":"","type":"uint256","internalType":"uint256"}],"stateMutability":"view"},{"type":"function","name":"MAX_FREE_CONNECTIONS_PER_DAY","inputs":[],"outputs":[{"name":"","type":"uint256","internalType":"uint256"}],"stateMutability":"view"},{"type":"function","name":"MAX_FREE_SKIPS_PER_DAY","inputs":[],"outputs":[{"name":"","type":"uint256","internalType":"uint256"}],"stateMutability":"view"},{"type":"function","name":"MAX_HOURS_PER_BOOKING","inputs":[],"outputs":[{"name":"","type":"uint256","internalType":"uint256"}],"stateMutability":"view"},{"type":"function","name":"MINIMUM_HOURLY_RATE","inputs":[],"outputs":[{"name":"","type":"uint256","internalType":"uint256"}],"stateMutability":"view"},{"type":"function","name":"PAID_CONNECTION_FEE","inputs":[],"outputs":[{"name":"","type":"uint256","internalType":"uint256"}],"stateMutability":"view"},{"type":"function","name":"PAID_SKIP_FEE","inputs":[],"outputs":[{"name":"","type":"uint256","internalType":"uint256"}],"stateMutability":"view"},{"type":"function","name":"PLATFORM_PERCENTAGE","inputs":[],"outputs":[{"name":"","type":"uint256","internalType":"uint256"}],"stateMutability":"view"},{"type":"function","name":"acceptConnection","inputs":[{"name":"connectionId","type":"uint256","internalType":"uint256"},{"name":"response","type":"string","internalType":"string"}],"outputs":[],"stateMutability":"nonpayable"},{"type":"function","name":"addCountry","inputs":[{"name":"country","type":"string","internalType":"string"}],"outputs":[],"stateMutability":"nonpayable"},{"type":"function","name":"addressToGuideFid","inputs":[{"name":"","type":"address","internalType":"address"}],"outputs":[{"name":"","type":"uint256","internalType":"uint256"}],"stateMutability":"view"},{"type":"function","name":"applications","inputs":[{"name":"","type":"uint256","internalType":"uint256"}],"outputs":[{"name":"guideFid","type":"uint256","internalType":"uint256"},{"name":"applicantAddress","type":"address","internalType":"address"},{"name":"passportTokenId","type":"uint256","internalType":"uint256"},{"name":"creditScore","type":"uint256","internalType":"uint256"},{"name":"bio","type":"string","internalType":"string"},{"name":"profileImageIPFS","type":"string","internalType":"string"},{"name":"videoCallProofIPFS","type":"string","internalType":"string"},{"name":"appliedAt","type":"uint256","internalType":"uint256"},{"name":"status","type":"uint8","internalType":"enum TourGuideRegistry.GuideApplicationStatus"},{"name":"adminNotes","type":"string","internalType":"string"}],"stateMutability":"view"},{"type":"function","name":"applyForGuideApproval","inputs":[{"name":"guideFid","type":"uint256","internalType":"uint256"},{"name":"passportTokenId","type":"uint256","internalType":"uint256"},{"name":"countries","type":"string[]","internalType":"string[]"},{"name":"bio","type":"string","internalType":"string"},{"name":"profileImageIPFS","type":"string","internalType":"string"}],"outputs":[],"stateMutability":"nonpayable"},{"type":"function","name":"approvalOracle","inputs":[],"outputs":[{"name":"","type":"address","internalType":"address"}],"stateMutability":"view"},{"type":"function","name":"approveGuideApplication","inputs":[{"name":"guideFid","type":"uint256","internalType":"uint256"},{"name":"videoCallProofIPFS","type":"string","internalType":"string"},{"name":"adminNotes","type":"string","internalType":"string"}],"outputs":[],"stateMutability":"nonpayable"},{"type":"function","name":"approvedGuides","inputs":[{"name":"","type":"uint256","internalType":"uint256"}],"outputs":[{"name":"","type":"bool","internalType":"bool"}],"stateMutability":"view"},{"type":"function","name":"autoCompleteTour","inputs":[{"name":"bookingId","type":"uint256","internalType":"uint256"}],"outputs":[],"stateMutability":"nonpayable"},{"type":"function","name":"bookGuide","inputs":[{"name":"travelerFid","type":"uint256","internalType":"uint256"},{"name":"guideFid","type":"uint256","internalType":"uint256"},{"name":"hoursDuration","type":"uint256","internalType":"uint256"},{"name":"paymentToken","type":"address","internalType":"address"}],"outputs":[{"name":"","type":"uint256","internalType":"uint256"}],"stateMutability":"nonpayable"},{"type":"function","name":"bookGuideFor","inputs":[{"name":"beneficiary","type":"address","internalType":"address"},{"name":"travelerFid","type":"uint256","internalType":"uint256"},{"name":"guideFid","type":"uint256","internalType":"uint256"},{"name":"hoursDuration","type":"uint256","internalType":"uint256"},{"name":"paymentToken","type":"address","internalType":"address"}],"outputs":[{"name":"bookingId","type":"uint256","internalType":"uint256"}],"stateMutability":"nonpayable"},{"type":"function","name":"bookings","inputs":[{"name":"","type":"uint256","internalType":"uint256"}],"outputs":[{"name":"bookingId","type":"uint256","internalType":"uint256"},{"name":"guideFid","type":"uint256","internalType":"uint256"},{"name":"travelerFid","type":"uint256","internalType":"uint256"},{"name":"guideAddress","type":"address","internalType":"address"},{"name":"travelerAddress","type":"address","internalType":"address"},{"name":"hoursDuration","type":"uint256","internalType":"uint256"},{"name":"totalCost","type":"uint256","internalType":"uint256"},{"name":"paymentToken","type":"address","internalType":"address"},{"name":"bookedAt","type":"uint256","internalType":"uint256"},{"name":"guideMarkedComplete","type":"bool","internalType":"bool"},{"name":"guideMarkedAt","type":"uint256","internalType":"uint256"},{"name":"guideProofIPFS","type":"string","internalType":"string"},{"name":"completed","type":"bool","internalType":"bool"},{"name":"completedAt","type":"uint256","internalType":"uint256"},{"name":"autoCompleted","type":"bool","internalType":"bool"},{"name":"travelerRating","type":"uint256","internalType":"uint256"},{"name":"travelerReviewIPFS","type":"string","internalType":"string"},{"name":"guideRating","type":"uint256","internalType":"uint256"},{"name":"guideReviewIPFS","type":"string","internalType":"string"},{"name":"cancelled","type":"bool","internalType":"bool"},{"name":"cancelledBy","type":"address","internalType":"address"},{"name":"cancellationReason","type":"string","internalType":"string"}],"stateMutability":"view"},{"type":"function","name":"canAutoComplete","inputs":[{"name":"bookingId","type":"uint256","internalType":"uint256"}],"outputs":[{"name":"","type":"bool","internalType":"bool"}],"stateMutability":"view"},{"type":"function","name":"cancelBooking","inputs":[{"name":"bookingId","type":"uint256","internalType":"uint256"},{"name":"reason","type":"string","internalType":"string"}],"outputs":[],"stateMutability":"nonpayable"},{"type":"function","name":"confirmAndRate","inputs":[{"name":"bookingId","type":"uint256","internalType":"uint256"},{"name":"rating","type":"uint256","internalType":"uint256"},{"name":"reviewIPFS","type":"string","internalType":"string"}],"outputs":[],"stateMutability":"nonpayable"},{"type":"function","name":"connections","inputs":[{"name":"","type":"uint256","internalType":"uint256"}],"outputs":[{"name":"connectionId","type":"uint256","internalType":"uint256"},{"name":"travelerFid","type":"uint256","internalType":"uint256"},{"name":"guideFid","type":"uint256","internalType":"uint256"},{"name":"travelerAddress","type":"address","internalType":"address"},{"name":"guideAddress","type":"address","internalType":"address"},{"name":"meetupType","type":"string","internalType":"string"},{"name":"message","type":"string","internalType":"string"},{"name":"requestedAt","type":"uint256","internalType":"uint256"},{"name":"accepted","type":"bool","internalType":"bool"},{"name":"declined","type":"bool","internalType":"bool"},{"name":"guideResponse","type":"string","internalType":"string"}],"stateMutability":"view"},{"type":"function","name":"dailyBookingCount","inputs":[{"name":"","type":"uint256","internalType":"uint256"},{"name":"","type":"uint256","internalType":"uint256"}],"outputs":[{"name":"","type":"uint256","internalType":"uint256"}],"stateMutability":"view"},{"type":"function","name":"dailyConnectionCount","inputs":[{"name":"","type":"uint256","internalType":"uint256"},{"name":"","type":"uint256","internalType":"uint256"}],"outputs":[{"name":"","type":"uint256","internalType":"uint256"}],"stateMutability":"view"},{"type":"function","name":"dailySkipCount","inputs":[{"name":"","type":"uint256","internalType":"uint256"},{"name":"","type":"uint256","internalType":"uint256"}],"outputs":[{"name":"","type":"uint256","internalType":"uint256"}],"stateMutability":"view"},{"type":"function","name":"declineConnection","inputs":[{"name":"connectionId","type":"uint256","internalType":"uint256"},{"name":"response","type":"string","internalType":"string"}],"outputs":[],"stateMutability":"nonpayable"},{"type":"function","name":"emergencyWithdraw","inputs":[{"name":"token","type":"address","internalType":"address"},{"name":"amount","type":"uint256","internalType":"uint256"}],"outputs":[],"stateMutability":"nonpayable"},{"type":"function","name":"getApplication","inputs":[{"name":"guideFid","type":"uint256","internalType":"uint256"}],"outputs":[{"name":"","type":"tuple","internalType":"struct TourGuideRegistry.GuideApplication","components":[{"name":"guideFid","type":"uint256","internalType":"uint256"},{"name":"applicantAddress","type":"address","internalType":"address"},{"name":"passportTokenId","type":"uint256","internalType":"uint256"},{"name":"creditScore","type":"uint256","internalType":"uint256"},{"name":"countries","type":"string[]","internalType":"string[]"},{"name":"bio","type":"string","internalType":"string"},{"name":"profileImageIPFS","type":"string","internalType":"string"},{"name":"videoCallProofIPFS","type":"string","internalType":"string"},{"name":"appliedAt","type":"uint256","internalType":"uint256"},{"name":"status","type":"uint8","internalType":"enum TourGuideRegistry.GuideApplicationStatus"},{"name":"adminNotes","type":"string","internalType":"string"}]}],"stateMutability":"view"},{"type":"function","name":"getBooking","inputs":[{"name":"bookingId","type":"uint256","internalType":"uint256"}],"outputs":[{"name":"","type":"tuple","internalType":"struct TourGuideRegistry.Booking","components":[{"name":"bookingId","type":"uint256","internalType":"uint256"},{"name":"guideFid","type":"uint256","internalType":"uint256"},{"name":"travelerFid","type":"uint256","internalType":"uint256"},{"name":"guideAddress","type":"address","internalType":"address"},{"name":"travelerAddress","type":"address","internalType":"address"},{"name":"hoursDuration","type":"uint256","internalType":"uint256"},{"name":"totalCost","type":"uint256","internalType":"uint256"},{"name":"paymentToken","type":"address","internalType":"address"},{"name":"bookedAt","type":"uint256","internalType":"uint256"},{"name":"guideMarkedComplete","type":"bool","internalType":"bool"},{"name":"guideMarkedAt","type":"uint256","internalType":"uint256"},{"name":"guideProofIPFS","type":"string","internalType":"string"},{"name":"completed","type":"bool","internalType":"bool"},{"name":"completedAt","type":"uint256","internalType":"uint256"},{"name":"autoCompleted","type":"bool","internalType":"bool"},{"name":"travelerRating","type":"uint256","internalType":"uint256"},{"name":"travelerReviewIPFS","type":"string","internalType":"string"},{"name":"guideRating","type":"uint256","internalType":"uint256"},{"name":"guideReviewIPFS","type":"string","internalType":"string"},{"name":"cancelled","type":"bool","internalType":"bool"},{"name":"cancelledBy","type":"address","internalType":"address"},{"name":"cancellationReason","type":"string","internalType":"string"}]}],"stateMutability":"view"},{"type":"function","name":"getConnection","inputs":[{"name":"connectionId","type":"uint256","internalType":"uint256"}],"outputs":[{"name":"","type":"tuple","internalType":"struct TourGuideRegistry.Connection","components":[{"name":"connectionId","type":"uint256","internalType":"uint256"},{"name":"travelerFid","type":"uint256","internalType":"uint256"},{"name":"guideFid","type":"uint256","internalType":"uint256"},{"name":"travelerAddress","type":"address","internalType":"address"},{"name":"guideAddress","type":"address","internalType":"address"},{"name":"meetupType","type":"string","internalType":"string"},{"name":"message","type":"string","internalType":"string"},{"name":"requestedAt","type":"uint256","internalType":"uint256"},{"name":"accepted","type":"bool","internalType":"bool"},{"name":"declined","type":"bool","internalType":"bool"},{"name":"guideResponse","type":"string","internalType":"string"}]}],"stateMutability":"view"},{"type":"function","name":"getDailyBookingCount","inputs":[{"name":"travelerFid","type":"uint256","internalType":"uint256"}],"outputs":[{"name":"","type":"uint256","internalType":"uint256"}],"stateMutability":"view"},{"type":"function","name":"getDailyConnectionCount","inputs":[{"name":"travelerFid","type":"uint256","internalType":"uint256"}],"outputs":[{"name":"","type":"uint256","internalType":"uint256"}],"stateMutability":"view"},{"type":"function","name":"getDailySkipCount","inputs":[{"name":"travelerFid","type":"uint256","internalType":"uint256"}],"outputs":[{"name":"","type":"uint256","internalType":"uint256"}],"stateMutability":"view"},{"type":"function","name":"getGuide","inputs":[{"name":"guideFid","type":"uint256","internalType":"uint256"}],"outputs":[{"name":"","type":"tuple","internalType":"struct TourGuideRegistry.TourGuide","components":[{"name":"guideFid","type":"uint256","internalType":"uint256"},{"name":"guideAddress","type":"address","internalType":"address"},{"name":"passportTokenId","type":"uint256","internalType":"uint256"},{"name":"countries","type":"string[]","internalType":"string[]"},{"name":"hourlyRateWMON","type":"uint256","internalType":"uint256"},{"name":"hourlyRateTOURS","type":"uint256","internalType":"uint256"},{"name":"bio","type":"string","internalType":"string"},{"name":"profileImageIPFS","type":"string","internalType":"string"},{"name":"registeredAt","type":"uint256","internalType":"uint256"},{"name":"totalBookings","type":"uint256","internalType":"uint256"},{"name":"totalCompletedTours","type":"uint256","internalType":"uint256"},{"name":"cancellationCount","type":"uint256","internalType":"uint256"},{"name":"totalEarningsWMON","type":"uint256","internalType":"uint256"},{"name":"totalEarningsTOURS","type":"uint256","internalType":"uint256"},{"name":"active","type":"bool","internalType":"bool"},{"name":"averageRating","type":"uint256","internalType":"uint256"},{"name":"ratingCount","type":"uint256","internalType":"uint256"},{"name":"suspended","type":"bool","internalType":"bool"}]}],"stateMutability":"view"},{"type":"function","name":"getGuideBookings","inputs":[{"name":"guideFid","type":"uint256","internalType":"uint256"}],"outputs":[{"name":"","type":"uint256[]","internalType":"uint256[]"}],"stateMutability":"view"},{"type":"function","name":"getGuideByAddress","inputs":[{"name":"guideAddress","type":"address","internalType":"address"}],"outputs":[{"name":"guideFid","type":"uint256","internalType":"uint256"},{"name":"guide","type":"tuple","internalType":"struct TourGuideRegistry.TourGuide","components":[{"name":"guideFid","type":"uint256","internalType":"uint256"},{"name":"guideAddress","type":"address","internalType":"address"},{"name":"passportTokenId","type":"uint256","internalType":"uint256"},{"name":"countries","type":"string[]","internalType":"string[]"},{"name":"hourlyRateWMON","type":"uint256","internalType":"uint256"},{"name":"hourlyRateTOURS","type":"uint256","internalType":"uint256"},{"name":"bio","type":"string","internalType":"string"},{"name":"profileImageIPFS","type":"string","internalType":"string"},{"name":"registeredAt","type":"uint256","internalType":"uint256"},{"name":"totalBookings","type":"uint256","internalType":"uint256"},{"name":"totalCompletedTours","type":"uint256","internalType":"uint256"},{"name":"cancellationCount","type":"uint256","internalType":"uint256"},{"name":"totalEarningsWMON","type":"uint256","internalType":"uint256"},{"name":"totalEarningsTOURS","type":"uint256","internalType":"uint256"},{"name":"active","type":"bool","internalType":"bool"},{"name":"averageRating","type":"uint256","internalType":"uint256"},{"name":"ratingCount","type":"uint256","internalType":"uint256"},{"name":"suspended","type":"bool","internalType":"bool"}]}],"stateMutability":"view"},{"type":"function","name":"getGuideConnectionRequests","inputs":[{"name":"guideFid","type":"uint256","internalType":"uint256"}],"outputs":[{"name":"","type":"uint256[]","internalType":"uint256[]"}],"stateMutability":"view"},{"type":"function","name":"getGuideCountries","inputs":[{"name":"guideFid","type":"uint256","internalType":"uint256"}],"outputs":[{"name":"","type":"string[]","internalType":"string[]"}],"stateMutability":"view"},{"type":"function","name":"getGuidesByCountry","inputs":[{"name":"country","type":"string","internalType":"string"}],"outputs":[{"name":"","type":"uint256[]","internalType":"uint256[]"}],"stateMutability":"view"},{"type":"function","name":"getPendingApplications","inputs":[],"outputs":[{"name":"","type":"uint256[]","internalType":"uint256[]"}],"stateMutability":"view"},{"type":"function","name":"getRemainingBookings","inputs":[{"name":"travelerFid","type":"uint256","internalType":"uint256"}],"outputs":[{"name":"","type":"uint256","internalType":"uint256"}],"stateMutability":"view"},{"type":"function","name":"getRemainingFreeConnections","inputs":[{"name":"travelerFid","type":"uint256","internalType":"uint256"}],"outputs":[{"name":"","type":"uint256","internalType":"uint256"}],"stateMutability":"view"},{"type":"function","name":"getRemainingFreeSkips","inputs":[{"name":"travelerFid","type":"uint256","internalType":"uint256"}],"outputs":[{"name":"","type":"uint256","internalType":"uint256"}],"stateMutability":"view"},{"type":"function","name":"getTravelerBookings","inputs":[{"name":"travelerFid","type":"uint256","internalType":"uint256"}],"outputs":[{"name":"","type":"uint256[]","internalType":"uint256[]"}],"stateMutability":"view"},{"type":"function","name":"getTravelerConnections","inputs":[{"name":"travelerFid","type":"uint256","internalType":"uint256"}],"outputs":[{"name":"","type":"uint256[]","internalType":"uint256[]"}],"stateMutability":"view"},{"type":"function","name":"guideBookings","inputs":[{"name":"","type":"uint256","internalType":"uint256"},{"name":"","type":"uint256","internalType":"uint256"}],"outputs":[{"name":"","type":"uint256","internalType":"uint256"}],"stateMutability":"view"},{"type":"function","name":"guideConnectionRequests","inputs":[{"name":"","type":"uint256","internalType":"uint256"},{"name":"","type":"uint256","internalType":"uint256"}],"outputs":[{"name":"","type":"uint256","internalType":"uint256"}],"stateMutability":"view"},{"type":"function","name":"guides","inputs":[{"name":"","type":"uint256","internalType":"uint256"}],"outputs":[{"name":"guideFid","type":"uint256","internalType":"uint256"},{"name":"guideAddress","type":"address","internalType":"address"},{"name":"passportTokenId","type":"uint256","internalType":"uint256"},{"name":"hourlyRateWMON","type":"uint256","internalType":"uint256"},{"name":"hourlyRateTOURS","type":"uint256","internalType":"uint256"},{"name":"bio","type":"string","internalType":"string"},{"name":"profileImageIPFS","type":"string","internalType":"string"},{"name":"registeredAt","type":"uint256","internalType":"uint256"},{"name":"totalBookings","type":"uint256","internalType":"uint256"},{"name":"totalCompletedTours","type":"uint256","internalType":"uint256"},{"name":"cancellationCount","type":"uint256","internalType":"uint256"},{"name":"totalEarningsWMON","type":"uint256","internalType":"uint256"},{"name":"totalEarningsTOURS","type":"uint256","internalType":"uint256"},{"name":"active","type":"bool","internalType":"bool"},{"name":"averageRating","type":"uint256","internalType":"uint256"},{"name":"ratingCount","type":"uint256","internalType":"uint256"},{"name":"suspended","type":"bool","internalType":"bool"}],"stateMutability":"view"},{"type":"function","name":"hasApplied","inputs":[{"name":"","type":"uint256","internalType":"uint256"}],"outputs":[{"name":"","type":"bool","internalType":"bool"}],"stateMutability":"view"},{"type":"function","name":"hasBooked","inputs":[{"name":"","type":"uint256","internalType":"uint256"},{"name":"","type":"uint256","internalType":"uint256"}],"outputs":[{"name":"","type":"bool","internalType":"bool"}],"stateMutability":"view"},{"type":"function","name":"isGuide","inputs":[{"name":"guideFid","type":"uint256","internalType":"uint256"}],"outputs":[{"name":"","type":"bool","internalType":"bool"}],"stateMutability":"view"},{"type":"function","name":"isRegisteredGuide","inputs":[{"name":"","type":"uint256","internalType":"uint256"}],"outputs":[{"name":"","type":"bool","internalType":"bool"}],"stateMutability":"view"},{"type":"function","name":"lastBookingTime","inputs":[{"name":"","type":"address","internalType":"address"}],"outputs":[{"name":"","type":"uint256","internalType":"uint256"}],"stateMutability":"view"},{"type":"function","name":"leaveGuideReview","inputs":[{"name":"bookingId","type":"uint256","internalType":"uint256"},{"name":"rating","type":"uint256","internalType":"uint256"},{"name":"reviewIPFS","type":"string","internalType":"string"}],"outputs":[],"stateMutability":"nonpayable"},{"type":"function","name":"markTourComplete","inputs":[{"name":"bookingId","type":"uint256","internalType":"uint256"},{"name":"proofIPFS","type":"string","internalType":"string"}],"outputs":[],"stateMutability":"nonpayable"},{"type":"function","name":"owner","inputs":[],"outputs":[{"name":"","type":"address","internalType":"address"}],"stateMutability":"view"},{"type":"function","name":"passportNFT","inputs":[],"outputs":[{"name":"","type":"address","internalType":"contract IPassportNFT"}],"stateMutability":"view"},{"type":"function","name":"passportToGuide","inputs":[{"name":"","type":"uint256","internalType":"uint256"}],"outputs":[{"name":"","type":"uint256","internalType":"uint256"}],"stateMutability":"view"},{"type":"function","name":"pause","inputs":[],"outputs":[],"stateMutability":"nonpayable"},{"type":"function","name":"paused","inputs":[],"outputs":[{"name":"","type":"bool","internalType":"bool"}],"stateMutability":"view"},{"type":"function","name":"pendingApplicationIds","inputs":[{"name":"","type":"uint256","internalType":"uint256"}],"outputs":[{"name":"","type":"uint256","internalType":"uint256"}],"stateMutability":"view"},{"type":"function","name":"platformWallet","inputs":[],"outputs":[{"name":"","type":"address","internalType":"address"}],"stateMutability":"view"},{"type":"function","name":"registerGuide","inputs":[{"name":"guideFid","type":"uint256","internalType":"uint256"},{"name":"passportTokenId","type":"uint256","internalType":"uint256"},{"name":"countries","type":"string[]","internalType":"string[]"},{"name":"hourlyRateWMON","type":"uint256","internalType":"uint256"},{"name":"hourlyRateTOURS","type":"uint256","internalType":"uint256"},{"name":"bio","type":"string","internalType":"string"},{"name":"profileImageIPFS","type":"string","internalType":"string"}],"outputs":[],"stateMutability":"nonpayable"},{"type":"function","name":"reinstateGuide","inputs":[{"name":"guideFid","type":"uint256","internalType":"uint256"}],"outputs":[],"stateMutability":"nonpayable"},{"type":"function","name":"rejectGuideApplication","inputs":[{"name":"guideFid","type":"uint256","internalType":"uint256"},{"name":"reason","type":"string","internalType":"string"}],"outputs":[],"stateMutability":"nonpayable"},{"type":"function","name":"renounceOwnership","inputs":[],"outputs":[],"stateMutability":"nonpayable"},{"type":"function","name":"requestConnection","inputs":[{"name":"travelerFid","type":"uint256","internalType":"uint256"},{"name":"guideFid","type":"uint256","internalType":"uint256"},{"name":"meetupType","type":"string","internalType":"string"},{"name":"message","type":"string","internalType":"string"}],"outputs":[{"name":"connectionId","type":"uint256","internalType":"uint256"}],"stateMutability":"nonpayable"},{"type":"function","name":"setApprovalOracle","inputs":[{"name":"newOracle","type":"address","internalType":"address"}],"outputs":[],"stateMutability":"nonpayable"},{"type":"function","name":"skipGuide","inputs":[{"name":"travelerFid","type":"uint256","internalType":"uint256"},{"name":"guideFid","type":"uint256","internalType":"uint256"}],"outputs":[],"stateMutability":"nonpayable"},{"type":"function","name":"suspendGuide","inputs":[{"name":"guideFid","type":"uint256","internalType":"uint256"},{"name":"reason","type":"string","internalType":"string"}],"outputs":[],"stateMutability":"nonpayable"},{"type":"function","name":"toursToken","inputs":[],"outputs":[{"name":"","type":"address","internalType":"contract IERC20"}],"stateMutability":"view"},{"type":"function","name":"transferOwnership","inputs":[{"name":"newOwner","type":"address","internalType":"address"}],"outputs":[],"stateMutability":"nonpayable"},{"type":"function","name":"travelerBookings","inputs":[{"name":"","type":"uint256","internalType":"uint256"},{"name":"","type":"uint256","internalType":"uint256"}],"outputs":[{"name":"","type":"uint256","internalType":"uint256"}],"stateMutability":"view"},{"type":"function","name":"travelerConnections","inputs":[{"name":"","type":"uint256","internalType":"uint256"},{"name":"","type":"uint256","internalType":"uint256"}],"outputs":[{"name":"","type":"uint256","internalType":"uint256"}],"stateMutability":"view"},{"type":"function","name":"unpause","inputs":[],"outputs":[],"stateMutability":"nonpayable"},{"type":"function","name":"updateGuide","inputs":[{"name":"hourlyRateWMON","type":"uint256","internalType":"uint256"},{"name":"hourlyRateTOURS","type":"uint256","internalType":"uint256"},{"name":"bio","type":"string","internalType":"string"},{"name":"profileImageIPFS","type":"string","internalType":"string"},{"name":"active","type":"bool","internalType":"bool"}],"outputs":[],"stateMutability":"nonpayable"},{"type":"function","name":"updatePlatformWallet","inputs":[{"name":"newWallet","type":"address","internalType":"address"}],"outputs":[],"stateMutability":"nonpayable"},{"type":"function","name":"wmonToken","inputs":[],"outputs":[{"name":"","type":"address","internalType":"contract IERC20"}],"stateMutability":"view"},{"type":"event","name":"ApprovalOracleUpdated","inputs":[{"name":"oldOracle","type":"address","indexed":true,"internalType":"address"},{"name":"newOracle","type":"address","indexed":true,"internalType":"address"}],"anonymous":false},{"type":"event","name":"BookingCancelled","inputs":[{"name":"bookingId","type":"uint256","indexed":true,"internalType":"uint256"},{"name":"cancelledBy","type":"address","indexed":true,"internalType":"address"},{"name":"reason","type":"string","indexed":false,"internalType":"string"},{"name":"timestamp","type":"uint256","indexed":false,"internalType":"uint256"}],"anonymous":false},{"type":"event","name":"BookingCreated","inputs":[{"name":"bookingId","type":"uint256","indexed":true,"internalType":"uint256"},{"name":"guideFid","type":"uint256","indexed":true,"internalType":"uint256"},{"name":"travelerFid","type":"uint256","indexed":true,"internalType":"uint256"},{"name":"traveler","type":"address","indexed":false,"internalType":"address"},{"name":"hoursDuration","type":"uint256","indexed":false,"internalType":"uint256"},{"name":"totalCost","type":"uint256","indexed":false,"internalType":"uint256"},{"name":"paymentToken","type":"address","indexed":false,"internalType":"address"}],"anonymous":false},{"type":"event","name":"ConnectionAccepted","inputs":[{"name":"connectionId","type":"uint256","indexed":true,"internalType":"uint256"},{"name":"travelerFid","type":"uint256","indexed":true,"internalType":"uint256"},{"name":"guideFid","type":"uint256","indexed":true,"internalType":"uint256"}],"anonymous":false},{"type":"event","name":"ConnectionDeclined","inputs":[{"name":"connectionId","type":"uint256","indexed":true,"internalType":"uint256"},{"name":"travelerFid","type":"uint256","indexed":true,"internalType":"uint256"},{"name":"guideFid","type":"uint256","indexed":true,"internalType":"uint256"}],"anonymous":false},{"type":"event","name":"ConnectionRequested","inputs":[{"name":"connectionId","type":"uint256","indexed":true,"internalType":"uint256"},{"name":"travelerFid","type":"uint256","indexed":true,"internalType":"uint256"},{"name":"guideFid","type":"uint256","indexed":true,"internalType":"uint256"},{"name":"meetupType","type":"string","indexed":false,"internalType":"string"}],"anonymous":false},{"type":"event","name":"CountryAdded","inputs":[{"name":"guideFid","type":"uint256","indexed":true,"internalType":"uint256"},{"name":"country","type":"string","indexed":false,"internalType":"string"}],"anonymous":false},{"type":"event","name":"EmergencyWithdraw","inputs":[{"name":"token","type":"address","indexed":true,"internalType":"address"},{"name":"amount","type":"uint256","indexed":false,"internalType":"uint256"},{"name":"to","type":"address","indexed":true,"internalType":"address"}],"anonymous":false},{"type":"event","name":"GuideApplicationApproved","inputs":[{"name":"guideFid","type":"uint256","indexed":true,"internalType":"uint256"},{"name":"adminNotes","type":"string","indexed":false,"internalType":"string"}],"anonymous":false},{"type":"event","name":"GuideApplicationRejected","inputs":[{"name":"guideFid","type":"uint256","indexed":true,"internalType":"uint256"},{"name":"reason","type":"string","indexed":false,"internalType":"string"}],"anonymous":false},{"type":"event","name":"GuideApplicationSubmitted","inputs":[{"name":"guideFid","type":"uint256","indexed":true,"internalType":"uint256"},{"name":"applicant","type":"address","indexed":true,"internalType":"address"},{"name":"creditScore","type":"uint256","indexed":false,"internalType":"uint256"}],"anonymous":false},{"type":"event","name":"GuideRated","inputs":[{"name":"guideFid","type":"uint256","indexed":true,"internalType":"uint256"},{"name":"newAverageRating","type":"uint256","indexed":false,"internalType":"uint256"},{"name":"ratingCount","type":"uint256","indexed":false,"internalType":"uint256"}],"anonymous":false},{"type":"event","name":"GuideRegistered","inputs":[{"name":"guideFid","type":"uint256","indexed":true,"internalType":"uint256"},{"name":"guideAddress","type":"address","indexed":true,"internalType":"address"},{"name":"passportTokenId","type":"uint256","indexed":true,"internalType":"uint256"},{"name":"countries","type":"string[]","indexed":false,"internalType":"string[]"}],"anonymous":false},{"type":"event","name":"GuideReinstated","inputs":[{"name":"guideFid","type":"uint256","indexed":true,"internalType":"uint256"}],"anonymous":false},{"type":"event","name":"GuideReviewedTraveler","inputs":[{"name":"bookingId","type":"uint256","indexed":true,"internalType":"uint256"},{"name":"travelerFid","type":"uint256","indexed":true,"internalType":"uint256"},{"name":"rating","type":"uint256","indexed":false,"internalType":"uint256"}],"anonymous":false},{"type":"event","name":"GuideSkipped","inputs":[{"name":"travelerFid","type":"uint256","indexed":true,"internalType":"uint256"},{"name":"guideFid","type":"uint256","indexed":true,"internalType":"uint256"},{"name":"paidSkip","type":"bool","indexed":false,"internalType":"bool"}],"anonymous":false},{"type":"event","name":"GuideSuspended","inputs":[{"name":"guideFid","type":"uint256","indexed":true,"internalType":"uint256"},{"name":"reason","type":"string","indexed":false,"internalType":"string"}],"anonymous":false},{"type":"event","name":"GuideUpdated","inputs":[{"name":"guideFid","type":"uint256","indexed":true,"internalType":"uint256"},{"name":"hourlyRateWMON","type":"uint256","indexed":false,"internalType":"uint256"},{"name":"hourlyRateTOURS","type":"uint256","indexed":false,"internalType":"uint256"},{"name":"active","type":"bool","indexed":false,"internalType":"bool"}],"anonymous":false},{"type":"event","name":"OwnershipTransferred","inputs":[{"name":"previousOwner","type":"address","indexed":true,"internalType":"address"},{"name":"newOwner","type":"address","indexed":true,"internalType":"address"}],"anonymous":false},{"type":"event","name":"PaidConnectionRequested","inputs":[{"name":"connectionId","type":"uint256","indexed":true,"internalType":"uint256"},{"name":"travelerFid","type":"uint256","indexed":true,"internalType":"uint256"},{"name":"fee","type":"uint256","indexed":false,"internalType":"uint256"}],"anonymous":false},{"type":"event","name":"PaidSkipProcessed","inputs":[{"name":"travelerFid","type":"uint256","indexed":true,"internalType":"uint256"},{"name":"fee","type":"uint256","indexed":false,"internalType":"uint256"}],"anonymous":false},{"type":"event","name":"Paused","inputs":[{"name":"account","type":"address","indexed":false,"internalType":"address"}],"anonymous":false},{"type":"event","name":"PlatformWalletUpdated","inputs":[{"name":"oldWallet","type":"address","indexed":true,"internalType":"address"},{"name":"newWallet","type":"address","indexed":true,"internalType":"address"}],"anonymous":false},{"type":"event","name":"TourCompleted","inputs":[{"name":"bookingId","type":"uint256","indexed":true,"internalType":"uint256"},{"name":"guideFid","type":"uint256","indexed":true,"internalType":"uint256"},{"name":"travelerFid","type":"uint256","indexed":true,"internalType":"uint256"},{"name":"rating","type":"uint256","indexed":false,"internalType":"uint256"},{"name":"autoCompleted","type":"bool","indexed":false,"internalType":"bool"}],"anonymous":false},{"type":"event","name":"TourMarkedComplete","inputs":[{"name":"bookingId","type":"uint256","indexed":true,"internalType":"uint256"},{"name":"guideFid","type":"uint256","indexed":true,"internalType":"uint256"},{"name":"proofIPFS","type":"string","indexed":false,"internalType":"string"},{"name":"timestamp","type":"uint256","indexed":false,"internalType":"uint256"}],"anonymous":false},{"type":"event","name":"Unpaused","inputs":[{"name":"account","type":"address","indexed":false,"internalType":"address"}],"anonymous":false},{"type":"error","name":"EnforcedPause","inputs":[]},{"type":"error","name":"ExpectedPause","inputs":[]},{"type":"error","name":"OwnableInvalidOwner","inputs":[{"name":"owner","type":"address","internalType":"address"}]},{"type":"error","name":"OwnableUnauthorizedAccount","inputs":[{"name":"account","type":"address","internalType":"address"}]},{"type":"error","name":"ReentrancyGuardReentrantCall","inputs":[]},{"type":"error","name":"SafeERC20FailedOperation","inputs":[{"name":"token","type":"address","internalType":"address"}]}],"bytecode":{"object":"0x60e0346200029657601f62005f6738819003918201601f191683019291906001600160401b038411838510176200029a578160a0928492604096875283398101031262000296576200005181620002ae565b906200006060208201620002ae565b906200006e848201620002ae565b906200008b60806200008360608401620002ae565b9201620002ae565b9133156200027f575f549060018060a01b03948560018060a01b03199733898616175f55895194823391167f8be0079c531659141344cd1fd0a4f28419497f9722a3daafe3b4186f6b6457e05f80a360018055169283156200023d575085169081156200020a578516918215620001d65785841615620001925760805260a05260c05260028054610100600160a81b03191660089290921b610100600160a81b031691909117905560038054909316911617905551615ca39081620002c48239608051818181612be0015281816132730152613e23015260a051818181610a3e0152818161162f01528181614fe301526153ea015260c0518181816129aa01526154b20152f35b875162461bcd60e51b815260206004820152601760248201527f496e76616c696420706c6174666f726d2077616c6c65740000000000000000006044820152606490fd5b875162461bcd60e51b815260206004820152600d60248201526c496e76616c696420544f55525360981b6044820152606490fd5b875162461bcd60e51b815260206004820152600c60248201526b24b73b30b634b2102ba6a7a760a11b6044820152606490fd5b62461bcd60e51b815260206004820152601460248201527f496e76616c69642070617373706f7274204e46540000000000000000000000006044820152606490fd5b8551631e4fbdf760e01b81525f6004820152602490fd5b5f80fd5b634e487b7160e01b5f52604160045260245ffd5b51906001600160a01b0382168203620002965756fe610240806040526004361015610013575f80fd5b5f3560e01c908162b22315146141e4575080630153b314146140af57806309886c9c146140945780630b3d82b4146140655780630ed0037b14613d04578063120fc9fd14613c9b578063144a6f7b14613c335780631607d93314613bff5780631b868ecd14613a625780631c0b88e114613a455780631c4a7a7614613a2a5780631dab301e146137de5780631e6c401c146137c35780631ec3081e146137a15780631f2f4bfd146135af5780631fa6abda14613517578063211ceff8146134e85780632734bbab146134985780632d7e73211461343057806331086cee146132d1578063311d2948146132a257806332d8dd871461325e5780633d06b900146131775780633f4ba83a1461310e5780634ae4408f146130d65780634d0d258314612ae457806351db383214612a8b57806351ddaced14612a5c578063544d632d14612a41578063560effb1146129d95780635997124b146129955780635b4e6f2c1461283a5780635c42974d146128015780635c975abb146127df57806365054718146126c45780636630d3ab1461264c57806367bed593146126145780636a5c841a146122a95780636aedf02c14612270578063715018a61461221957806371de8a32146121cd57806372155223146121a5578063749ae7d0146121765780637502bedb1461215b578063755230ba146120d85780637fb221df146120bd578063807e3f1114612078578063816998ea1461205d5780638281fd8914611f9a57806382c40ea914611f6b57806383a5b24114611f3c5780638456cb5914611ee35780638da5cb5b14611ebc5780639586906614611d4f57806395ccea6714611c6a578063974a17e2146117f95780639d5f32d214611710578063a0e09b23146116e1578063a51f49f714611505578063a5827ca6146114e7578063a5d51c5114611339578063aa11bb3c1461131e578063ada4ef3014611269578063b354f70c14611264578063b5ec752d14611264578063ba7a897d14611246578063bdad22f5146111d2578063bf1fe51814611199578063c28131e31461117e578063c5634a9b14610f9c578063c87e435914610e2a578063ce7c577314610e0c578063cebd6d4914610d9b578063cf960c0a14610c42578063cfb96bd814610a6d578063d08610fc14610a29578063d27d559f14610838578063d2e38161146107f7578063da4726f4146107d3578063dfefadff146106db578063e552100a1461069e578063e581f41b14610674578063ed1b4e9e14610659578063ee7d713314610575578063f2fde38b146104f0578063f57b0bf51461042f578063f8cdb4c3146104145763fa2af9da146103e4575f80fd5b34610410575f3660031901126104105760025460405160089190911c6001600160a01b03168152602090f35b5f80fd5b34610410575f366003190112610410576020604051603c8152f35b346104105761043d366145b5565b61044561595d565b61044d615980565b815f52600e6020526104ac60405f20916104698354151561576f565b61048060018060a01b036004850154163314614dda565b600883016001815460ff811615806104e1575b61049c906157bb565b60ff191617905560098301614bff565b60026001820154910154917f044ecec41b9f4ab9581b92a9b35ec078a5a4375aef801458bf94aa1185a84e895f80a460018055005b50600881901c60ff1615610493565b34610410576020366003190112610410576105096143c6565b610511615ba6565b6001600160a01b0390811690811561055d575f54826001600160601b0360a01b8216175f55167f8be0079c531659141344cd1fd0a4f28419497f9722a3daafe3b4186f6b6457e05f80a3005b604051631e4fbdf760e01b81525f6004820152602490fd5b3461041057610583366145b5565b5f546105a490336001600160a01b039182161490811561064b575b50614e34565b815f52600960205260405f206009810191825460ff81169260038410156106375782600a61060c927f79ddd76ab7067c258b5415847cd13ef13de0eb6da36b7f157ab27d4f99ac0032976105fb6106329815614e80565b60ff19958616600217905501614bff565b845f52600a60205260405f20908154169055604051918291602083526020830190614512565b0390a2005b634e487b7160e01b5f52602160045260245ffd5b90506003541633148461059e565b34610410575f366003190112610410576020604051605a8152f35b34610410576020366003190112610410576004355f526007602052602060405f2054604051908152f35b34610410576106ac3661420e565b905f52601060205260405f208054821015610410576020916106cd916145a0565b90546040519160031b1c8152f35b34610410576020366003190112610410576004355f52600960205260405f20805490600160a01b6001900360018201541690600281015492600382015491600581016107269061444f565b6107326006830161444f565b61073e6007840161444f565b91600884015494600985015460ff1694600a0161075a9061444f565b96604051998a99610140938b5260208b015260408a01526060890152806080890152870161078791614512565b86810360a088015261079891614512565b85810360c08701526107a991614512565b9160e085015261010084016107bd91614593565b8281036101208401526107cf91614512565b0390f35b34610410575f36600319011261041057602060405169021e19e0c9bab24000008152f35b34610410576080366003190112610410576064356001600160a01b03811681036104105761083060209160443560243560043533614eba565b604051908152f35b3461041057610846366145b5565b9061084f61595d565b610857615980565b805f526020906013825260405f209261087284541515614729565b61088360ff600c86015416156147b9565b6013840193845460ff81166109f05760ff6009830154166109bc576003820180546001600160a01b0392908316331480156109ad575b80156109a1575b1561096b576001600160a81b0319163360081b610100600160a81b031617600117909655939492937f56c87abd8d1a6e16339a44b3b5ee9fb2b0677e93bcad3b83c25117f705eeaa43936109178460148501614bff565b54163314610948575b5061093660405191604083526040830190614512565b9342908201528033940390a360018055005b600101545f5260048452600b60405f2001610963815461483e565b905584610920565b60405162461bcd60e51b815260048101889052600e60248201526d139bdd08185d5d1a1bdc9a5e995960921b6044820152606490fd5b50825f541633146108c0565b508260048501541633146108b9565b60405162461bcd60e51b815260048101869052600c60248201526b151bdd5c881cdd185c9d195960a21b6044820152606490fd5b60405162461bcd60e51b8152600481018690526011602482015270105b1c9958591e4818d85b98d95b1b1959607a1b6044820152606490fd5b34610410575f366003190112610410576040517f00000000000000000000000000000000000000000000000000000000000000006001600160a01b03168152602090f35b34610410576020366003190112610410576004355f52601360205260405f2060405190610a9982614240565b80548252600181015460208301526002810154604083015260038101546001600160a01b039081166060840152600482015481166080840152600582015460a0840152600682015460c08401526007820154811660e08401526008820154610100840152600982015460ff1615156101208401908152600a830154610140850190815293909290610b2c600b830161444f565b610160820152610bc3601460ff600c850154169361018084019415158552600d8101546101a085015260ff600e8201541615156101c0850152600f8101546101e0850152610b7c6010820161444f565b6102008501526011810154610220850152610b996012820161444f565b61024085015260138101549561026085019660ff81161515885260081c166102808501520161444f565b6102a08201525115159283610c37575b5082610c2d575b5081610c23575b5080610bf5575b6020906040519015158152f35b505162093a808101809111610c0f57602090421015610be8565b634e487b7160e01b5f52601160045260245ffd5b9050511582610be1565b5115915083610bda565b511515925084610bd3565b346104105760208060031936011261041057600435610c5f6157fb565b50805f5260058252610c7760ff60405f205416614d97565b805f5260048252610c9260ff601160405f2001541615614b6d565b5f526004815260405f209060ff601160405193610cae8561425c565b8054855260018101546001600160a01b03168486015260028101546040860152610cda60038201614cfc565b606086015260048101546080860152600581015460a0860152610cff6006820161444f565b60c0860152610d106007820161444f565b60e086015260088101546101008601526009810154610120860152600a810154610140860152600b810154610160860152600c810154610180860152600d8101546101a086015282600e8201541615156101c0860152600f8101546101e0860152601081015461020086015201541615156102208301526107cf6040519282849384528301906145e7565b3461041057602036600319011261041057600435610db7615ba6565b805f526005602052610dcf60ff60405f205416614d97565b805f526004602052601160405f200160ff1981541690557f093487c03c72febf7ab47a49658551cd6c8a11323df3159561659307f09bbc3f5f80a2005b3461041057602036600319011261041057602061083060043561592b565b3461041057602080600319360112610410576004356001600160401b03811161041057610e5b903690600401614301565b90610e64615980565b335f526008815260405f205491825f5260058252610e8860ff60405f205416614b30565b825f5260048252600360405f20610eac3360018060a01b0360018401541614614bab565b0180546032811015610f6757600160401b811015610f5357610ed3916001820181556145a0565b929092610f4057610f05827fb5233a73590788ee000164d1300f7e5be8c122747d7e3bb0d8baaf8a84b86a5a94614bff565b610f2c8460405183818651610f1d8183858b016144f1565b81016006815203019020614d63565b610632604051928284938452830190614512565b634e487b7160e01b5f525f60045260245ffd5b634e487b7160e01b5f52604160045260245ffd5b60405162461bcd60e51b815260048101859052600d60248201526c4d617820636f756e747269657360981b6044820152606490fd5b34610410576020366003190112610410576004356060610140604051610fc181614224565b5f81525f60208201525f60408201525f838201525f60808201528260a08201528260c08201525f60e08201525f6101008201525f6101208201520152805f52600e60205261101460405f2054151561576f565b5f52600e6020526107cf60405f206110bc60096040519261103484614224565b80548452600181015460208501526002810154604085015260038101546001600160a01b03908116606086015260048201541660808501526110786005820161444f565b60a08501526110896006820161444f565b60c0850152600781015460e085015260ff6008820154818116151561010087015260081c1615156101208501520161444f565b6101408201526040519182916020835280516020840152602081015160408401526040810151606084015260018060a01b03606082015116608084015260018060a01b0360808201511660a084015260a0810151611128610160918260c0870152610180860190614512565b9061014061114860c085015193601f1994858983030160e08a0152614512565b9360e081015161010088015261010081015115156101208801526101208101511515828801520151918584030190850152614512565b34610410575f366003190112610410576020604051601e8152f35b34610410576020366003190112610410576004355f52601660205260405f206201518042045f52602052602060405f2054604051908152f35b3461041057602080600319360112610410576004355f52600f60205260405f20906040519081602084549182815201935f5260205f20915f905b82821061122f576107cf85611223818903826142ae565b604051918291826143dc565b83548652948501946001938401939091019061120c565b346104105760203660031901126104105760206108306004356158f9565b614707565b34610410576020366003190112610410576112826143c6565b61128a615ba6565b6001600160a01b038181169182156112e85760028054610100600160a81b03198116600893841b610100600160a81b031617909155901c167ff84f6b525c89a18c80bbbc0c62a7eb5390956d6b8432ab067b49963a98f8c38f5f80a3005b60405162461bcd60e51b815260206004820152600e60248201526d125b9d985b1a59081dd85b1b195d60921b6044820152606490fd5b34610410575f36600319011261041057602060405160148152f35b3461041057611347366146d5565b61134f61595d565b611357615980565b6113656101f483111561587f565b825f52601360205260405f2061137d81541515614729565b60048101546001600160a01b031633036114af576002937f652c767642a14cb171697446ebf40113c1ac14cbb471a3b11845da7bb109dc9c9361140e6040946113cc60ff60098701541661476d565b600c8501600181546113e160ff8216156147b9565b6113f260ff60138a015416156147f9565b60ff191617905542600d86015582600f86015560108501614bff565b600183019283545f526004602052845f2092600a840161142e815461483e565b90557feb451b9b7ccc47d4ad995516a0d2f76d154482cf4d10cf17666328a76c17d1d086600f86019661148860108954980161147e611478896114738454809d614d50565b614831565b9961483e565b9889809255614e16565b80985554998a9401549481519081525f6020820152a482519182526020820152a260018055005b60405162461bcd60e51b815260206004820152601060248201526f2737ba103a3432903a3930bb32b632b960811b6044820152606490fd5b346104105760203660031901126104105760206108306004356158c2565b34610410576115133661420e565b9061151c61595d565b611524615980565b801515806116d1575b6115369061484c565b811515806116c1575b6115489061484c565b81811461168557815f527f3ace750b79c1173a7f3a83f1fa557d72d802a1bce6e067f18dbcebf99505d57e60206005815261158960ff60405f205416614d97565b620151804204835f526017825260405f20815f52825260405f20549060145f9210156115df575b845f526017835260405f20905f52825260405f206115ce815461483e565b90556040519015158152a360018055005b6002546040516323b872dd60e01b8582015233602482015260089190911c6001600160a01b03166044820152674563918244f400006064808301829052825292506116539061162d81614293565b7f0000000000000000000000000000000000000000000000000000000000000000615c13565b847f4ec3ba722dc6647ac9f3b01d915d07975292ecdf9a102beb573154776f54e37d84600194604051908152a26115b0565b60405162461bcd60e51b815260206004820152601460248201527321b0b73737ba1039b5b4b8103cb7bab939b2b63360611b6044820152606490fd5b506001600160401b03821061153f565b506001600160401b03811061152d565b34610410576116ef3661420e565b905f52601760205260405f20905f52602052602060405f2054604051908152f35b346104105761171e366146d5565b61172992919261595d565b611731615980565b61173f6101f484111561587f565b815f52601360205260405f2061175781541515614729565b61176e60018060a01b036003830154163314614dda565b60ff600c82015416156117c4576002816117b47f91ae476642df0617a263f0391bdb55ce40b751f8dc0582b1bddc175728539c0694876011602096015560128301614bff565b015493604051908152a360018055005b60405162461bcd60e51b815260206004820152600d60248201526c139bdd0818dbdb5c1b195d1959609a1b6044820152606490fd5b346104105760803660031901126104105760246001600160401b03813560043560443583811161041057611831903690600401614301565b9260649384358281116104105761184f611882913690600401614301565b9261185861595d565b611860615980565b84151580611c61575b6118729061484c565b8515159081611c57575b5061484c565b838314611c1457835f52602095600587526118a360ff60405f205416614d97565b845f52600487526118be60ff601160405f2001541615614b6d565b81518015159081611c08575b5015611bd05782518015159081611bc3575b5015611b815762015180420495845f526011885260405f20875f528852600560405f20541015611ae1575b5050600d546119159061483e565b94859283600d55855f526004885283600160a01b60019003898160405f2060010154166040519461194586614224565b848652828601938a855260408701928c8452606088013381526080890191825260a08901928b845260c08a0194855260e08a01954287526101008b01985f8a526101208c01985f8a526040519b8d8d61199d81614278565b5f9052610140019c8d525f52600e905260405f209b518c555160018c01555160028b01558060038b01925116916001600160601b0360a01b928382541617905560048a01925116908254161790555160058701906119fa91614bff565b51611a089060068701614bff565b5160078501556008840191511515611a2c90839060ff801983541691151516179055565b51815490151560081b61ff001661ff001990911617905551611a5091600901614bff565b845f52600f87528260405f2090611a6691614d63565b835f52601087528260405f2090611a7c91614d63565b835f526011875260405f20905f52865260405f208054611a9b9061483e565b90556040518091878252878201611ab191614512565b037fc07f2e535a94dd512df10ef3fd6cb18ca7393c7b7f4d0375ff9248bcea8fc80a91a460018055604051908152f35b6002546040516323b872dd60e01b8a820152338482015260089190911c6001600160a01b03166044820152678ac7230489e80000828201819052918152611b2b9061162d81614293565b600d549160018301809311611b6e5750907f4223316c5232985bdb27f4337984c77699daede5fe81c4a2b726b9d7ca54675f888693604051908152a38680611907565b634e487b7160e01b5f9081526011600452fd5b86601b87926040519262461bcd60e51b845260048401528201527f4d657373616765206d75737420626520312d35303020636861727300000000006044820152fd5b6101f491501115886118dc565b86601387926040519262461bcd60e51b8452600484015282015272496e76616c6964206d6565747570207479706560681b6044820152fd5b603291501115886118ca565b60405162461bcd60e51b815260206004820152601c818801527f43616e6e6f7420636f6e6e656374207769746820796f757273656c660000000060448201528590fd5b905085108861187c565b50808510611869565b3461041057604036600319011261041057611c836143c6565b60243590611c8f615ba6565b6001600160a01b03908116908115611d1a575f5460405163a9059cbb60e01b602082015290821660248201526044808201859052815260808101916001600160401b03831182841017610f5357611d0d6020927faaeda929aa102e867049528ec7cd2499e3a2f8846e736ae7935f234dfbf500d99460405285615c13565b5f541693604051908152a3005b60405162461bcd60e51b815260206004820152600d60248201526c24b73b30b634b2103a37b5b2b760991b6044820152606490fd5b346104105760208060031936011261041057611d696143c6565b6107cf611d746157fb565b6001600160a01b039283165f9081526008855260409020549283151580611ea7575b611db2575b5060408051948594855284015260408301906145e7565b9050825f526004845260ff601160405f2060405193611dd08561425c565b815485526001820154168785015260028101546040850152611df460038201614cfc565b606085015260048101546080850152600581015460a0850152611e196006820161444f565b60c0850152611e2a6007820161444f565b60e085015260088101546101008501526009810154610120850152600a810154610140850152600b810154610160850152600c810154610180850152600d8101546101a085015282600e8201541615156101c0850152600f8101546101e08501526010810154610200850152015416151561022082015284611d9b565b50835f526005855260ff60405f205416611d96565b34610410575f366003190112610410575f546040516001600160a01b039091168152602090f35b34610410575f36600319011261041057611efb615ba6565b611f03615980565b600160ff1960025416176002557f62e78cea01bee320cd4e420270b5ea74000d11b0c9f74754ebdbfc544b05a2586020604051338152a1005b34610410576020366003190112610410576004355f52600a602052602060ff60405f2054166040519015158152f35b34610410576020366003190112610410576004355f52600b602052602060ff60405f2054166040519015158152f35b3461041057611fa8366145b5565b611fb061595d565b611fb8615980565b815f52600e60205261201960405f2091611fd48354151561576f565b611feb60018060a01b036004850154163314614dda565b60088301610100815460ff8116158061204e575b612008906157bb565b61ff00191617905560098301614bff565b60026001820154910154917f5f2d80a398884305f230c17aa5ea8488cf9c98afb46cf88f112d4ade29cc37c55f80a460018055005b50600881901c60ff1615611fff565b34610410575f36600319011261041057602060405160038152f35b346104105760a0366003190112610410576120916143c6565b608435906001600160a01b03821682036104105760209161083091606435906044359060243590614eba565b34610410575f36600319011261041057602060405160328152f35b34610410576106327fe006a980db049049365d79315e415995dcea6f287777e9bd276458dc640f040b61210a366145b5565b612115939193615ba6565b835f52600560205261212d60ff60405f205416614d97565b835f526004602052601160405f2001600160ff19825416179055604051918291602083526020830190614512565b34610410575f36600319011261041057602060405160648152f35b34610410576121843661420e565b905f52601560205260405f208054821015610410576020916106cd916145a0565b34610410575f366003190112610410576003546040516001600160a01b039091168152602090f35b34610410576020366003190112610410576004355f52600560205260ff60405f20541680612202576020906040519015158152f35b50600460205260405f206011015460ff1615610be8565b34610410575f36600319011261041057612231615ba6565b5f80546001600160a01b0319811682556001600160a01b03167f8be0079c531659141344cd1fd0a4f28419497f9722a3daafe3b4186f6b6457e08280a3005b34610410576020366003190112610410576004355f52601160205260405f206201518042045f52602052602060405f2054604051908152f35b346104105760203660031901126104105760606102a06040516122cb81614240565b5f81525f60208201525f60408201525f838201525f60808201525f60a08201525f60c08201525f60e08201525f6101008201525f6101208201525f610140820152826101608201525f6101808201525f6101a08201525f6101c08201525f6101e0820152826102008201525f610220820152826102408201525f6102608201525f61028082015201526004355f52601360205261236d60405f20541515614729565b6004355f5260136020526107cf60405f206124ae60146040519261239084614240565b80548452600181015460208501526002810154604085015260038101546001600160a01b039081166060860152600482015481166080860152600582015460a0860152600682015460c086015260078201541660e08501526008810154610100850152600981015460ff161515610120850152600a81015461014085015261241a600b820161444f565b61016085015260ff600c820154161515610180850152600d8101546101a085015260ff600e8201541615156101c0850152600f8101546101e08501526124626010820161444f565b610200850152601181015461022085015261247f6012820161444f565b610240850152601381015460ff8116151561026086015260081c6001600160a01b03166102808501520161444f565b6102a08201526040519182916020835280516020840152602081015160408401526040810151606084015260018060a01b03606082015116608084015260018060a01b0360808201511660a084015260a081015160c084015260c081015160e084015260018060a01b0360e08201511661010084015261010081015161012084015261012081015115156101408401526101408101516101608401526125676101608201516102c06101808601526102e0850190614512565b61018082015115156101a08501526101a08201516101c08501526101c082015115156101e08501526101e08201516102008501526102a06125e16125bf61020085015193601f199485898303016102208a0152614512565b6102208501516102408801526102408501518488830301610260890152614512565b92610260810151151561028087015260018060a01b036102808201511682870152015190848303016102c0850152614512565b34610410576020366003190112610410576001600160a01b036126356143c6565b165f526008602052602060405f2054604051908152f35b34610410575f3660031901126104105760405180600c5491828152602080910192600c5f527fdf6966c971051c3d54ec59162606531493a51404a002842f56009d7e5cf4a8c7915f905b8282106126ad576107cf85611223818903826142ae565b835486529485019460019384019390910190612696565b34610410576060366003190112610410576004356001600160401b03602435818111610410576126f8903690600401614301565b9060443590811161041057612711903690600401614301565b5f5461273190336001600160a01b03918216149081156127d15750614e34565b825f52600960205260405f2090600982019283549060ff821690600382101561063757600a610632956127a286937f4507f8b6a821680ca8a31c738b61208178802822d9e086acb26a5dd48ce9f1439961278e6127a89715614e80565b60ff19978816600117905560078301614bff565b01614bff565b845f52600b602052600160405f2091825416179055604051918291602083526020830190614512565b90506003541633148561059e565b34610410575f36600319011261041057602060ff600254166040519015158152f35b34610410576020366003190112610410576004355f52601760205260405f206201518042045f52602052602060405f2054604051908152f35b3461041057612848366145b5565b9061285161595d565b612859615980565b805f52601360205260405f2061287181541515614729565b61288860018060a01b036003830154163314614dda565b61289960ff600c83015416156147b9565b6128aa60ff601383015416156147f9565b60098101805460ff811661295f57845115612929577f551fb42b85e60d9a2174cd69117ab02d6838655d3489ce2f4ae9cf08e02f42ba9261291a926001809360ff191617905542600a82015561290386600b8301614bff565b015493604051918291604083526040830190614512565b4260208301520390a360018055005b60405162461bcd60e51b815260206004820152600e60248201526d141c9bdbd9881c995c5d5a5c995960921b6044820152606490fd5b60405162461bcd60e51b815260206004820152600e60248201526d105b1c9958591e481b585c9ad95960921b6044820152606490fd5b34610410575f366003190112610410576040517f00000000000000000000000000000000000000000000000000000000000000006001600160a01b03168152602090f35b3461041057602080600319360112610410576004355f52601060205260405f20906040519081602084549182815201935f5260205f20915f905b828210612a2a576107cf85611223818903826142ae565b835486529485019460019384019390910190612a13565b34610410575f36600319011261041057602060405160c88152f35b34610410576020366003190112610410576004355f526005602052602060ff60405f2054166040519015158152f35b3461041057602036600319011261041057600435805f526005602052612ab760ff60405f205416614d97565b5f5260046020526107cf612ad0600360405f2001614cfc565b604051918291602083526020830190614537565b346104105760a0366003190112610410576001600160401b0360243560443582811161041057612b18903690600401614347565b9160643581811161041057612b31903690600401614301565b9260843582811161041057612b4d612b6f913690600401614301565b92612b5661595d565b612b5e615980565b600435151590816130ca575061484c565b6004355f526005602052612b8a60ff60405f20541615614886565b6004355f52600a60205260ff60405f20541661308f57612bb581518015159081613083575b506148c7565b612bca84518015159081613076575b5061494b565b6040516331a9108f60e11b8152600481018490527f00000000000000000000000000000000000000000000000000000000000000006001600160a01b03169490602081602481895afa801561301157612c35915f91613047575b506001600160a01b031633146149b6565b604051630c33fa2b60e31b815260048101859052945f86602481845afa90811561301157612c6f6020926024985f9161301c575b50614aec565b60405196878092630ed5acb560e21b82528860048301525afa948515613011575f95612fdd575b5060648510612f985760c8851015612f475760405193612cb585614224565b600435855260208501933385526040860191825260608601928784526080870194855260a087015260c0860152604051612cee81614278565b5f815260e0860152426101008601525f610120860152604051612d1081614278565b5f81526101408601526004355f52600960205260405f209385518555600185019060018060a01b039051166001600160601b0360a01b82541617905551600284015551600383015551805190600160401b8211610f53576004830154826004850155808310612ed2575b50602001600483015f5260205f205f915b838310612eb55750505050612da760a083015160058301614bff565b612db860c083015160068301614bff565b612dc960e083015160078301614bff565b6101008201516008820155600981019061012083015192600384101561063757610140600a91612e0b9460ff199660ff88835416911617905501519101614bff565b6004355f52600a602052600160405f2091825416179055600c54600160401b811015610f53576001810180600c55811015612ea157600c5f52600435907fdf6966c971051c3d54ec59162606531493a51404a002842f56009d7e5cf4a8c7015560405190815233907fb81cb47704d8c69d70b165d61a776b35c661b7d32229866ca3b2e8f787c34590602060043592a360018055005b634e487b7160e01b5f52603260045260245ffd5b6001602082612ec683945186614bff565b01920192019190612d8b565b600484015f5260205f20908382015b8183018110612ef1575050612d7a565b80612efe60019254614417565b80612f0b575b5001612ee1565b601f908181118414612f235750505f81555b89612f04565b612f3e5f9284845260208420920160051c8201858301614be9565b81835555612f1d565b60405162461bcd60e51b815260206004820152602360248201527f5573652072656769737465724775696465282920666f72203230302b20637265604482015262191a5d60ea1b6064820152608490fd5b60405162461bcd60e51b815260206004820152601860248201527f4e656564206174206c65617374203130302063726564697400000000000000006044820152606490fd5b9094506020813d602011613009575b81612ff9602093836142ae565b8101031261041057519385612c96565b3d9150612fec565b6040513d5f823e3d90fd5b61303891503d805f833e61303081836142ae565b810190614a39565b50509550505050505089612c69565b613069915060203d60201161306f575b61306181836142ae565b810190614997565b87612c24565b503d613057565b6103e89150111586612bc4565b60329150111586612baf565b60405162461bcd60e51b81526020600482015260136024820152724170706c69636174696f6e2070656e64696e6760681b6044820152606490fd5b9050600435108661187c565b34610410576020366003190112610410576001600160a01b036130f76143c6565b165f526018602052602060405f2054604051908152f35b34610410575f36600319011261041057613126615ba6565b60025460ff8116156131655760ff19166002557f5db9ee0a495bf2e6ff9c91a7834c1ba4fdd244a5e8aa4e537bd38aeae4b073aa6020604051338152a1005b604051638dfc202b60e01b8152600490fd5b34610410576020366003190112610410576004355f52600e6020526040805f206107cf815460018301549260ff60028201549161323360018060a01b03946132258660038501541696600485015416916131d36005860161444f565b906131e06006870161444f565b936007870154996131f8600960088a0154990161444f565b998e519e8f9e8f906101609682526020820152015260608d015260808c01528060a08c01528a0190614512565b9088820360c08a0152614512565b9360e0870152818116151561010087015260081c161515610120850152838203610140850152614512565b34610410575f366003190112610410576040517f00000000000000000000000000000000000000000000000000000000000000006001600160a01b03168152602090f35b34610410576132b03661420e565b905f52600f60205260405f208054821015610410576020916106cd916145a0565b34610410576020366003190112610410576004355f52600460205260405f20805490600160a01b60019003600182015416906002810154600482015460a052600582015460e052600682016133259061444f565b936133326007840161444f565b946008840154608052600984015495600a850154600b86015490600c87015492600d88015494600e89015460ff1696600f8a01549860108b01549a6011015460ff169b60405160c0526102209260c0515260c0516020015260c0516040015260a05160c0516060015260e05160c051608001528060c05160a0015260c051016133ba91614512565b60c051810360c05160c001526133cf91614512565b9860805160c05160e0015260c051610100015260c051610120015260c051610140015260c051610160015260c0516101800152151560c0516101a0015260c0516101c0015260c0516101e00152151560c051610200015260c051900360c051f35b3461041057602080600319360112610410576004355f52601560205260405f20906040519081602084549182815201935f5260205f20915f905b828210613481576107cf85611223818903826142ae565b83548652948501946001938401939091019061346a565b3461041057602036600319011261041057600435600c5481101561041057602090600c5f527fdf6966c971051c3d54ec59162606531493a51404a002842f56009d7e5cf4a8c70154604051908152f35b34610410576134f63661420e565b905f52601460205260405f208054821015610410576020916106cd916145a0565b3461041057602080600319360112610410576004356001600160401b038111610410578161354c61355f923690600401614301565b81604051938285809451938492016144f1565b810160068152030190209060405190818184549182815201935f52815f20915f905b828210613598576107cf85611223818903826142ae565b835486529485019460019384019390910190613581565b346104105760203660031901126104105760606101406040516135d181614224565b5f81525f60208201525f60408201525f838201528260808201528260a08201528260c08201528260e08201525f6101008201525f61012082015201526004355f52600960205260405f2060405161362781614224565b8154815260018201546001600160a01b03166020820152600282015460408201526003820154606082015261365e60048301614cfc565b608082015261366f6005830161444f565b60a08201526136806006830161444f565b60c08201526136916007830161444f565b60e0820152600882015461010082015260ff60098301541691600383101561063757600a6136c9916107cf946101208501520161444f565b610140820152604051918291602083528051602084015260018060a01b03602082015116604084015260408101516060840152606081015160808401526080810151613723610160918260a0870152610180860190614537565b9061014061377261375d61374960a087015195601f1996878b83030160c08c0152614512565b60c0870151868a83030160e08b0152614512565b60e086015185898303016101008a0152614512565b9361010081015161012088015261379161012082015183890190614593565b0151918584030190850152614512565b34610410575f366003190112610410576020604051674563918244f400008152f35b34610410575f36600319011261041057602060405160a88152f35b3461041057602036600319011261041057600480355f9081526013602052604090206102208190528054600182015460028301546101a05260038301546001600160a01b039081166101c0529383015484166102005260058301546006840154600785015460088601546009870154600a8801546139d9996139b49994169761397394909260ff169061387390600b0161444f565b9360ff600c6102205101541699600d6102205101549760ff600e6102205101541699600f6102205101549b6138ad6010610220510161444f565b610100526011610220510154610120526138cc6012610220510161444f565b6101605260136102205101546101e0526138eb6014610220510161444f565b61018052604051610140526102c097610140515260206101405101526101a05160406101405101526101c051606061014051015261020051608061014051015260a061014051015260c061014051015260e061014051015261010061014051015215156101206101405101526101408051015280610160610140510152610140510190614512565b9315156101806101405101526101a061014051015215156101c06101405101526101e061014051015261014051810361020061014051015261010051614512565b6101205161022061014051015261014051810361024061014051015261016051614512565b60ff6101e05116151561026061014051015260018060a01b036101e05160081c166102806101405101526101405181036102a0610140510152613a23610140519161018051614512565b0361014051f35b34610410575f36600319011261041057602060405160058152f35b34610410575f36600319011261041057602060405162093a808152f35b346104105760a0366003190112610410576004356001600160401b0360243560443582811161041057613a99903690600401614301565b9160643590811161041057613ab2903690600401614301565b92608435918215159081840361041057613bc7606094600e7f801dbc8199c860d0e052350a7f0e6d061e0acd384be45d037f68a794d36d773097613af461595d565b613afc615980565b335f526008602052613bb560405f20549a8b5f526005602052613b2560ff60405f205416614b30565b8b5f526004602052613b4160ff601160405f2001541615614b6d565b678ac7230489e8000089101580613beb575b613b5c9061490b565b613b7083518015159081613bde575061494b565b8b5f526004602052613bac60405f2093613b973360018060a01b0360018801541614614bab565b8a600486015588600586015560068501614bff565b60078301614bff565b019060ff801983541691151516179055565b60405192835260208301526040820152a260018055005b6103e8915011158e612bc4565b5069021e19e0c9bab2400000891115613b53565b3461041057613c0d3661420e565b905f52601960205260405f20905f52602052602060ff60405f2054166040519015158152f35b3461041057602080600319360112610410576004355f52601460205260405f20906040519081602084549182815201935f5260205f20915f905b828210613c84576107cf85611223818903826142ae565b835486529485019460019384019390910190613c6d565b3461041057602036600319011261041057613cb46143c6565b613cbc615ba6565b600380546001600160a01b039283166001600160a01b0319821681179092559091167f20acae7258d49319cf3c918b4ead478b1bf58171d6016823c9971407f3fee1fb5f80a3005b346104105760e03660031901126104105760246001600160401b03600435823560443583811161041057613d3c903690600401614347565b606435906084359260a43586811161041057613d5c903690600401614301565b9460c43587811161041057613d78613d98913690600401614301565b97613d8161595d565b613d89615980565b821515908161405b575061484c565b805f52602060058152613db260ff60405f20541615614886565b825f526007815260405f205461402057613dd68451801515908161401457506148c7565b678ac7230489e8000085101580614000575b613df19061490b565b613e0587518015159081613ff3575061494b565b6040516331a9108f60e11b8152600481018490526001600160a01b037f00000000000000000000000000000000000000000000000000000000000000008116919083828d81865afa90811561301157613e68925f92613fd4575b501633146149b6565b604051630c33fa2b60e31b815260048101859052905f828c81845afa90811561301157613e9e84928d945f91613fb15750614aec565b60405192838092630ed5acb560e21b82528860048301525afa908115613011575f91613f84575b5060c88110613ee0575050613eda975061599e565b60018055005b606490989694929795939198101580613f6f575b15613f2057600b985090613f0c95949392918761599e565b5f525260405f2060ff198154169055613eda565b60405162461bcd60e51b8152600481018990526022818b01527f4e656564203230302b20637265646974204f522061646d696e20617070726f76604482015261185b60f21b6064820152608490fd5b50865f52600b885260ff60405f205416613ef4565b90508181813d8311613faa575b613f9b81836142ae565b8101031261041057518a613ec5565b503d613f91565b613fc591503d805f833e61303081836142ae565b5050955050505050508e612c69565b613fec919250853d871161306f5761306181836142ae565b908d613e5f565b6103e8915011158b612bc4565b5069021e19e0c9bab2400000851115613de8565b6032915011158b612baf565b60649060158a6040519262461bcd60e51b845260048401528201527414185cdcdc1bdc9d08185b1c9958591e481d5cd959605a1b6044820152fd5b905082108a61187c565b34610410576140733661420e565b905f52601660205260405f20905f52602052602060405f2054604051908152f35b34610410575f366003190112610410576020604051600a8152f35b34610410576020366003190112610410576004356140cb61595d565b6140d3615980565b805f52601360205260405f20906140ec82541515614729565b6140fc60ff60098401541661476d565b600c820191825461411060ff8216156147b9565b61412160ff601384015416156147f9565b600a82015462093a808101809111610c0f5742106141b1576001938460ff1980931617905542600d83015583600e830191825416179055600283820180545f526004602052600a60405f2001614177815461483e565b905554910154917feb451b9b7ccc47d4ad995516a0d2f76d154482cf4d10cf17666328a76c17d1d0604080515f8152866020820152a48055005b60405162461bcd60e51b815260206004820152600b60248201526a576169742037206461797360a81b6044820152606490fd5b34610410576020906141f53661420e565b905f526011835260405f20905f52825260405f20548152f35b6040906003190112610410576004359060243590565b61016081019081106001600160401b03821117610f5357604052565b6102c081019081106001600160401b03821117610f5357604052565b61024081019081106001600160401b03821117610f5357604052565b602081019081106001600160401b03821117610f5357604052565b60a081019081106001600160401b03821117610f5357604052565b90601f801991011681019081106001600160401b03821117610f5357604052565b6001600160401b038111610f535760051b60200190565b6001600160401b038111610f5357601f01601f191660200190565b81601f8201121561041057803590614318826142e6565b9261432660405194856142ae565b8284526020838301011161041057815f926020809301838601378301015290565b81601f8201121561041057803591602091614361846142cf565b9361436f60405195866142ae565b808552838086019160051b8301019280841161041057848301915b84831061439a5750505050505090565b82356001600160401b0381116104105786916143bb84848094890101614301565b81520192019161438a565b600435906001600160a01b038216820361041057565b60209060206040818301928281528551809452019301915f5b828110614403575050505090565b8351855293810193928101926001016143f5565b90600182811c92168015614445575b602083101461443157565b634e487b7160e01b5f52602260045260245ffd5b91607f1691614426565b9060405191825f825461446181614417565b908184526020946001916001811690815f146144cf5750600114614491575b50505061448f925003836142ae565b565b5f90815285812095935091905b8183106144b757505061448f93508201015f8080614480565b8554888401850152948501948794509183019161449e565b9250505061448f94925060ff191682840152151560051b8201015f8080614480565b5f5b8381106145025750505f910152565b81810151838201526020016144f3565b9060209161452b815180928185528580860191016144f1565b601f01601f1916010190565b90808251908181526020809101926020808460051b8301019501935f915b8483106145655750505050505090565b9091929394958480614583600193601f198682030187528a51614512565b9801930193019194939290614555565b9060038210156106375752565b8054821015612ea1575f5260205f2001905f90565b9060406003198301126104105760043591602435906001600160401b038211610410576145e491600401614301565b90565b9061466061464e6146286102408551855260018060a01b03602087015116602086015260408601516040860152606086015190806060870152850190614537565b6080850151608085015260a085015160a085015260c085015184820360c0860152614512565b60e084015183820360e0850152614512565b91610100808201519083015261012080820151908301526101408082015190830152610160808201519083015261018080820151908301526101a080820151908301526101c0808201511515908301526101e08082015190830152610200808201519083015261022080910151151591015290565b6060600319820112610410576004359160243591604435906001600160401b038211610410576145e491600401614301565b34610410575f366003190112610410576020604051678ac7230489e800008152f35b1561473057565b60405162461bcd60e51b8152602060048201526015602482015274109bdbdada5b99c8191bd95cdb89dd08195e1a5cdd605a1b6044820152606490fd5b1561477457565b60405162461bcd60e51b815260206004820152601c60248201527f4775696465206861736e2774206d61726b656420636f6d706c657465000000006044820152606490fd5b156147c057565b60405162461bcd60e51b8152602060048201526011602482015270105b1c9958591e4818dbdb5c1b195d1959607a1b6044820152606490fd5b1561480057565b60405162461bcd60e51b815260206004820152600960248201526810d85b98d95b1b195960ba1b6044820152606490fd5b91908201809211610c0f57565b5f198114610c0f5760010190565b1561485357565b60405162461bcd60e51b815260206004820152600b60248201526a125b9d985b1a590811925160aa1b6044820152606490fd5b1561488d57565b60405162461bcd60e51b8152602060048201526012602482015271105b1c9958591e481c9959da5cdd195c995960721b6044820152606490fd5b156148ce57565b60405162461bcd60e51b8152602060048201526015602482015274125b9d985b1a590818dbdd5b9d1c9e4818dbdd5b9d605a1b6044820152606490fd5b1561491257565b60405162461bcd60e51b8152602060048201526011602482015270496e76616c696420574d4f4e207261746560781b6044820152606490fd5b1561495257565b60405162461bcd60e51b815260206004820152601860248201527f42696f206d75737420626520312d3130303020636861727300000000000000006044820152606490fd5b9081602091031261041057516001600160a01b03811681036104105790565b156149bd57565b60405162461bcd60e51b81526020600482015260126024820152712737ba103830b9b9b837b93a1037bbb732b960711b6044820152606490fd5b81601f82011215610410578051614a0d816142e6565b92614a1b60405194856142ae565b81845260208284010111610410576145e491602080850191016144f1565b9161012083830312610410578251926020810151916001600160401b03928381116104105784614a6a9184016149f7565b9360408301518481116104105781614a839185016149f7565b9360608401518181116104105782614a9c9186016149f7565b9360808101518281116104105783614ab59183016149f7565b9360a08201519360c08301518015158103610410579360e08401519081116104105761010091614ae69185016149f7565b92015190565b15614af357565b60405162461bcd60e51b815260206004820152601560248201527414185cdcdc1bdc9d081b9bdd081d995c9a599a5959605a1b6044820152606490fd5b15614b3757565b60405162461bcd60e51b815260206004820152600e60248201526d139bdd081c9959da5cdd195c995960921b6044820152606490fd5b15614b7457565b60405162461bcd60e51b815260206004820152600f60248201526e11dd5a5919481cdd5cdc195b991959608a1b6044820152606490fd5b15614bb257565b60405162461bcd60e51b815260206004820152600f60248201526e2737ba1033bab4b2329037bbb732b960891b6044820152606490fd5b818110614bf4575050565b5f8155600101614be9565b91909182516001600160401b038111610f5357614c1c8254614417565b601f8111614cc1575b50602080601f8311600114614c605750819293945f92614c55575b50508160011b915f199060031b1c1916179055565b015190505f80614c40565b90601f19831695845f5260205f20925f905b888210614ca957505083600195969710614c91575b505050811b019055565b01515f1960f88460031b161c191690555f8080614c87565b80600185968294968601518155019501930190614c72565b614cec90835f5260205f20601f840160051c81019160208510614cf2575b601f0160051c0190614be9565b5f614c25565b9091508190614cdf565b908154614d08816142cf565b92614d1660405194856142ae565b8184525f90815260208082208186015b848410614d34575050505050565b6001838192614d428561444f565b815201920193019290614d26565b81810292918115918404141715610c0f57565b8054600160401b811015610f5357614d80916001820181556145a0565b819291549060031b91821b915f19901b1916179055565b15614d9e57565b60405162461bcd60e51b815260206004820152601460248201527311dd5a5919481b9bdd081c9959da5cdd195c995960621b6044820152606490fd5b15614de157565b60405162461bcd60e51b815260206004820152600d60248201526c4e6f742074686520677569646560981b6044820152606490fd5b8115614e20570490565b634e487b7160e01b5f52601260045260245ffd5b15614e3b57565b60405162461bcd60e51b815260206004820152601760248201527f4e6f7420617574686f72697a656420617070726f7665720000000000000000006044820152606490fd5b15614e8757565b60405162461bcd60e51b815260206004820152600b60248201526a4e6f742070656e64696e6760a81b6044820152606490fd5b93929092614ec661595d565b614ece615980565b8315158061571c575b614ee09061484c565b8215158061570c575b614ef29061484c565b6001600160a01b038516156156d157811515806156c6575b1561569157825f526005602052614f2760ff60405f205416614d97565b835f52601660205260405f206201518042045f52602052600360405f2054101561565357825f52600460205260405f20614f6860ff60118301541615614b6d565b60ff600e820154161561561b57614f818486141561572c565b6001810154614f9e906001600160a01b038881169116141561572c565b6001600160a01b0386165f90815260186020526040902054603c8101908110610c0f5742106155e4576009810154600a8111615570575b506001600160a01b038281167f0000000000000000000000000000000000000000000000000000000000000000909116036154a557615018836004830154614d50565b95605a870292878404605a1488151715610c0f578760648504810311610c0f576012546150449061483e565b97889586601255600160a01b600190036001860154166040519061506782614240565b888252602082018a905260408083018c905260608301919091526001600160a01b03868116608084015260a0830184905260c08301859052851660e0830152426101008301525f6101208301819052610140830152516150c681614278565b5f815261016082015261018081015f90526101a081015f90526101c081015f90526101e081015f90526040516150fb81614278565b5f815261020082015261022081015f905260405161511881614278565b5f815261024082015261026081015f905261028081015f905260405161513d81614278565b5f81526102a0820152875f52601360205260405f209080518255602081015160018301556040810151600283015560038201600160a01b60019003606083015116906001600160601b0360a01b918282541617905560048301600160a01b600190036080840151168282541617905560a0820151600584015560c082015160068401556007830190600160a01b6001900360e08401511690825416179055610100810151600883015561012081015115156009830190615208919060ff801983541691151516179055565b610140810151600a83015561016081015161522690600b8401614bff565b6101808101511515600c830190615248919060ff801983541691151516179055565b6101a0810151600d8301556101c08101511515600e830190615275919060ff801983541691151516179055565b6101e0810151600f8301556102008101516152939060108401614bff565b61022081015160118301556102408101516152b19060128401614bff565b6013820161026082015115156152d390829060ff801983541691151516179055565b6102808201518154610100600160a81b03191660089190911b610100600160a81b03161790556102a0015161530a91601401614bff565b875f5260146020528660405f209061532191614d63565b885f5260156020528660405f209061533891614d63565b885f52601960205260405f20885f5260205260405f2060ff198154166001179055600160a01b6001900384165f5260186020524260405f2055885f52601660205260405f20426201518090045f5260205260405f2080546153989061483e565b905560098501546153a89061483e565b60098601557f7a3e5f406260a4703ddb55dbca48645ce4b3e7abfb1de68b3deb9bc3f82e88b49560809561546191606491615440906001600160a01b038881167f00000000000000000000000000000000000000000000000000000000000000009091160361548f57600c8101615420888254614831565b90555b60010154838304906001600160a01b039081169033908a16615bd1565b60025491900484039060081c6001600160a01b039081169033908716615bd1565b604080516001600160a01b039586168152602081019290925281019190915291166060820152a49060018055565b600d810161549e888254614831565b9055615423565b6001600160a01b038281167f00000000000000000000000000000000000000000000000000000000000000009091160361553357600581015480156154ee578361501891614d50565b60405162461bcd60e51b815260206004820152601a60248201527f477569646520646f65736e27742061636365707420544f5552530000000000006044820152606490fd5b60405162461bcd60e51b815260206004820152601560248201527424b73b30b634b2103830bcb6b2b73a103a37b5b2b760591b6044820152606490fd5b600b820154606481029080820460641490151715610c0f57601e9161559491614e16565b10156155a0575f614fd5565b606460405162461bcd60e51b815260206004820152602060248201527f47756964652063616e63656c6c6174696f6e207261746520746f6f20686967686044820152fd5b60405162461bcd60e51b815260206004820152600f60248201526e436f6f6c646f776e2061637469766560881b6044820152606490fd5b60405162461bcd60e51b815260206004820152601060248201526f4775696465206e6f742061637469766560801b6044820152606490fd5b60405162461bcd60e51b81526020600482015260166024820152754d6178203320626f6f6b696e6773207065722064617960501b6044820152606490fd5b60405162461bcd60e51b815260206004820152600d60248201526c496e76616c696420686f75727360981b6044820152606490fd5b5060a8821115614f0a565b60405162461bcd60e51b8152602060048201526013602482015272496e76616c69642062656e656669636961727960681b6044820152606490fd5b506001600160401b038310614ee9565b506001600160401b038410614ed7565b1561573357565b60405162461bcd60e51b815260206004820152601460248201527321b0b73737ba103137b7b5903cb7bab939b2b63360611b6044820152606490fd5b1561577657565b60405162461bcd60e51b815260206004820152601860248201527f436f6e6e656374696f6e20646f65736e277420657869737400000000000000006044820152606490fd5b156157c257565b60405162461bcd60e51b8152602060048201526011602482015270105b1c9958591e481c995cdc1bdb991959607a1b6044820152606490fd5b604051906158088261425c565b5f610220838281528260208201528260408201526060808201528260808201528260a0820152606060c0820152606060e08201528261010082015282610120820152826101408201528261016082015282610180820152826101a0820152826101c0820152826101e0820152826102008201520152565b1561588657565b60405162461bcd60e51b81526020600482015260146024820152730526174696e67206d75737420626520302d3530360641b6044820152606490fd5b5f52601160205260405f206201518042045f5260205260405f205460058110156158f45760050360058111610c0f5790565b505f90565b5f52601760205260405f206201518042045f5260205260405f205460148110156158f45760140360148111610c0f5790565b5f52601660205260405f206201518042045f5260205260405f205460038110156158f45760030360038111610c0f5790565b60026001541461596e576002600155565b604051633ee5aeb560e01b8152600490fd5b60ff6002541661598c57565b60405163d93c066560e01b8152600490fd5b93949591929095845f5260209560048752604093845f2090878255600194858301336001600160601b0360a01b8254161790558a600284015560038301885190600160401b8211610f53578054828255808310615b2e575b505f9081528b8120888d8c81015b858510615b115750505050505090615a329160048401556005936005840155613bac60069560068501614bff565b4260088201556011600e82019160ff1992868482541617905501818154169055865f526005885283855f2091825416179055875f526007875285845f2055335f526008875285845f2055825f905b615ac5575b505050507ff610b339634d1db8719dc1d3eb025956b9edf46883348483e0d1ce730c813bd791615ac091519182918683523396830190614537565b0390a4565b8551811015615b0c57908382615b0389615af58c80869998881b8d010151818c51938285809451938492016144f1565b810189815203019020614d63565b01909192615a80565b615a85565b9081615b1f84935186614bff565b019201920191908d8a91615a04565b815f52888d84815f209384019301905b838210615b4d575050506159f6565b615b578254614417565b80615b68575b50500189908e615b3e565b601f91828211600114615b83575050505f81555b8e5f615b5d565b5f92615b9d918585528420920160051c8201858301614be9565b81835555615b7c565b5f546001600160a01b03163303615bb957565b60405163118cdaa760e01b8152336004820152602490fd5b6040516323b872dd60e01b60208201526001600160a01b03928316602482015292909116604483015260648083019390935291815261448f91615c1382614293565b905f602091828151910182855af115613011575f513d615c6457506001600160a01b0381163b155b615c425750565b604051635274afe760e01b81526001600160a01b039091166004820152602490fd5b60011415615c3b56fea2646970667358221220e5a73ffea104efa1625916d004b97560e54b97c0ce3005ad1ed95644246c67ad64736f6c63430008160033","linkReferences":{}},"methodIdentifiers":{"AUTO_APPROVE_CREDIT()":"544d632d","AUTO_COMPLETE_PERIOD()":"1c0b88e1","BOOKING_COOLDOWN()":"f8cdb4c3","GUIDE_PERCENTAGE()":"ed1b4e9e","MANUAL_APPROVE_CREDIT()":"7502bedb","MAXIMUM_HOURLY_RATE()":"da4726f4","MAX_BOOKINGS_PER_DAY()":"816998ea","MAX_CANCELLATION_RATE()":"c28131e3","MAX_COUNTRIES()":"7fb221df","MAX_FREE_CONNECTIONS_PER_DAY()":"1c4a7a76","MAX_FREE_SKIPS_PER_DAY()":"aa11bb3c","MAX_HOURS_PER_BOOKING()":"1e6c401c","MINIMUM_HOURLY_RATE()":"b5ec752d","PAID_CONNECTION_FEE()":"b354f70c","PAID_SKIP_FEE()":"1ec3081e","PLATFORM_PERCENTAGE()":"09886c9c","acceptConnection(uint256,string)":"f57b0bf5","addCountry(string)":"c87e4359","addressToGuideFid(address)":"67bed593","applications(uint256)":"dfefadff","applyForGuideApproval(uint256,uint256,string[],string,string)":"4d0d2583","approvalOracle()":"72155223","approveGuideApplication(uint256,string,string)":"65054718","approvedGuides(uint256)":"82c40ea9","autoCompleteTour(uint256)":"0153b314","bookGuide(uint256,uint256,uint256,address)":"d2e38161","bookGuideFor(address,uint256,uint256,uint256,address)":"807e3f11","bookings(uint256)":"1dab301e","canAutoComplete(uint256)":"cfb96bd8","cancelBooking(uint256,string)":"d27d559f","confirmAndRate(uint256,uint256,string)":"a5d51c51","connections(uint256)":"3d06b900","dailyBookingCount(uint256,uint256)":"0b3d82b4","dailyConnectionCount(uint256,uint256)":"00b22315","dailySkipCount(uint256,uint256)":"a0e09b23","declineConnection(uint256,string)":"8281fd89","emergencyWithdraw(address,uint256)":"95ccea67","getApplication(uint256)":"1f2f4bfd","getBooking(uint256)":"6a5c841a","getConnection(uint256)":"c5634a9b","getDailyBookingCount(uint256)":"bf1fe518","getDailyConnectionCount(uint256)":"6aedf02c","getDailySkipCount(uint256)":"5c42974d","getGuide(uint256)":"cf960c0a","getGuideBookings(uint256)":"144a6f7b","getGuideByAddress(address)":"95869066","getGuideConnectionRequests(uint256)":"bdad22f5","getGuideCountries(uint256)":"51db3832","getGuidesByCountry(string)":"1fa6abda","getPendingApplications()":"6630d3ab","getRemainingBookings(uint256)":"ce7c5773","getRemainingFreeConnections(uint256)":"a5827ca6","getRemainingFreeSkips(uint256)":"ba7a897d","getTravelerBookings(uint256)":"2d7e7321","getTravelerConnections(uint256)":"560effb1","guideBookings(uint256,uint256)":"211ceff8","guideConnectionRequests(uint256,uint256)":"311d2948","guides(uint256)":"31086cee","hasApplied(uint256)":"83a5b241","hasBooked(uint256,uint256)":"1607d933","isGuide(uint256)":"71de8a32","isRegisteredGuide(uint256)":"51ddaced","lastBookingTime(address)":"4ae4408f","leaveGuideReview(uint256,uint256,string)":"9d5f32d2","markTourComplete(uint256,string)":"5b4e6f2c","owner()":"8da5cb5b","passportNFT()":"32d8dd87","passportToGuide(uint256)":"e581f41b","pause()":"8456cb59","paused()":"5c975abb","pendingApplicationIds(uint256)":"2734bbab","platformWallet()":"fa2af9da","registerGuide(uint256,uint256,string[],uint256,uint256,string,string)":"0ed0037b","reinstateGuide(uint256)":"cebd6d49","rejectGuideApplication(uint256,string)":"ee7d7133","renounceOwnership()":"715018a6","requestConnection(uint256,uint256,string,string)":"974a17e2","setApprovalOracle(address)":"120fc9fd","skipGuide(uint256,uint256)":"a51f49f7","suspendGuide(uint256,string)":"755230ba","toursToken()":"5997124b","transferOwnership(address)":"f2fde38b","travelerBookings(uint256,uint256)":"749ae7d0","travelerConnections(uint256,uint256)":"e552100a","unpause()":"3f4ba83a","updateGuide(uint256,uint256,string,string,bool)":"1b868ecd","updatePlatformWallet(address)":"ada4ef30","wmonToken()":"d08610fc"},"id":10}